{"src/SFLUVv1.sol":{"SFLUVv1":{"abi":[{"inputs":[{"internalType":"contract IERC20","name":"underlyingToken","type":"address"}],"stateMutability":"nonpayable","type":"constructor"},{"inputs":[],"name":"InvalidShortString","type":"error"},{"inputs":[{"internalType":"string","name":"str","type":"string"}],"name":"StringTooLong","type":"error"},{"anonymous":false,"inputs":[{"indexed":true,"internalType":"address","name":"owner","type":"address"},{"indexed":true,"internalType":"address","name":"spender","type":"address"},{"indexed":false,"internalType":"uint256","name":"value","type":"uint256"}],"name":"Approval","type":"event"},{"anonymous":false,"inputs":[],"name":"DefaultAdminDelayChangeCanceled","type":"event"},{"anonymous":false,"inputs":[{"indexed":false,"internalType":"uint48","name":"newDelay","type":"uint48"},{"indexed":false,"internalType":"uint48","name":"effectSchedule","type":"uint48"}],"name":"DefaultAdminDelayChangeScheduled","type":"event"},{"anonymous":false,"inputs":[],"name":"DefaultAdminTransferCanceled","type":"event"},{"anonymous":false,"inputs":[{"indexed":true,"internalType":"address","name":"newAdmin","type":"address"},{"indexed":false,"internalType":"uint48","name":"acceptSchedule","type":"uint48"}],"name":"DefaultAdminTransferScheduled","type":"event"},{"anonymous":false,"inputs":[],"name":"EIP712DomainChanged","type":"event"},{"anonymous":false,"inputs":[{"indexed":true,"internalType":"bytes32","name":"role","type":"bytes32"},{"indexed":true,"internalType":"bytes32","name":"previousAdminRole","type":"bytes32"},{"indexed":true,"internalType":"bytes32","name":"newAdminRole","type":"bytes32"}],"name":"RoleAdminChanged","type":"event"},{"anonymous":false,"inputs":[{"indexed":true,"internalType":"bytes32","name":"role","type":"bytes32"},{"indexed":true,"internalType":"address","name":"account","type":"address"},{"indexed":true,"internalType":"address","name":"sender","type":"address"}],"name":"RoleGranted","type":"event"},{"anonymous":false,"inputs":[{"indexed":true,"internalType":"bytes32","name":"role","type":"bytes32"},{"indexed":true,"internalType":"address","name":"account","type":"address"},{"indexed":true,"internalType":"address","name":"sender","type":"address"}],"name":"RoleRevoked","type":"event"},{"anonymous":false,"inputs":[{"indexed":true,"internalType":"address","name":"from","type":"address"},{"indexed":true,"internalType":"address","name":"to","type":"address"},{"indexed":false,"internalType":"uint256","name":"value","type":"uint256"}],"name":"Transfer","type":"event"},{"inputs":[],"name":"DEFAULT_ADMIN_ROLE","outputs":[{"internalType":"bytes32","name":"","type":"bytes32"}],"stateMutability":"view","type":"function"},{"inputs":[],"name":"DOMAIN_SEPARATOR","outputs":[{"internalType":"bytes32","name":"","type":"bytes32"}],"stateMutability":"view","type":"function"},{"inputs":[],"name":"MINTER_ROLE","outputs":[{"internalType":"bytes32","name":"","type":"bytes32"}],"stateMutability":"view","type":"function"},{"inputs":[],"name":"acceptDefaultAdminTransfer","outputs":[],"stateMutability":"nonpayable","type":"function"},{"inputs":[{"internalType":"address","name":"owner","type":"address"},{"internalType":"address","name":"spender","type":"address"}],"name":"allowance","outputs":[{"internalType":"uint256","name":"","type":"uint256"}],"stateMutability":"view","type":"function"},{"inputs":[{"internalType":"address","name":"spender","type":"address"},{"internalType":"uint256","name":"amount","type":"uint256"}],"name":"approve","outputs":[{"internalType":"bool","name":"","type":"bool"}],"stateMutability":"nonpayable","type":"function"},{"inputs":[{"internalType":"address","name":"account","type":"address"}],"name":"balanceOf","outputs":[{"internalType":"uint256","name":"","type":"uint256"}],"stateMutability":"view","type":"function"},{"inputs":[{"internalType":"address","name":"newAdmin","type":"address"}],"name":"beginDefaultAdminTransfer","outputs":[],"stateMutability":"nonpayable","type":"function"},{"inputs":[],"name":"cancelDefaultAdminTransfer","outputs":[],"stateMutability":"nonpayable","type":"function"},{"inputs":[{"internalType":"uint48","name":"newDelay","type":"uint48"}],"name":"changeDefaultAdminDelay","outputs":[],"stateMutability":"nonpayable","type":"function"},{"inputs":[],"name":"decimals","outputs":[{"internalType":"uint8","name":"","type":"uint8"}],"stateMutability":"pure","type":"function"},{"inputs":[{"internalType":"address","name":"spender","type":"address"},{"internalType":"uint256","name":"subtractedValue","type":"uint256"}],"name":"decreaseAllowance","outputs":[{"internalType":"bool","name":"","type":"bool"}],"stateMutability":"nonpayable","type":"function"},{"inputs":[],"name":"defaultAdmin","outputs":[{"internalType":"address","name":"","type":"address"}],"stateMutability":"view","type":"function"},{"inputs":[],"name":"defaultAdminDelay","outputs":[{"internalType":"uint48","name":"","type":"uint48"}],"stateMutability":"view","type":"function"},{"inputs":[],"name":"defaultAdminDelayIncreaseWait","outputs":[{"internalType":"uint48","name":"","type":"uint48"}],"stateMutability":"view","type":"function"},{"inputs":[{"internalType":"address","name":"account","type":"address"},{"internalType":"uint256","name":"amount","type":"uint256"}],"name":"depositFor","outputs":[{"internalType":"bool","name":"","type":"bool"}],"stateMutability":"nonpayable","type":"function"},{"inputs":[],"name":"eip712Domain","outputs":[{"internalType":"bytes1","name":"fields","type":"bytes1"},{"internalType":"string","name":"name","type":"string"},{"internalType":"string","name":"version","type":"string"},{"internalType":"uint256","name":"chainId","type":"uint256"},{"internalType":"address","name":"verifyingContract","type":"address"},{"internalType":"bytes32","name":"salt","type":"bytes32"},{"internalType":"uint256[]","name":"extensions","type":"uint256[]"}],"stateMutability":"view","type":"function"},{"inputs":[{"internalType":"bytes32","name":"role","type":"bytes32"}],"name":"getRoleAdmin","outputs":[{"internalType":"bytes32","name":"","type":"bytes32"}],"stateMutability":"view","type":"function"},{"inputs":[{"internalType":"bytes32","name":"role","type":"bytes32"},{"internalType":"address","name":"account","type":"address"}],"name":"grantRole","outputs":[],"stateMutability":"nonpayable","type":"function"},{"inputs":[{"internalType":"bytes32","name":"role","type":"bytes32"},{"internalType":"address","name":"account","type":"address"}],"name":"hasRole","outputs":[{"internalType":"bool","name":"","type":"bool"}],"stateMutability":"view","type":"function"},{"inputs":[{"internalType":"address","name":"spender","type":"address"},{"internalType":"uint256","name":"addedValue","type":"uint256"}],"name":"increaseAllowance","outputs":[{"internalType":"bool","name":"","type":"bool"}],"stateMutability":"nonpayable","type":"function"},{"inputs":[],"name":"name","outputs":[{"internalType":"string","name":"","type":"string"}],"stateMutability":"view","type":"function"},{"inputs":[{"internalType":"address","name":"owner","type":"address"}],"name":"nonces","outputs":[{"internalType":"uint256","name":"","type":"uint256"}],"stateMutability":"view","type":"function"},{"inputs":[],"name":"owner","outputs":[{"internalType":"address","name":"","type":"address"}],"stateMutability":"view","type":"function"},{"inputs":[],"name":"pendingDefaultAdmin","outputs":[{"internalType":"address","name":"newAdmin","type":"address"},{"internalType":"uint48","name":"schedule","type":"uint48"}],"stateMutability":"view","type":"function"},{"inputs":[],"name":"pendingDefaultAdminDelay","outputs":[{"internalType":"uint48","name":"newDelay","type":"uint48"},{"internalType":"uint48","name":"schedule","type":"uint48"}],"stateMutability":"view","type":"function"},{"inputs":[{"internalType":"address","name":"owner","type":"address"},{"internalType":"address","name":"spender","type":"address"},{"internalType":"uint256","name":"value","type":"uint256"},{"internalType":"uint256","name":"deadline","type":"uint256"},{"internalType":"uint8","name":"v","type":"uint8"},{"internalType":"bytes32","name":"r","type":"bytes32"},{"internalType":"bytes32","name":"s","type":"bytes32"}],"name":"permit","outputs":[],"stateMutability":"nonpayable","type":"function"},{"inputs":[{"internalType":"bytes32","name":"role","type":"bytes32"},{"internalType":"address","name":"account","type":"address"}],"name":"renounceRole","outputs":[],"stateMutability":"nonpayable","type":"function"},{"inputs":[{"internalType":"bytes32","name":"role","type":"bytes32"},{"internalType":"address","name":"account","type":"address"}],"name":"revokeRole","outputs":[],"stateMutability":"nonpayable","type":"function"},{"inputs":[],"name":"rollbackDefaultAdminDelay","outputs":[],"stateMutability":"nonpayable","type":"function"},{"inputs":[{"internalType":"bytes4","name":"interfaceId","type":"bytes4"}],"name":"supportsInterface","outputs":[{"internalType":"bool","name":"","type":"bool"}],"stateMutability":"view","type":"function"},{"inputs":[],"name":"symbol","outputs":[{"internalType":"string","name":"","type":"string"}],"stateMutability":"view","type":"function"},{"inputs":[],"name":"totalSupply","outputs":[{"internalType":"uint256","name":"","type":"uint256"}],"stateMutability":"view","type":"function"},{"inputs":[{"internalType":"address","name":"to","type":"address"},{"internalType":"uint256","name":"amount","type":"uint256"}],"name":"transfer","outputs":[{"internalType":"bool","name":"","type":"bool"}],"stateMutability":"nonpayable","type":"function"},{"inputs":[{"internalType":"address","name":"from","type":"address"},{"internalType":"address","name":"to","type":"address"},{"internalType":"uint256","name":"amount","type":"uint256"}],"name":"transferFrom","outputs":[{"internalType":"bool","name":"","type":"bool"}],"stateMutability":"nonpayable","type":"function"},{"inputs":[],"name":"underlying","outputs":[{"internalType":"contract IERC20","name":"","type":"address"}],"stateMutability":"view","type":"function"},{"inputs":[{"internalType":"address","name":"account","type":"address"},{"internalType":"uint256","name":"amount","type":"uint256"}],"name":"withdrawTo","outputs":[{"internalType":"bool","name":"","type":"bool"}],"stateMutability":"nonpayable","type":"function"}],"evm":{"bytecode":{"linkReferences":{},"object":"6101806040523480156200001257600080fd5b5060405162002f6f38038062002f6f833981016040819052620000359162000461565b62093a80336040518060400160405280600a81526020016953464c55562056312e3160b01b81525080604051806040016040528060018152602001603160f81b815250856040518060400160405280600a81526020016953464c55562056312e3160b01b8152506040518060400160405280600581526020016429a3262aab60d91b8152508160039081620000cb919062000538565b506004620000da828262000538565b5050306001600160a01b0383160390506200013c5760405162461bcd60e51b815260206004820152601e60248201527f4552433230577261707065723a2063616e6e6f742073656c662077726170000060448201526064015b60405180910390fd5b6001600160a01b0316608052620001558260056200028d565b61014052620001668160066200028d565b61016052815160208084019190912061010052815190820120610120524660c052620001f66101005161012051604080517f8b73c3c69bb8fe3d512ecc4cf759cc79239f7b179b0ffacaa9a75d522b39400f60208201529081019290925260608201524660808201523060a082015260009060c00160405160208183030381529060405280519060200120905090565b60a05250503060e052506001600160a01b038116620002585760405162461bcd60e51b815260206004820152601e60248201527f416363657373436f6e74726f6c3a20302064656661756c742061646d696e0000604482015260640162000133565b600a80546001600160d01b0316600160d01b65ffffffffffff85160217905562000284600082620002c6565b50505062000679565b6000602083511015620002ad57620002a5836200037a565b9050620002c0565b81620002ba848262000538565b5060ff90505b92915050565b816200036a576000620002e1600b546001600160a01b031690565b6001600160a01b0316146200034e5760405162461bcd60e51b815260206004820152602c60248201527f416363657373436f6e74726f6c3a2064656661756c742061646d696e20616c7260448201526b1958591e4819dc985b9d195960a21b606482015260840162000133565b600b80546001600160a01b0319166001600160a01b0383161790555b620003768282620003bd565b5050565b600080829050601f81511115620003a8578260405163305a27a960e01b815260040162000133919062000604565b8051620003b58262000654565b179392505050565b60008281526009602090815260408083206001600160a01b038516845290915290205460ff16620003765760008281526009602090815260408083206001600160a01b03851684529091529020805460ff191660011790556200041d3390565b6001600160a01b0316816001600160a01b0316837f2f8788117e7eff1d82e926ec794901d17c78024a50270940304540a733656f0d60405160405180910390a45050565b6000602082840312156200047457600080fd5b81516001600160a01b03811681146200048c57600080fd5b9392505050565b634e487b7160e01b600052604160045260246000fd5b600181811c90821680620004be57607f821691505b602082108103620004df57634e487b7160e01b600052602260045260246000fd5b50919050565b601f8211156200053357600081815260208120601f850160051c810160208610156200050e5750805b601f850160051c820191505b818110156200052f578281556001016200051a565b5050505b505050565b81516001600160401b0381111562000554576200055462000493565b6200056c81620005658454620004a9565b84620004e5565b602080601f831160018114620005a457600084156200058b5750858301515b600019600386901b1c1916600185901b1785556200052f565b600085815260208120601f198616915b82811015620005d557888601518255948401946001909101908401620005b4565b5085821015620005f45787850151600019600388901b60f8161c191681555b5050505050600190811b01905550565b600060208083528351808285015260005b81811015620006335785810183015185820160400152820162000615565b506000604082860101526040601f19601f8301168501019250505092915050565b80516020808301519190811015620004df5760001960209190910360031b1b16919050565b60805160a05160c05160e05161010051610120516101405161016051612882620006ed60003960006108f4015260006108c90152600061144001526000611418015260006113730152600061139d015260006113c701526000818161038801528181610642015261133501526128826000f3fe608060405234801561001057600080fd5b50600436106102275760003560e01c806370a0823111610130578063a457c2d7116100b8578063d505accf1161007c578063d505accf146104de578063d5391393146104f1578063d547741f14610518578063d602b9fd1461052b578063dd62ed3e1461053357600080fd5b8063a457c2d71461047a578063a9059cbb1461048d578063cc8463c8146104a0578063cefc1429146104a8578063cf6eefb7146104b057600080fd5b80638da5cb5b116100ff5780638da5cb5b1461042857806391d148541461043057806395d89b4114610443578063a1eda53c1461044b578063a217fddf1461047257600080fd5b806370a08231146103c05780637ecebe00146103e957806384b0196e146103fc57806384ef8ffc1461041757600080fd5b80632f2ff15d116101b357806336568abe1161018257806336568abe1461033a578063395093511461034d578063634e93da14610360578063649a5ec7146103735780636f307dc31461038657600080fd5b80632f2ff15d146102fd5780632f4f21e214610310578063313ce567146103235780633644e5151461033257600080fd5b80630aa6220b116101fa5780630aa6220b1461029857806318160ddd146102a2578063205c2878146102b457806323b872dd146102c7578063248a9ca3146102da57600080fd5b806301ffc9a71461022c578063022d63fb1461025457806306fdde0314610270578063095ea7b314610285575b600080fd5b61023f61023a3660046123bd565b610546565b60405190151581526020015b60405180910390f35b620697805b60405165ffffffffffff909116815260200161024b565b610278610571565b60405161024b9190612437565b61023f610293366004612466565b610603565b6102a061061b565b005b6002545b60405190815260200161024b565b61023f6102c2366004612466565b610631565b61023f6102d5366004612490565b610671565b6102a66102e83660046124cc565b60009081526009602052604090206001015490565b6102a061030b3660046124e5565b610695565b61023f61031e366004612466565b610714565b6040516006815260200161024b565b6102a661075a565b6102a06103483660046124e5565b610769565b61023f61035b366004612466565b610853565b6102a061036e366004612511565b610875565b6102a061038136600461252c565b610889565b7f00000000000000000000000000000000000000000000000000000000000000005b6040516001600160a01b03909116815260200161024b565b6102a66103ce366004612511565b6001600160a01b031660009081526020819052604090205490565b6102a66103f7366004612511565b61089d565b6104046108bb565b60405161024b9796959493929190612554565b600b546001600160a01b03166103a8565b6103a8610944565b61023f61043e3660046124e5565b610958565b610278610983565b610453610992565b6040805165ffffffffffff93841681529290911660208301520161024b565b6102a6600081565b61023f610488366004612466565b6109e6565b61023f61049b366004612466565b610a61565b610259610a6f565b6102a0610ace565b6104b8610b4c565b604080516001600160a01b03909316835265ffffffffffff90911660208301520161024b565b6102a06104ec3660046125ea565b610b6d565b6102a67ff0887ba65ee2024ea881d91b74c2450ef19e1557f03bed3ea9f16b037cbe2dc981565b6102a06105263660046124e5565b610cd1565b6102a0610d4e565b6102a661054136600461265d565b610d61565b60006001600160e01b031982166318a4c3c360e11b148061056b575061056b82610d8c565b92915050565b60606003805461058090612687565b80601f01602080910402602001604051908101604052809291908181526020018280546105ac90612687565b80156105f95780601f106105ce576101008083540402835291602001916105f9565b820191906000526020600020905b8154815290600101906020018083116105dc57829003601f168201915b5050505050905090565b600033610611818585610dc1565b5060019392505050565b600061062681610ee6565b61062e610ef0565b50565b600061063d3383610efd565b6106687f0000000000000000000000000000000000000000000000000000000000000000848461102c565b50600192915050565b60003361067f85828561108f565b61068a858585611109565b506001949350505050565b816107065760405162461bcd60e51b815260206004820152603660248201527f416363657373436f6e74726f6c3a2063616e2774206469726563746c79206772604482015275616e742064656661756c742061646d696e20726f6c6560501b60648201526084015b60405180910390fd5b61071082826112ad565b5050565b60006107407ff0887ba65ee2024ea881d91b74c2450ef19e1557f03bed3ea9f16b037cbe2dc933610958565b61074957600080fd5b61075383836112d2565b9392505050565b6000610764611366565b905090565b811580156107845750600b546001600160a01b038281169116145b1561084957600080610794610b4c565b90925090506001600160a01b0382161580156107b7575065ffffffffffff811615155b80156107ca57504265ffffffffffff8216105b6108345760405162461bcd60e51b815260206004820152603560248201527f416363657373436f6e74726f6c3a206f6e6c792063616e2072656e6f756e636560448201527420696e2074776f2064656c6179656420737465707360581b60648201526084016106fd565b5050600a805465ffffffffffff60a01b191690555b6107108282611491565b6000336106118185856108668383610d61565b61087091906126d1565b610dc1565b600061088081610ee6565b6107108261150b565b600061089481610ee6565b6107108261157e565b6001600160a01b03811660009081526007602052604081205461056b565b6000606080828080836108ef7f000000000000000000000000000000000000000000000000000000000000000060056115ee565b61091a7f000000000000000000000000000000000000000000000000000000000000000060066115ee565b60408051600080825260208201909252600f60f81b9b939a50919850469750309650945092509050565b6000610764600b546001600160a01b031690565b60009182526009602090815260408084206001600160a01b0393909316845291905290205460ff1690565b60606004805461058090612687565b600b54600090600160d01b900465ffffffffffff1680151580156109be57504265ffffffffffff821610155b6109ca576000806109de565b600b54600160a01b900465ffffffffffff16815b915091509091565b600033816109f48286610d61565b905083811015610a545760405162461bcd60e51b815260206004820152602560248201527f45524332303a2064656372656173656420616c6c6f77616e63652062656c6f77604482015264207a65726f60d81b60648201526084016106fd565b61068a8286868403610dc1565b600033610611818585611109565b600b54600090600160d01b900465ffffffffffff168015158015610a9a57504265ffffffffffff8216105b610ab557600a54600160d01b900465ffffffffffff16610ac8565b600b54600160a01b900465ffffffffffff165b91505090565b6000610ad8610b4c565b509050336001600160a01b03821614610b445760405162461bcd60e51b815260206004820152602860248201527f416363657373436f6e74726f6c3a2070656e64696e672061646d696e206d75736044820152671d081858d8d95c1d60c21b60648201526084016106fd565b61062e611699565b600a546001600160a01b03811691600160a01b90910465ffffffffffff1690565b83421115610bbd5760405162461bcd60e51b815260206004820152601d60248201527f45524332305065726d69743a206578706972656420646561646c696e6500000060448201526064016106fd565b60007f6e71edae12b1b97f4d1f60370fef10105fa2faae0126114a169c64845d6126c9888888610bec8c611764565b6040805160208101969096526001600160a01b0394851690860152929091166060840152608083015260a082015260c0810186905260e0016040516020818303038152906040528051906020012090506000610c478261178c565b90506000610c57828787876117b9565b9050896001600160a01b0316816001600160a01b031614610cba5760405162461bcd60e51b815260206004820152601e60248201527f45524332305065726d69743a20696e76616c6964207369676e6174757265000060448201526064016106fd565b610cc58a8a8a610dc1565b50505050505050505050565b81610d445760405162461bcd60e51b815260206004820152603760248201527f416363657373436f6e74726f6c3a2063616e2774206469726563746c7920726560448201527f766f6b652064656661756c742061646d696e20726f6c6500000000000000000060648201526084016106fd565b61071082826117e3565b6000610d5981610ee6565b61062e611808565b6001600160a01b03918216600090815260016020908152604080832093909416825291909152205490565b60006001600160e01b03198216637965db0b60e01b148061056b57506301ffc9a760e01b6001600160e01b031983161461056b565b6001600160a01b038316610e235760405162461bcd60e51b8152602060048201526024808201527f45524332303a20617070726f76652066726f6d20746865207a65726f206164646044820152637265737360e01b60648201526084016106fd565b6001600160a01b038216610e845760405162461bcd60e51b815260206004820152602260248201527f45524332303a20617070726f766520746f20746865207a65726f206164647265604482015261737360f01b60648201526084016106fd565b6001600160a01b0383811660008181526001602090815260408083209487168084529482529182902085905590518481527f8c5be1e5ebec7d5bd14f71427d1e84f3dd0314c0f7b2291e5b200ac8c7c3b92591015b60405180910390a3505050565b61062e8133611813565b610efb60008061186c565b565b6001600160a01b038216610f5d5760405162461bcd60e51b815260206004820152602160248201527f45524332303a206275726e2066726f6d20746865207a65726f206164647265736044820152607360f81b60648201526084016106fd565b6001600160a01b03821660009081526020819052604090205481811015610fd15760405162461bcd60e51b815260206004820152602260248201527f45524332303a206275726e20616d6f756e7420657863656564732062616c616e604482015261636560f01b60648201526084016106fd565b6001600160a01b0383166000818152602081815260408083208686039055600280548790039055518581529192917fddf252ad1be2c89b69c2b068fc378daa952ba7f163c4a11628f55a4df523b3ef9101610ed9565b505050565b6040516001600160a01b03831660248201526044810182905261102790849063a9059cbb60e01b906064015b60408051601f198184030181529190526020810180516001600160e01b03166001600160e01b03199093169290921790915261192c565b600061109b8484610d61565b9050600019811461110357818110156110f65760405162461bcd60e51b815260206004820152601d60248201527f45524332303a20696e73756666696369656e7420616c6c6f77616e636500000060448201526064016106fd565b6111038484848403610dc1565b50505050565b6001600160a01b03831661116d5760405162461bcd60e51b815260206004820152602560248201527f45524332303a207472616e736665722066726f6d20746865207a65726f206164604482015264647265737360d81b60648201526084016106fd565b6001600160a01b0382166111cf5760405162461bcd60e51b815260206004820152602360248201527f45524332303a207472616e7366657220746f20746865207a65726f206164647260448201526265737360e81b60648201526084016106fd565b6001600160a01b038316600090815260208190526040902054818110156112475760405162461bcd60e51b815260206004820152602660248201527f45524332303a207472616e7366657220616d6f756e7420657863656564732062604482015265616c616e636560d01b60648201526084016106fd565b6001600160a01b03848116600081815260208181526040808320878703905593871680835291849020805487019055925185815290927fddf252ad1be2c89b69c2b068fc378daa952ba7f163c4a11628f55a4df523b3ef910160405180910390a3611103565b6000828152600960205260409020600101546112c881610ee6565b6110278383611a01565b6000333081036113305760405162461bcd60e51b815260206004820152602360248201527f4552433230577261707065723a20777261707065722063616e2774206465706f6044820152621cda5d60ea1b60648201526084016106fd565b61135c7f0000000000000000000000000000000000000000000000000000000000000000823086611aab565b6106118484611ae3565b6000306001600160a01b037f0000000000000000000000000000000000000000000000000000000000000000161480156113bf57507f000000000000000000000000000000000000000000000000000000000000000046145b156113e957507f000000000000000000000000000000000000000000000000000000000000000090565b610764604080517f8b73c3c69bb8fe3d512ecc4cf759cc79239f7b179b0ffacaa9a75d522b39400f60208201527f0000000000000000000000000000000000000000000000000000000000000000918101919091527f000000000000000000000000000000000000000000000000000000000000000060608201524660808201523060a082015260009060c00160405160208183030381529060405280519060200120905090565b6001600160a01b03811633146115015760405162461bcd60e51b815260206004820152602f60248201527f416363657373436f6e74726f6c3a2063616e206f6e6c792072656e6f756e636560448201526e103937b632b9903337b91039b2b63360891b60648201526084016106fd565b6107108282611ba2565b6000611515610a6f565b61151e42611bdd565b61152891906126fa565b90506115348282611c48565b60405165ffffffffffff821681526001600160a01b038316907f3377dc44241e779dd06afab5b788a35ca5f3b778836e2990bdb26a2a4b2e5ed69060200160405180910390a25050565b600061158982611cc7565b61159242611bdd565b61159c91906126fa565b90506115a8828261186c565b6040805165ffffffffffff8085168252831660208201527ff1038c18cf84a56e432fdbfaf746924b7ea511dfe03a6506a0ceba4888788d9b910160405180910390a15050565b606060ff83146116085761160183611d0f565b905061056b565b81805461161490612687565b80601f016020809104026020016040519081016040528092919081815260200182805461164090612687565b801561168d5780601f106116625761010080835404028352916020019161168d565b820191906000526020600020905b81548152906001019060200180831161167057829003601f168201915b5050505050905061056b565b6000806116a4610b4c565b915091506116b98165ffffffffffff16151590565b80156116cc57504265ffffffffffff8216105b6117295760405162461bcd60e51b815260206004820152602860248201527f416363657373436f6e74726f6c3a207472616e736665722064656c6179206e6f6044820152671d081c185cdcd95960c21b60648201526084016106fd565b6117456000611740600b546001600160a01b031690565b611ba2565b611750600083611a01565b5050600a80546001600160d01b0319169055565b6001600160a01b03811660009081526007602052604090208054600181018255905b50919050565b600061056b611799611366565b8360405161190160f01b8152600281019290925260228201526042902090565b60008060006117ca87878787611d4e565b915091506117d781611e12565b5090505b949350505050565b6000828152600960205260409020600101546117fe81610ee6565b6110278383611ba2565b610efb600080611c48565b61181d8282610958565b6107105761182a81611f5c565b611835836020611f6e565b604051602001611846929190612720565b60408051601f198184030181529082905262461bcd60e51b82526106fd91600401612437565b600b54600160d01b900465ffffffffffff1680156118ef574265ffffffffffff821610156118c557600b54600a80546001600160d01b0316600160a01b90920465ffffffffffff16600160d01b029190911790556118ef565b6040517f2b1fa2edafe6f7b9e97c1a9e0c3660e645beb2dcaa2d45bdbf9beaf5472e1ec590600090a15b50600b80546001600160a01b0316600160a01b65ffffffffffff948516026001600160d01b031617600160d01b9290931691909102919091179055565b6000611981826040518060400160405280602081526020017f5361666545524332303a206c6f772d6c6576656c2063616c6c206661696c6564815250856001600160a01b031661210a9092919063ffffffff16565b90508051600014806119a25750808060200190518101906119a29190612795565b6110275760405162461bcd60e51b815260206004820152602a60248201527f5361666545524332303a204552433230206f7065726174696f6e20646964206e6044820152691bdd081cdd58d8d9595960b21b60648201526084016106fd565b81611aa1576000611a1a600b546001600160a01b031690565b6001600160a01b031614611a855760405162461bcd60e51b815260206004820152602c60248201527f416363657373436f6e74726f6c3a2064656661756c742061646d696e20616c7260448201526b1958591e4819dc985b9d195960a21b60648201526084016106fd565b600b80546001600160a01b0319166001600160a01b0383161790555b6107108282612119565b6040516001600160a01b03808516602483015283166044820152606481018290526111039085906323b872dd60e01b90608401611058565b6001600160a01b038216611b395760405162461bcd60e51b815260206004820152601f60248201527f45524332303a206d696e7420746f20746865207a65726f20616464726573730060448201526064016106fd565b8060026000828254611b4b91906126d1565b90915550506001600160a01b038216600081815260208181526040808320805486019055518481527fddf252ad1be2c89b69c2b068fc378daa952ba7f163c4a11628f55a4df523b3ef910160405180910390a35050565b81158015611bbd5750600b546001600160a01b038281169116145b15611bd357600b80546001600160a01b03191690555b610710828261219f565b600065ffffffffffff821115611c445760405162461bcd60e51b815260206004820152602660248201527f53616665436173743a2076616c756520646f65736e27742066697420696e203460448201526538206269747360d01b60648201526084016106fd565b5090565b6000611c52610b4c565b600a805465ffffffffffff8616600160a01b026001600160d01b03199091166001600160a01b038816171790559150611c9490508165ffffffffffff16151590565b15611027576040517f8886ebfc4259abdbc16601dd8fb5678e54878f47b3c34836cfc51154a960510990600090a1505050565b600080611cd2610a6f565b90508065ffffffffffff168365ffffffffffff1611611cfa57611cf583826127b7565b610753565b61075365ffffffffffff841662069780612206565b60606000611d1c8361221c565b604080516020808252818301909252919250600091906020820181803683375050509182525060208101929092525090565b6000807f7fffffffffffffffffffffffffffffff5d576e7357a4501ddfe92f46681b20a0831115611d855750600090506003611e09565b6040805160008082526020820180845289905260ff881692820192909252606081018690526080810185905260019060a0016020604051602081039080840390855afa158015611dd9573d6000803e3d6000fd5b5050604051601f1901519150506001600160a01b038116611e0257600060019250925050611e09565b9150600090505b94509492505050565b6000816004811115611e2657611e266127d6565b03611e2e5750565b6001816004811115611e4257611e426127d6565b03611e8f5760405162461bcd60e51b815260206004820152601860248201527f45434453413a20696e76616c6964207369676e6174757265000000000000000060448201526064016106fd565b6002816004811115611ea357611ea36127d6565b03611ef05760405162461bcd60e51b815260206004820152601f60248201527f45434453413a20696e76616c6964207369676e6174757265206c656e6774680060448201526064016106fd565b6003816004811115611f0457611f046127d6565b0361062e5760405162461bcd60e51b815260206004820152602260248201527f45434453413a20696e76616c6964207369676e6174757265202773272076616c604482015261756560f01b60648201526084016106fd565b606061056b6001600160a01b03831660145b60606000611f7d8360026127ec565b611f889060026126d1565b67ffffffffffffffff811115611fa057611fa06126e4565b6040519080825280601f01601f191660200182016040528015611fca576020820181803683370190505b509050600360fc1b81600081518110611fe557611fe5612803565b60200101906001600160f81b031916908160001a905350600f60fb1b8160018151811061201457612014612803565b60200101906001600160f81b031916908160001a90535060006120388460026127ec565b6120439060016126d1565b90505b60018111156120bb576f181899199a1a9b1b9c1cb0b131b232b360811b85600f166010811061207757612077612803565b1a60f81b82828151811061208d5761208d612803565b60200101906001600160f81b031916908160001a90535060049490941c936120b481612819565b9050612046565b5083156107535760405162461bcd60e51b815260206004820181905260248201527f537472696e67733a20686578206c656e67746820696e73756666696369656e7460448201526064016106fd565b60606117db8484600085612244565b6121238282610958565b6107105760008281526009602090815260408083206001600160a01b03851684529091529020805460ff1916600117905561215b3390565b6001600160a01b0316816001600160a01b0316837f2f8788117e7eff1d82e926ec794901d17c78024a50270940304540a733656f0d60405160405180910390a45050565b6121a98282610958565b156107105760008281526009602090815260408083206001600160a01b0385168085529252808320805460ff1916905551339285917ff6391f5c32d9c69d2a47ea670b442974b53935d1edc7fd64eb21e047a839171b9190a45050565b60008183106122155781610753565b5090919050565b600060ff8216601f81111561056b57604051632cd44ac360e21b815260040160405180910390fd5b6060824710156122a55760405162461bcd60e51b815260206004820152602660248201527f416464726573733a20696e73756666696369656e742062616c616e636520666f6044820152651c8818d85b1b60d21b60648201526084016106fd565b600080866001600160a01b031685876040516122c19190612830565b60006040518083038185875af1925050503d80600081146122fe576040519150601f19603f3d011682016040523d82523d6000602084013e612303565b606091505b50915091506123148783838761231f565b979650505050505050565b6060831561238e578251600003612387576001600160a01b0385163b6123875760405162461bcd60e51b815260206004820152601d60248201527f416464726573733a2063616c6c20746f206e6f6e2d636f6e747261637400000060448201526064016106fd565b50816117db565b6117db83838151156123a35781518083602001fd5b8060405162461bcd60e51b81526004016106fd9190612437565b6000602082840312156123cf57600080fd5b81356001600160e01b03198116811461075357600080fd5b60005b838110156124025781810151838201526020016123ea565b50506000910152565b600081518084526124238160208601602086016123e7565b601f01601f19169290920160200192915050565b602081526000610753602083018461240b565b80356001600160a01b038116811461246157600080fd5b919050565b6000806040838503121561247957600080fd5b6124828361244a565b946020939093013593505050565b6000806000606084860312156124a557600080fd5b6124ae8461244a565b92506124bc6020850161244a565b9150604084013590509250925092565b6000602082840312156124de57600080fd5b5035919050565b600080604083850312156124f857600080fd5b823591506125086020840161244a565b90509250929050565b60006020828403121561252357600080fd5b6107538261244a565b60006020828403121561253e57600080fd5b813565ffffffffffff8116811461075357600080fd5b60ff60f81b881681526000602060e08184015261257460e084018a61240b565b8381036040850152612586818a61240b565b606085018990526001600160a01b038816608086015260a0850187905284810360c0860152855180825283870192509083019060005b818110156125d8578351835292840192918401916001016125bc565b50909c9b505050505050505050505050565b600080600080600080600060e0888a03121561260557600080fd5b61260e8861244a565b965061261c6020890161244a565b95506040880135945060608801359350608088013560ff8116811461264057600080fd5b9699959850939692959460a0840135945060c09093013592915050565b6000806040838503121561267057600080fd5b6126798361244a565b91506125086020840161244a565b600181811c9082168061269b57607f821691505b60208210810361178657634e487b7160e01b600052602260045260246000fd5b634e487b7160e01b600052601160045260246000fd5b8082018082111561056b5761056b6126bb565b634e487b7160e01b600052604160045260246000fd5b65ffffffffffff818116838216019080821115612719576127196126bb565b5092915050565b7f416363657373436f6e74726f6c3a206163636f756e74200000000000000000008152600083516127588160178501602088016123e7565b7001034b99036b4b9b9b4b733903937b6329607d1b60179184019182015283516127898160288401602088016123e7565b01602801949350505050565b6000602082840312156127a757600080fd5b8151801515811461075357600080fd5b65ffffffffffff828116828216039080821115612719576127196126bb565b634e487b7160e01b600052602160045260246000fd5b808202811582820484141761056b5761056b6126bb565b634e487b7160e01b600052603260045260246000fd5b600081612828576128286126bb565b506000190190565b600082516128428184602087016123e7565b919091019291505056fea26469706673582212202621a3b2ebb241cb9112842a491b5c2f2e6c0ba370fa9605eb1bcd4b5302647964736f6c63430008130033","opcodes":"PUSH2 0x180 PUSH1 0x40 MSTORE CALLVALUE DUP1 ISZERO PUSH3 0x12 JUMPI PUSH1 0x0 DUP1 REVERT JUMPDEST POP PUSH1 0x40 MLOAD PUSH3 0x2F6F CODESIZE SUB DUP1 PUSH3 0x2F6F DUP4 CODECOPY DUP2 ADD PUSH1 0x40 DUP2 SWAP1 MSTORE PUSH3 0x35 SWAP2 PUSH3 0x461 JUMP JUMPDEST PUSH3 0x93A80 CALLER PUSH1 0x40 MLOAD DUP1 PUSH1 0x40 ADD PUSH1 0x40 MSTORE DUP1 PUSH1 0xA DUP2 MSTORE PUSH1 0x20 ADD PUSH10 0x53464C55562056312E31 PUSH1 0xB0 SHL DUP2 MSTORE POP DUP1 PUSH1 0x40 MLOAD DUP1 PUSH1 0x40 ADD PUSH1 0x40 MSTORE DUP1 PUSH1 0x1 DUP2 MSTORE PUSH1 0x20 ADD PUSH1 0x31 PUSH1 0xF8 SHL DUP2 MSTORE POP DUP6 PUSH1 0x40 MLOAD DUP1 PUSH1 0x40 ADD PUSH1 0x40 MSTORE DUP1 PUSH1 0xA DUP2 MSTORE PUSH1 0x20 ADD PUSH10 0x53464C55562056312E31 PUSH1 0xB0 SHL DUP2 MSTORE POP PUSH1 0x40 MLOAD DUP1 PUSH1 0x40 ADD PUSH1 0x40 MSTORE DUP1 PUSH1 0x5 DUP2 MSTORE PUSH1 0x20 ADD PUSH5 0x29A3262AAB PUSH1 0xD9 SHL DUP2 MSTORE POP DUP2 PUSH1 0x3 SWAP1 DUP2 PUSH3 0xCB SWAP2 SWAP1 PUSH3 0x538 JUMP JUMPDEST POP PUSH1 0x4 PUSH3 0xDA DUP3 DUP3 PUSH3 0x538 JUMP JUMPDEST POP POP ADDRESS PUSH1 0x1 PUSH1 0x1 PUSH1 0xA0 SHL SUB DUP4 AND SUB SWAP1 POP PUSH3 0x13C JUMPI PUSH1 0x40 MLOAD PUSH3 0x461BCD PUSH1 0xE5 SHL DUP2 MSTORE PUSH1 0x20 PUSH1 0x4 DUP3 ADD MSTORE PUSH1 0x1E PUSH1 0x24 DUP3 ADD MSTORE PUSH32 0x4552433230577261707065723A2063616E6E6F742073656C6620777261700000 PUSH1 0x44 DUP3 ADD MSTORE PUSH1 0x64 ADD JUMPDEST PUSH1 0x40 MLOAD DUP1 SWAP2 SUB SWAP1 REVERT JUMPDEST PUSH1 0x1 PUSH1 0x1 PUSH1 0xA0 SHL SUB AND PUSH1 0x80 MSTORE PUSH3 0x155 DUP3 PUSH1 0x5 PUSH3 0x28D JUMP JUMPDEST PUSH2 0x140 MSTORE PUSH3 0x166 DUP2 PUSH1 0x6 PUSH3 0x28D JUMP JUMPDEST PUSH2 0x160 MSTORE DUP2 MLOAD PUSH1 0x20 DUP1 DUP5 ADD SWAP2 SWAP1 SWAP2 KECCAK256 PUSH2 0x100 MSTORE DUP2 MLOAD SWAP1 DUP3 ADD KECCAK256 PUSH2 0x120 MSTORE CHAINID PUSH1 0xC0 MSTORE PUSH3 0x1F6 PUSH2 0x100 MLOAD PUSH2 0x120 MLOAD PUSH1 0x40 DUP1 MLOAD PUSH32 0x8B73C3C69BB8FE3D512ECC4CF759CC79239F7B179B0FFACAA9A75D522B39400F PUSH1 0x20 DUP3 ADD MSTORE SWAP1 DUP2 ADD SWAP3 SWAP1 SWAP3 MSTORE PUSH1 0x60 DUP3 ADD MSTORE CHAINID PUSH1 0x80 DUP3 ADD MSTORE ADDRESS PUSH1 0xA0 DUP3 ADD MSTORE PUSH1 0x0 SWAP1 PUSH1 0xC0 ADD PUSH1 0x40 MLOAD PUSH1 0x20 DUP2 DUP4 SUB SUB DUP2 MSTORE SWAP1 PUSH1 0x40 MSTORE DUP1 MLOAD SWAP1 PUSH1 0x20 ADD KECCAK256 SWAP1 POP SWAP1 JUMP JUMPDEST PUSH1 0xA0 MSTORE POP POP ADDRESS PUSH1 0xE0 MSTORE POP PUSH1 0x1 PUSH1 0x1 PUSH1 0xA0 SHL SUB DUP2 AND PUSH3 0x258 JUMPI PUSH1 0x40 MLOAD PUSH3 0x461BCD PUSH1 0xE5 SHL DUP2 MSTORE PUSH1 0x20 PUSH1 0x4 DUP3 ADD MSTORE PUSH1 0x1E PUSH1 0x24 DUP3 ADD MSTORE PUSH32 0x416363657373436F6E74726F6C3A20302064656661756C742061646D696E0000 PUSH1 0x44 DUP3 ADD MSTORE PUSH1 0x64 ADD PUSH3 0x133 JUMP JUMPDEST PUSH1 0xA DUP1 SLOAD PUSH1 0x1 PUSH1 0x1 PUSH1 0xD0 SHL SUB AND PUSH1 0x1 PUSH1 0xD0 SHL PUSH6 0xFFFFFFFFFFFF DUP6 AND MUL OR SWAP1 SSTORE PUSH3 0x284 PUSH1 0x0 DUP3 PUSH3 0x2C6 JUMP JUMPDEST POP POP POP PUSH3 0x679 JUMP JUMPDEST PUSH1 0x0 PUSH1 0x20 DUP4 MLOAD LT ISZERO PUSH3 0x2AD JUMPI PUSH3 0x2A5 DUP4 PUSH3 0x37A JUMP JUMPDEST SWAP1 POP PUSH3 0x2C0 JUMP JUMPDEST DUP2 PUSH3 0x2BA DUP5 DUP3 PUSH3 0x538 JUMP JUMPDEST POP PUSH1 0xFF SWAP1 POP JUMPDEST SWAP3 SWAP2 POP POP JUMP JUMPDEST DUP2 PUSH3 0x36A JUMPI PUSH1 0x0 PUSH3 0x2E1 PUSH1 0xB SLOAD PUSH1 0x1 PUSH1 0x1 PUSH1 0xA0 SHL SUB AND SWAP1 JUMP JUMPDEST PUSH1 0x1 PUSH1 0x1 PUSH1 0xA0 SHL SUB AND EQ PUSH3 0x34E JUMPI PUSH1 0x40 MLOAD PUSH3 0x461BCD PUSH1 0xE5 SHL DUP2 MSTORE PUSH1 0x20 PUSH1 0x4 DUP3 ADD MSTORE PUSH1 0x2C PUSH1 0x24 DUP3 ADD MSTORE PUSH32 0x416363657373436F6E74726F6C3A2064656661756C742061646D696E20616C72 PUSH1 0x44 DUP3 ADD MSTORE PUSH12 0x1958591E4819DC985B9D1959 PUSH1 0xA2 SHL PUSH1 0x64 DUP3 ADD MSTORE PUSH1 0x84 ADD PUSH3 0x133 JUMP JUMPDEST PUSH1 0xB DUP1 SLOAD PUSH1 0x1 PUSH1 0x1 PUSH1 0xA0 SHL SUB NOT AND PUSH1 0x1 PUSH1 0x1 PUSH1 0xA0 SHL SUB DUP4 AND OR SWAP1 SSTORE JUMPDEST PUSH3 0x376 DUP3 DUP3 PUSH3 0x3BD JUMP JUMPDEST POP POP JUMP JUMPDEST PUSH1 0x0 DUP1 DUP3 SWAP1 POP PUSH1 0x1F DUP2 MLOAD GT ISZERO PUSH3 0x3A8 JUMPI DUP3 PUSH1 0x40 MLOAD PUSH4 0x305A27A9 PUSH1 0xE0 SHL DUP2 MSTORE PUSH1 0x4 ADD PUSH3 0x133 SWAP2 SWAP1 PUSH3 0x604 JUMP JUMPDEST DUP1 MLOAD PUSH3 0x3B5 DUP3 PUSH3 0x654 JUMP JUMPDEST OR SWAP4 SWAP3 POP POP POP JUMP JUMPDEST PUSH1 0x0 DUP3 DUP2 MSTORE PUSH1 0x9 PUSH1 0x20 SWAP1 DUP2 MSTORE PUSH1 0x40 DUP1 DUP4 KECCAK256 PUSH1 0x1 PUSH1 0x1 PUSH1 0xA0 SHL SUB DUP6 AND DUP5 MSTORE SWAP1 SWAP2 MSTORE SWAP1 KECCAK256 SLOAD PUSH1 0xFF AND PUSH3 0x376 JUMPI PUSH1 0x0 DUP3 DUP2 MSTORE PUSH1 0x9 PUSH1 0x20 SWAP1 DUP2 MSTORE PUSH1 0x40 DUP1 DUP4 KECCAK256 PUSH1 0x1 PUSH1 0x1 PUSH1 0xA0 SHL SUB DUP6 AND DUP5 MSTORE SWAP1 SWAP2 MSTORE SWAP1 KECCAK256 DUP1 SLOAD PUSH1 0xFF NOT AND PUSH1 0x1 OR SWAP1 SSTORE PUSH3 0x41D CALLER SWAP1 JUMP JUMPDEST PUSH1 0x1 PUSH1 0x1 PUSH1 0xA0 SHL SUB AND DUP2 PUSH1 0x1 PUSH1 0x1 PUSH1 0xA0 SHL SUB AND DUP4 PUSH32 0x2F8788117E7EFF1D82E926EC794901D17C78024A50270940304540A733656F0D PUSH1 0x40 MLOAD PUSH1 0x40 MLOAD DUP1 SWAP2 SUB SWAP1 LOG4 POP POP JUMP JUMPDEST PUSH1 0x0 PUSH1 0x20 DUP3 DUP5 SUB SLT ISZERO PUSH3 0x474 JUMPI PUSH1 0x0 DUP1 REVERT JUMPDEST DUP2 MLOAD PUSH1 0x1 PUSH1 0x1 PUSH1 0xA0 SHL SUB DUP2 AND DUP2 EQ PUSH3 0x48C JUMPI PUSH1 0x0 DUP1 REVERT JUMPDEST SWAP4 SWAP3 POP POP POP JUMP JUMPDEST PUSH4 0x4E487B71 PUSH1 0xE0 SHL PUSH1 0x0 MSTORE PUSH1 0x41 PUSH1 0x4 MSTORE PUSH1 0x24 PUSH1 0x0 REVERT JUMPDEST PUSH1 0x1 DUP2 DUP2 SHR SWAP1 DUP3 AND DUP1 PUSH3 0x4BE JUMPI PUSH1 0x7F DUP3 AND SWAP2 POP JUMPDEST PUSH1 0x20 DUP3 LT DUP2 SUB PUSH3 0x4DF JUMPI PUSH4 0x4E487B71 PUSH1 0xE0 SHL PUSH1 0x0 MSTORE PUSH1 0x22 PUSH1 0x4 MSTORE PUSH1 0x24 PUSH1 0x0 REVERT JUMPDEST POP SWAP2 SWAP1 POP JUMP JUMPDEST PUSH1 0x1F DUP3 GT ISZERO PUSH3 0x533 JUMPI PUSH1 0x0 DUP2 DUP2 MSTORE PUSH1 0x20 DUP2 KECCAK256 PUSH1 0x1F DUP6 ADD PUSH1 0x5 SHR DUP2 ADD PUSH1 0x20 DUP7 LT ISZERO PUSH3 0x50E JUMPI POP DUP1 JUMPDEST PUSH1 0x1F DUP6 ADD PUSH1 0x5 SHR DUP3 ADD SWAP2 POP JUMPDEST DUP2 DUP2 LT ISZERO PUSH3 0x52F JUMPI DUP3 DUP2 SSTORE PUSH1 0x1 ADD PUSH3 0x51A JUMP JUMPDEST POP POP POP JUMPDEST POP POP POP JUMP JUMPDEST DUP2 MLOAD PUSH1 0x1 PUSH1 0x1 PUSH1 0x40 SHL SUB DUP2 GT ISZERO PUSH3 0x554 JUMPI PUSH3 0x554 PUSH3 0x493 JUMP JUMPDEST PUSH3 0x56C DUP2 PUSH3 0x565 DUP5 SLOAD PUSH3 0x4A9 JUMP JUMPDEST DUP5 PUSH3 0x4E5 JUMP JUMPDEST PUSH1 0x20 DUP1 PUSH1 0x1F DUP4 GT PUSH1 0x1 DUP2 EQ PUSH3 0x5A4 JUMPI PUSH1 0x0 DUP5 ISZERO PUSH3 0x58B JUMPI POP DUP6 DUP4 ADD MLOAD JUMPDEST PUSH1 0x0 NOT PUSH1 0x3 DUP7 SWAP1 SHL SHR NOT AND PUSH1 0x1 DUP6 SWAP1 SHL OR DUP6 SSTORE PUSH3 0x52F JUMP JUMPDEST PUSH1 0x0 DUP6 DUP2 MSTORE PUSH1 0x20 DUP2 KECCAK256 PUSH1 0x1F NOT DUP7 AND SWAP2 JUMPDEST DUP3 DUP2 LT ISZERO PUSH3 0x5D5 JUMPI DUP9 DUP7 ADD MLOAD DUP3 SSTORE SWAP5 DUP5 ADD SWAP5 PUSH1 0x1 SWAP1 SWAP2 ADD SWAP1 DUP5 ADD PUSH3 0x5B4 JUMP JUMPDEST POP DUP6 DUP3 LT ISZERO PUSH3 0x5F4 JUMPI DUP8 DUP6 ADD MLOAD PUSH1 0x0 NOT PUSH1 0x3 DUP9 SWAP1 SHL PUSH1 0xF8 AND SHR NOT AND DUP2 SSTORE JUMPDEST POP POP POP POP POP PUSH1 0x1 SWAP1 DUP2 SHL ADD SWAP1 SSTORE POP JUMP JUMPDEST PUSH1 0x0 PUSH1 0x20 DUP1 DUP4 MSTORE DUP4 MLOAD DUP1 DUP3 DUP6 ADD MSTORE PUSH1 0x0 JUMPDEST DUP2 DUP2 LT ISZERO PUSH3 0x633 JUMPI DUP6 DUP2 ADD DUP4 ADD MLOAD DUP6 DUP3 ADD PUSH1 0x40 ADD MSTORE DUP3 ADD PUSH3 0x615 JUMP JUMPDEST POP PUSH1 0x0 PUSH1 0x40 DUP3 DUP7 ADD ADD MSTORE PUSH1 0x40 PUSH1 0x1F NOT PUSH1 0x1F DUP4 ADD AND DUP6 ADD ADD SWAP3 POP POP POP SWAP3 SWAP2 POP POP JUMP JUMPDEST DUP1 MLOAD PUSH1 0x20 DUP1 DUP4 ADD MLOAD SWAP2 SWAP1 DUP2 LT ISZERO PUSH3 0x4DF JUMPI PUSH1 0x0 NOT PUSH1 0x20 SWAP2 SWAP1 SWAP2 SUB PUSH1 0x3 SHL SHL AND SWAP2 SWAP1 POP JUMP JUMPDEST PUSH1 0x80 MLOAD PUSH1 0xA0 MLOAD PUSH1 0xC0 MLOAD PUSH1 0xE0 MLOAD PUSH2 0x100 MLOAD PUSH2 0x120 MLOAD PUSH2 0x140 MLOAD PUSH2 0x160 MLOAD PUSH2 0x2882 PUSH3 0x6ED PUSH1 0x0 CODECOPY PUSH1 0x0 PUSH2 0x8F4 ADD MSTORE PUSH1 0x0 PUSH2 0x8C9 ADD MSTORE PUSH1 0x0 PUSH2 0x1440 ADD MSTORE PUSH1 0x0 PUSH2 0x1418 ADD MSTORE PUSH1 0x0 PUSH2 0x1373 ADD MSTORE PUSH1 0x0 PUSH2 0x139D ADD MSTORE PUSH1 0x0 PUSH2 0x13C7 ADD MSTORE PUSH1 0x0 DUP2 DUP2 PUSH2 0x388 ADD MSTORE DUP2 DUP2 PUSH2 0x642 ADD MSTORE PUSH2 0x1335 ADD MSTORE PUSH2 0x2882 PUSH1 0x0 RETURN INVALID PUSH1 0x80 PUSH1 0x40 MSTORE CALLVALUE DUP1 ISZERO PUSH2 0x10 JUMPI PUSH1 0x0 DUP1 REVERT JUMPDEST POP PUSH1 0x4 CALLDATASIZE LT PUSH2 0x227 JUMPI PUSH1 0x0 CALLDATALOAD PUSH1 0xE0 SHR DUP1 PUSH4 0x70A08231 GT PUSH2 0x130 JUMPI DUP1 PUSH4 0xA457C2D7 GT PUSH2 0xB8 JUMPI DUP1 PUSH4 0xD505ACCF GT PUSH2 0x7C JUMPI DUP1 PUSH4 0xD505ACCF EQ PUSH2 0x4DE JUMPI DUP1 PUSH4 0xD5391393 EQ PUSH2 0x4F1 JUMPI DUP1 PUSH4 0xD547741F EQ PUSH2 0x518 JUMPI DUP1 PUSH4 0xD602B9FD EQ PUSH2 0x52B JUMPI DUP1 PUSH4 0xDD62ED3E EQ PUSH2 0x533 JUMPI PUSH1 0x0 DUP1 REVERT JUMPDEST DUP1 PUSH4 0xA457C2D7 EQ PUSH2 0x47A JUMPI DUP1 PUSH4 0xA9059CBB EQ PUSH2 0x48D JUMPI DUP1 PUSH4 0xCC8463C8 EQ PUSH2 0x4A0 JUMPI DUP1 PUSH4 0xCEFC1429 EQ PUSH2 0x4A8 JUMPI DUP1 PUSH4 0xCF6EEFB7 EQ PUSH2 0x4B0 JUMPI PUSH1 0x0 DUP1 REVERT JUMPDEST DUP1 PUSH4 0x8DA5CB5B GT PUSH2 0xFF JUMPI DUP1 PUSH4 0x8DA5CB5B EQ PUSH2 0x428 JUMPI DUP1 PUSH4 0x91D14854 EQ PUSH2 0x430 JUMPI DUP1 PUSH4 0x95D89B41 EQ PUSH2 0x443 JUMPI DUP1 PUSH4 0xA1EDA53C EQ PUSH2 0x44B JUMPI DUP1 PUSH4 0xA217FDDF EQ PUSH2 0x472 JUMPI PUSH1 0x0 DUP1 REVERT JUMPDEST DUP1 PUSH4 0x70A08231 EQ PUSH2 0x3C0 JUMPI DUP1 PUSH4 0x7ECEBE00 EQ PUSH2 0x3E9 JUMPI DUP1 PUSH4 0x84B0196E EQ PUSH2 0x3FC JUMPI DUP1 PUSH4 0x84EF8FFC EQ PUSH2 0x417 JUMPI PUSH1 0x0 DUP1 REVERT JUMPDEST DUP1 PUSH4 0x2F2FF15D GT PUSH2 0x1B3 JUMPI DUP1 PUSH4 0x36568ABE GT PUSH2 0x182 JUMPI DUP1 PUSH4 0x36568ABE EQ PUSH2 0x33A JUMPI DUP1 PUSH4 0x39509351 EQ PUSH2 0x34D JUMPI DUP1 PUSH4 0x634E93DA EQ PUSH2 0x360 JUMPI DUP1 PUSH4 0x649A5EC7 EQ PUSH2 0x373 JUMPI DUP1 PUSH4 0x6F307DC3 EQ PUSH2 0x386 JUMPI PUSH1 0x0 DUP1 REVERT JUMPDEST DUP1 PUSH4 0x2F2FF15D EQ PUSH2 0x2FD JUMPI DUP1 PUSH4 0x2F4F21E2 EQ PUSH2 0x310 JUMPI DUP1 PUSH4 0x313CE567 EQ PUSH2 0x323 JUMPI DUP1 PUSH4 0x3644E515 EQ PUSH2 0x332 JUMPI PUSH1 0x0 DUP1 REVERT JUMPDEST DUP1 PUSH4 0xAA6220B GT PUSH2 0x1FA JUMPI DUP1 PUSH4 0xAA6220B EQ PUSH2 0x298 JUMPI DUP1 PUSH4 0x18160DDD EQ PUSH2 0x2A2 JUMPI DUP1 PUSH4 0x205C2878 EQ PUSH2 0x2B4 JUMPI DUP1 PUSH4 0x23B872DD EQ PUSH2 0x2C7 JUMPI DUP1 PUSH4 0x248A9CA3 EQ PUSH2 0x2DA JUMPI PUSH1 0x0 DUP1 REVERT JUMPDEST DUP1 PUSH4 0x1FFC9A7 EQ PUSH2 0x22C JUMPI DUP1 PUSH4 0x22D63FB EQ PUSH2 0x254 JUMPI DUP1 PUSH4 0x6FDDE03 EQ PUSH2 0x270 JUMPI DUP1 PUSH4 0x95EA7B3 EQ PUSH2 0x285 JUMPI JUMPDEST PUSH1 0x0 DUP1 REVERT JUMPDEST PUSH2 0x23F PUSH2 0x23A CALLDATASIZE PUSH1 0x4 PUSH2 0x23BD JUMP JUMPDEST PUSH2 0x546 JUMP JUMPDEST PUSH1 0x40 MLOAD SWAP1 ISZERO ISZERO DUP2 MSTORE PUSH1 0x20 ADD JUMPDEST PUSH1 0x40 MLOAD DUP1 SWAP2 SUB SWAP1 RETURN JUMPDEST PUSH3 0x69780 JUMPDEST PUSH1 0x40 MLOAD PUSH6 0xFFFFFFFFFFFF SWAP1 SWAP2 AND DUP2 MSTORE PUSH1 0x20 ADD PUSH2 0x24B JUMP JUMPDEST PUSH2 0x278 PUSH2 0x571 JUMP JUMPDEST PUSH1 0x40 MLOAD PUSH2 0x24B SWAP2 SWAP1 PUSH2 0x2437 JUMP JUMPDEST PUSH2 0x23F PUSH2 0x293 CALLDATASIZE PUSH1 0x4 PUSH2 0x2466 JUMP JUMPDEST PUSH2 0x603 JUMP JUMPDEST PUSH2 0x2A0 PUSH2 0x61B JUMP JUMPDEST STOP JUMPDEST PUSH1 0x2 SLOAD JUMPDEST PUSH1 0x40 MLOAD SWAP1 DUP2 MSTORE PUSH1 0x20 ADD PUSH2 0x24B JUMP JUMPDEST PUSH2 0x23F PUSH2 0x2C2 CALLDATASIZE PUSH1 0x4 PUSH2 0x2466 JUMP JUMPDEST PUSH2 0x631 JUMP JUMPDEST PUSH2 0x23F PUSH2 0x2D5 CALLDATASIZE PUSH1 0x4 PUSH2 0x2490 JUMP JUMPDEST PUSH2 0x671 JUMP JUMPDEST PUSH2 0x2A6 PUSH2 0x2E8 CALLDATASIZE PUSH1 0x4 PUSH2 0x24CC JUMP JUMPDEST PUSH1 0x0 SWAP1 DUP2 MSTORE PUSH1 0x9 PUSH1 0x20 MSTORE PUSH1 0x40 SWAP1 KECCAK256 PUSH1 0x1 ADD SLOAD SWAP1 JUMP JUMPDEST PUSH2 0x2A0 PUSH2 0x30B CALLDATASIZE PUSH1 0x4 PUSH2 0x24E5 JUMP JUMPDEST PUSH2 0x695 JUMP JUMPDEST PUSH2 0x23F PUSH2 0x31E CALLDATASIZE PUSH1 0x4 PUSH2 0x2466 JUMP JUMPDEST PUSH2 0x714 JUMP JUMPDEST PUSH1 0x40 MLOAD PUSH1 0x6 DUP2 MSTORE PUSH1 0x20 ADD PUSH2 0x24B JUMP JUMPDEST PUSH2 0x2A6 PUSH2 0x75A JUMP JUMPDEST PUSH2 0x2A0 PUSH2 0x348 CALLDATASIZE PUSH1 0x4 PUSH2 0x24E5 JUMP JUMPDEST PUSH2 0x769 JUMP JUMPDEST PUSH2 0x23F PUSH2 0x35B CALLDATASIZE PUSH1 0x4 PUSH2 0x2466 JUMP JUMPDEST PUSH2 0x853 JUMP JUMPDEST PUSH2 0x2A0 PUSH2 0x36E CALLDATASIZE PUSH1 0x4 PUSH2 0x2511 JUMP JUMPDEST PUSH2 0x875 JUMP JUMPDEST PUSH2 0x2A0 PUSH2 0x381 CALLDATASIZE PUSH1 0x4 PUSH2 0x252C JUMP JUMPDEST PUSH2 0x889 JUMP JUMPDEST PUSH32 0x0 JUMPDEST PUSH1 0x40 MLOAD PUSH1 0x1 PUSH1 0x1 PUSH1 0xA0 SHL SUB SWAP1 SWAP2 AND DUP2 MSTORE PUSH1 0x20 ADD PUSH2 0x24B JUMP JUMPDEST PUSH2 0x2A6 PUSH2 0x3CE CALLDATASIZE PUSH1 0x4 PUSH2 0x2511 JUMP JUMPDEST PUSH1 0x1 PUSH1 0x1 PUSH1 0xA0 SHL SUB AND PUSH1 0x0 SWAP1 DUP2 MSTORE PUSH1 0x20 DUP2 SWAP1 MSTORE PUSH1 0x40 SWAP1 KECCAK256 SLOAD SWAP1 JUMP JUMPDEST PUSH2 0x2A6 PUSH2 0x3F7 CALLDATASIZE PUSH1 0x4 PUSH2 0x2511 JUMP JUMPDEST PUSH2 0x89D JUMP JUMPDEST PUSH2 0x404 PUSH2 0x8BB JUMP JUMPDEST PUSH1 0x40 MLOAD PUSH2 0x24B SWAP8 SWAP7 SWAP6 SWAP5 SWAP4 SWAP3 SWAP2 SWAP1 PUSH2 0x2554 JUMP JUMPDEST PUSH1 0xB SLOAD PUSH1 0x1 PUSH1 0x1 PUSH1 0xA0 SHL SUB AND PUSH2 0x3A8 JUMP JUMPDEST PUSH2 0x3A8 PUSH2 0x944 JUMP JUMPDEST PUSH2 0x23F PUSH2 0x43E CALLDATASIZE PUSH1 0x4 PUSH2 0x24E5 JUMP JUMPDEST PUSH2 0x958 JUMP JUMPDEST PUSH2 0x278 PUSH2 0x983 JUMP JUMPDEST PUSH2 0x453 PUSH2 0x992 JUMP JUMPDEST PUSH1 0x40 DUP1 MLOAD PUSH6 0xFFFFFFFFFFFF SWAP4 DUP5 AND DUP2 MSTORE SWAP3 SWAP1 SWAP2 AND PUSH1 0x20 DUP4 ADD MSTORE ADD PUSH2 0x24B JUMP JUMPDEST PUSH2 0x2A6 PUSH1 0x0 DUP2 JUMP JUMPDEST PUSH2 0x23F PUSH2 0x488 CALLDATASIZE PUSH1 0x4 PUSH2 0x2466 JUMP JUMPDEST PUSH2 0x9E6 JUMP JUMPDEST PUSH2 0x23F PUSH2 0x49B CALLDATASIZE PUSH1 0x4 PUSH2 0x2466 JUMP JUMPDEST PUSH2 0xA61 JUMP JUMPDEST PUSH2 0x259 PUSH2 0xA6F JUMP JUMPDEST PUSH2 0x2A0 PUSH2 0xACE JUMP JUMPDEST PUSH2 0x4B8 PUSH2 0xB4C JUMP JUMPDEST PUSH1 0x40 DUP1 MLOAD PUSH1 0x1 PUSH1 0x1 PUSH1 0xA0 SHL SUB SWAP1 SWAP4 AND DUP4 MSTORE PUSH6 0xFFFFFFFFFFFF SWAP1 SWAP2 AND PUSH1 0x20 DUP4 ADD MSTORE ADD PUSH2 0x24B JUMP JUMPDEST PUSH2 0x2A0 PUSH2 0x4EC CALLDATASIZE PUSH1 0x4 PUSH2 0x25EA JUMP JUMPDEST PUSH2 0xB6D JUMP JUMPDEST PUSH2 0x2A6 PUSH32 0xF0887BA65EE2024EA881D91B74C2450EF19E1557F03BED3EA9F16B037CBE2DC9 DUP2 JUMP JUMPDEST PUSH2 0x2A0 PUSH2 0x526 CALLDATASIZE PUSH1 0x4 PUSH2 0x24E5 JUMP JUMPDEST PUSH2 0xCD1 JUMP JUMPDEST PUSH2 0x2A0 PUSH2 0xD4E JUMP JUMPDEST PUSH2 0x2A6 PUSH2 0x541 CALLDATASIZE PUSH1 0x4 PUSH2 0x265D JUMP JUMPDEST PUSH2 0xD61 JUMP JUMPDEST PUSH1 0x0 PUSH1 0x1 PUSH1 0x1 PUSH1 0xE0 SHL SUB NOT DUP3 AND PUSH4 0x18A4C3C3 PUSH1 0xE1 SHL EQ DUP1 PUSH2 0x56B JUMPI POP PUSH2 0x56B DUP3 PUSH2 0xD8C JUMP JUMPDEST SWAP3 SWAP2 POP POP JUMP JUMPDEST PUSH1 0x60 PUSH1 0x3 DUP1 SLOAD PUSH2 0x580 SWAP1 PUSH2 0x2687 JUMP JUMPDEST DUP1 PUSH1 0x1F ADD PUSH1 0x20 DUP1 SWAP2 DIV MUL PUSH1 0x20 ADD PUSH1 0x40 MLOAD SWAP1 DUP2 ADD PUSH1 0x40 MSTORE DUP1 SWAP3 SWAP2 SWAP1 DUP2 DUP2 MSTORE PUSH1 0x20 ADD DUP3 DUP1 SLOAD PUSH2 0x5AC SWAP1 PUSH2 0x2687 JUMP JUMPDEST DUP1 ISZERO PUSH2 0x5F9 JUMPI DUP1 PUSH1 0x1F LT PUSH2 0x5CE JUMPI PUSH2 0x100 DUP1 DUP4 SLOAD DIV MUL DUP4 MSTORE SWAP2 PUSH1 0x20 ADD SWAP2 PUSH2 0x5F9 JUMP JUMPDEST DUP3 ADD SWAP2 SWAP1 PUSH1 0x0 MSTORE PUSH1 0x20 PUSH1 0x0 KECCAK256 SWAP1 JUMPDEST DUP2 SLOAD DUP2 MSTORE SWAP1 PUSH1 0x1 ADD SWAP1 PUSH1 0x20 ADD DUP1 DUP4 GT PUSH2 0x5DC JUMPI DUP3 SWAP1 SUB PUSH1 0x1F AND DUP3 ADD SWAP2 JUMPDEST POP POP POP POP POP SWAP1 POP SWAP1 JUMP JUMPDEST PUSH1 0x0 CALLER PUSH2 0x611 DUP2 DUP6 DUP6 PUSH2 0xDC1 JUMP JUMPDEST POP PUSH1 0x1 SWAP4 SWAP3 POP POP POP JUMP JUMPDEST PUSH1 0x0 PUSH2 0x626 DUP2 PUSH2 0xEE6 JUMP JUMPDEST PUSH2 0x62E PUSH2 0xEF0 JUMP JUMPDEST POP JUMP JUMPDEST PUSH1 0x0 PUSH2 0x63D CALLER DUP4 PUSH2 0xEFD JUMP JUMPDEST PUSH2 0x668 PUSH32 0x0 DUP5 DUP5 PUSH2 0x102C JUMP JUMPDEST POP PUSH1 0x1 SWAP3 SWAP2 POP POP JUMP JUMPDEST PUSH1 0x0 CALLER PUSH2 0x67F DUP6 DUP3 DUP6 PUSH2 0x108F JUMP JUMPDEST PUSH2 0x68A DUP6 DUP6 DUP6 PUSH2 0x1109 JUMP JUMPDEST POP PUSH1 0x1 SWAP5 SWAP4 POP POP POP POP JUMP JUMPDEST DUP2 PUSH2 0x706 JUMPI PUSH1 0x40 MLOAD PUSH3 0x461BCD PUSH1 0xE5 SHL DUP2 MSTORE PUSH1 0x20 PUSH1 0x4 DUP3 ADD MSTORE PUSH1 0x36 PUSH1 0x24 DUP3 ADD MSTORE PUSH32 0x416363657373436F6E74726F6C3A2063616E2774206469726563746C79206772 PUSH1 0x44 DUP3 ADD MSTORE PUSH22 0x616E742064656661756C742061646D696E20726F6C65 PUSH1 0x50 SHL PUSH1 0x64 DUP3 ADD MSTORE PUSH1 0x84 ADD JUMPDEST PUSH1 0x40 MLOAD DUP1 SWAP2 SUB SWAP1 REVERT JUMPDEST PUSH2 0x710 DUP3 DUP3 PUSH2 0x12AD JUMP JUMPDEST POP POP JUMP JUMPDEST PUSH1 0x0 PUSH2 0x740 PUSH32 0xF0887BA65EE2024EA881D91B74C2450EF19E1557F03BED3EA9F16B037CBE2DC9 CALLER PUSH2 0x958 JUMP JUMPDEST PUSH2 0x749 JUMPI PUSH1 0x0 DUP1 REVERT JUMPDEST PUSH2 0x753 DUP4 DUP4 PUSH2 0x12D2 JUMP JUMPDEST SWAP4 SWAP3 POP POP POP JUMP JUMPDEST PUSH1 0x0 PUSH2 0x764 PUSH2 0x1366 JUMP JUMPDEST SWAP1 POP SWAP1 JUMP JUMPDEST DUP2 ISZERO DUP1 ISZERO PUSH2 0x784 JUMPI POP PUSH1 0xB SLOAD PUSH1 0x1 PUSH1 0x1 PUSH1 0xA0 SHL SUB DUP3 DUP2 AND SWAP2 AND EQ JUMPDEST ISZERO PUSH2 0x849 JUMPI PUSH1 0x0 DUP1 PUSH2 0x794 PUSH2 0xB4C JUMP JUMPDEST SWAP1 SWAP3 POP SWAP1 POP PUSH1 0x1 PUSH1 0x1 PUSH1 0xA0 SHL SUB DUP3 AND ISZERO DUP1 ISZERO PUSH2 0x7B7 JUMPI POP PUSH6 0xFFFFFFFFFFFF DUP2 AND ISZERO ISZERO JUMPDEST DUP1 ISZERO PUSH2 0x7CA JUMPI POP TIMESTAMP PUSH6 0xFFFFFFFFFFFF DUP3 AND LT JUMPDEST PUSH2 0x834 JUMPI PUSH1 0x40 MLOAD PUSH3 0x461BCD PUSH1 0xE5 SHL DUP2 MSTORE PUSH1 0x20 PUSH1 0x4 DUP3 ADD MSTORE PUSH1 0x35 PUSH1 0x24 DUP3 ADD MSTORE PUSH32 0x416363657373436F6E74726F6C3A206F6E6C792063616E2072656E6F756E6365 PUSH1 0x44 DUP3 ADD MSTORE PUSH21 0x20696E2074776F2064656C61796564207374657073 PUSH1 0x58 SHL PUSH1 0x64 DUP3 ADD MSTORE PUSH1 0x84 ADD PUSH2 0x6FD JUMP JUMPDEST POP POP PUSH1 0xA DUP1 SLOAD PUSH6 0xFFFFFFFFFFFF PUSH1 0xA0 SHL NOT AND SWAP1 SSTORE JUMPDEST PUSH2 0x710 DUP3 DUP3 PUSH2 0x1491 JUMP JUMPDEST PUSH1 0x0 CALLER PUSH2 0x611 DUP2 DUP6 DUP6 PUSH2 0x866 DUP4 DUP4 PUSH2 0xD61 JUMP JUMPDEST PUSH2 0x870 SWAP2 SWAP1 PUSH2 0x26D1 JUMP JUMPDEST PUSH2 0xDC1 JUMP JUMPDEST PUSH1 0x0 PUSH2 0x880 DUP2 PUSH2 0xEE6 JUMP JUMPDEST PUSH2 0x710 DUP3 PUSH2 0x150B JUMP JUMPDEST PUSH1 0x0 PUSH2 0x894 DUP2 PUSH2 0xEE6 JUMP JUMPDEST PUSH2 0x710 DUP3 PUSH2 0x157E JUMP JUMPDEST PUSH1 0x1 PUSH1 0x1 PUSH1 0xA0 SHL SUB DUP2 AND PUSH1 0x0 SWAP1 DUP2 MSTORE PUSH1 0x7 PUSH1 0x20 MSTORE PUSH1 0x40 DUP2 KECCAK256 SLOAD PUSH2 0x56B JUMP JUMPDEST PUSH1 0x0 PUSH1 0x60 DUP1 DUP3 DUP1 DUP1 DUP4 PUSH2 0x8EF PUSH32 0x0 PUSH1 0x5 PUSH2 0x15EE JUMP JUMPDEST PUSH2 0x91A PUSH32 0x0 PUSH1 0x6 PUSH2 0x15EE JUMP JUMPDEST PUSH1 0x40 DUP1 MLOAD PUSH1 0x0 DUP1 DUP3 MSTORE PUSH1 0x20 DUP3 ADD SWAP1 SWAP3 MSTORE PUSH1 0xF PUSH1 0xF8 SHL SWAP12 SWAP4 SWAP11 POP SWAP2 SWAP9 POP CHAINID SWAP8 POP ADDRESS SWAP7 POP SWAP5 POP SWAP3 POP SWAP1 POP JUMP JUMPDEST PUSH1 0x0 PUSH2 0x764 PUSH1 0xB SLOAD PUSH1 0x1 PUSH1 0x1 PUSH1 0xA0 SHL SUB AND SWAP1 JUMP JUMPDEST PUSH1 0x0 SWAP2 DUP3 MSTORE PUSH1 0x9 PUSH1 0x20 SWAP1 DUP2 MSTORE PUSH1 0x40 DUP1 DUP5 KECCAK256 PUSH1 0x1 PUSH1 0x1 PUSH1 0xA0 SHL SUB SWAP4 SWAP1 SWAP4 AND DUP5 MSTORE SWAP2 SWAP1 MSTORE SWAP1 KECCAK256 SLOAD PUSH1 0xFF AND SWAP1 JUMP JUMPDEST PUSH1 0x60 PUSH1 0x4 DUP1 SLOAD PUSH2 0x580 SWAP1 PUSH2 0x2687 JUMP JUMPDEST PUSH1 0xB SLOAD PUSH1 0x0 SWAP1 PUSH1 0x1 PUSH1 0xD0 SHL SWAP1 DIV PUSH6 0xFFFFFFFFFFFF AND DUP1 ISZERO ISZERO DUP1 ISZERO PUSH2 0x9BE JUMPI POP TIMESTAMP PUSH6 0xFFFFFFFFFFFF DUP3 AND LT ISZERO JUMPDEST PUSH2 0x9CA JUMPI PUSH1 0x0 DUP1 PUSH2 0x9DE JUMP JUMPDEST PUSH1 0xB SLOAD PUSH1 0x1 PUSH1 0xA0 SHL SWAP1 DIV PUSH6 0xFFFFFFFFFFFF AND DUP2 JUMPDEST SWAP2 POP SWAP2 POP SWAP1 SWAP2 JUMP JUMPDEST PUSH1 0x0 CALLER DUP2 PUSH2 0x9F4 DUP3 DUP7 PUSH2 0xD61 JUMP JUMPDEST SWAP1 POP DUP4 DUP2 LT ISZERO PUSH2 0xA54 JUMPI PUSH1 0x40 MLOAD PUSH3 0x461BCD PUSH1 0xE5 SHL DUP2 MSTORE PUSH1 0x20 PUSH1 0x4 DUP3 ADD MSTORE PUSH1 0x25 PUSH1 0x24 DUP3 ADD MSTORE PUSH32 0x45524332303A2064656372656173656420616C6C6F77616E63652062656C6F77 PUSH1 0x44 DUP3 ADD MSTORE PUSH5 0x207A65726F PUSH1 0xD8 SHL PUSH1 0x64 DUP3 ADD MSTORE PUSH1 0x84 ADD PUSH2 0x6FD JUMP JUMPDEST PUSH2 0x68A DUP3 DUP7 DUP7 DUP5 SUB PUSH2 0xDC1 JUMP JUMPDEST PUSH1 0x0 CALLER PUSH2 0x611 DUP2 DUP6 DUP6 PUSH2 0x1109 JUMP JUMPDEST PUSH1 0xB SLOAD PUSH1 0x0 SWAP1 PUSH1 0x1 PUSH1 0xD0 SHL SWAP1 DIV PUSH6 0xFFFFFFFFFFFF AND DUP1 ISZERO ISZERO DUP1 ISZERO PUSH2 0xA9A JUMPI POP TIMESTAMP PUSH6 0xFFFFFFFFFFFF DUP3 AND LT JUMPDEST PUSH2 0xAB5 JUMPI PUSH1 0xA SLOAD PUSH1 0x1 PUSH1 0xD0 SHL SWAP1 DIV PUSH6 0xFFFFFFFFFFFF AND PUSH2 0xAC8 JUMP JUMPDEST PUSH1 0xB SLOAD PUSH1 0x1 PUSH1 0xA0 SHL SWAP1 DIV PUSH6 0xFFFFFFFFFFFF AND JUMPDEST SWAP2 POP POP SWAP1 JUMP JUMPDEST PUSH1 0x0 PUSH2 0xAD8 PUSH2 0xB4C JUMP JUMPDEST POP SWAP1 POP CALLER PUSH1 0x1 PUSH1 0x1 PUSH1 0xA0 SHL SUB DUP3 AND EQ PUSH2 0xB44 JUMPI PUSH1 0x40 MLOAD PUSH3 0x461BCD PUSH1 0xE5 SHL DUP2 MSTORE PUSH1 0x20 PUSH1 0x4 DUP3 ADD MSTORE PUSH1 0x28 PUSH1 0x24 DUP3 ADD MSTORE PUSH32 0x416363657373436F6E74726F6C3A2070656E64696E672061646D696E206D7573 PUSH1 0x44 DUP3 ADD MSTORE PUSH8 0x1D081858D8D95C1D PUSH1 0xC2 SHL PUSH1 0x64 DUP3 ADD MSTORE PUSH1 0x84 ADD PUSH2 0x6FD JUMP JUMPDEST PUSH2 0x62E PUSH2 0x1699 JUMP JUMPDEST PUSH1 0xA SLOAD PUSH1 0x1 PUSH1 0x1 PUSH1 0xA0 SHL SUB DUP2 AND SWAP2 PUSH1 0x1 PUSH1 0xA0 SHL SWAP1 SWAP2 DIV PUSH6 0xFFFFFFFFFFFF AND SWAP1 JUMP JUMPDEST DUP4 TIMESTAMP GT ISZERO PUSH2 0xBBD JUMPI PUSH1 0x40 MLOAD PUSH3 0x461BCD PUSH1 0xE5 SHL DUP2 MSTORE PUSH1 0x20 PUSH1 0x4 DUP3 ADD MSTORE PUSH1 0x1D PUSH1 0x24 DUP3 ADD MSTORE PUSH32 0x45524332305065726D69743A206578706972656420646561646C696E65000000 PUSH1 0x44 DUP3 ADD MSTORE PUSH1 0x64 ADD PUSH2 0x6FD JUMP JUMPDEST PUSH1 0x0 PUSH32 0x6E71EDAE12B1B97F4D1F60370FEF10105FA2FAAE0126114A169C64845D6126C9 DUP9 DUP9 DUP9 PUSH2 0xBEC DUP13 PUSH2 0x1764 JUMP JUMPDEST PUSH1 0x40 DUP1 MLOAD PUSH1 0x20 DUP2 ADD SWAP7 SWAP1 SWAP7 MSTORE PUSH1 0x1 PUSH1 0x1 PUSH1 0xA0 SHL SUB SWAP5 DUP6 AND SWAP1 DUP7 ADD MSTORE SWAP3 SWAP1 SWAP2 AND PUSH1 0x60 DUP5 ADD MSTORE PUSH1 0x80 DUP4 ADD MSTORE PUSH1 0xA0 DUP3 ADD MSTORE PUSH1 0xC0 DUP2 ADD DUP7 SWAP1 MSTORE PUSH1 0xE0 ADD PUSH1 0x40 MLOAD PUSH1 0x20 DUP2 DUP4 SUB SUB DUP2 MSTORE SWAP1 PUSH1 0x40 MSTORE DUP1 MLOAD SWAP1 PUSH1 0x20 ADD KECCAK256 SWAP1 POP PUSH1 0x0 PUSH2 0xC47 DUP3 PUSH2 0x178C JUMP JUMPDEST SWAP1 POP PUSH1 0x0 PUSH2 0xC57 DUP3 DUP8 DUP8 DUP8 PUSH2 0x17B9 JUMP JUMPDEST SWAP1 POP DUP10 PUSH1 0x1 PUSH1 0x1 PUSH1 0xA0 SHL SUB AND DUP2 PUSH1 0x1 PUSH1 0x1 PUSH1 0xA0 SHL SUB AND EQ PUSH2 0xCBA JUMPI PUSH1 0x40 MLOAD PUSH3 0x461BCD PUSH1 0xE5 SHL DUP2 MSTORE PUSH1 0x20 PUSH1 0x4 DUP3 ADD MSTORE PUSH1 0x1E PUSH1 0x24 DUP3 ADD MSTORE PUSH32 0x45524332305065726D69743A20696E76616C6964207369676E61747572650000 PUSH1 0x44 DUP3 ADD MSTORE PUSH1 0x64 ADD PUSH2 0x6FD JUMP JUMPDEST PUSH2 0xCC5 DUP11 DUP11 DUP11 PUSH2 0xDC1 JUMP JUMPDEST POP POP POP POP POP POP POP POP POP POP JUMP JUMPDEST DUP2 PUSH2 0xD44 JUMPI PUSH1 0x40 MLOAD PUSH3 0x461BCD PUSH1 0xE5 SHL DUP2 MSTORE PUSH1 0x20 PUSH1 0x4 DUP3 ADD MSTORE PUSH1 0x37 PUSH1 0x24 DUP3 ADD MSTORE PUSH32 0x416363657373436F6E74726F6C3A2063616E2774206469726563746C79207265 PUSH1 0x44 DUP3 ADD MSTORE PUSH32 0x766F6B652064656661756C742061646D696E20726F6C65000000000000000000 PUSH1 0x64 DUP3 ADD MSTORE PUSH1 0x84 ADD PUSH2 0x6FD JUMP JUMPDEST PUSH2 0x710 DUP3 DUP3 PUSH2 0x17E3 JUMP JUMPDEST PUSH1 0x0 PUSH2 0xD59 DUP2 PUSH2 0xEE6 JUMP JUMPDEST PUSH2 0x62E PUSH2 0x1808 JUMP JUMPDEST PUSH1 0x1 PUSH1 0x1 PUSH1 0xA0 SHL SUB SWAP2 DUP3 AND PUSH1 0x0 SWAP1 DUP2 MSTORE PUSH1 0x1 PUSH1 0x20 SWAP1 DUP2 MSTORE PUSH1 0x40 DUP1 DUP4 KECCAK256 SWAP4 SWAP1 SWAP5 AND DUP3 MSTORE SWAP2 SWAP1 SWAP2 MSTORE KECCAK256 SLOAD SWAP1 JUMP JUMPDEST PUSH1 0x0 PUSH1 0x1 PUSH1 0x1 PUSH1 0xE0 SHL SUB NOT DUP3 AND PUSH4 0x7965DB0B PUSH1 0xE0 SHL EQ DUP1 PUSH2 0x56B JUMPI POP PUSH4 0x1FFC9A7 PUSH1 0xE0 SHL PUSH1 0x1 PUSH1 0x1 PUSH1 0xE0 SHL SUB NOT DUP4 AND EQ PUSH2 0x56B JUMP JUMPDEST PUSH1 0x1 PUSH1 0x1 PUSH1 0xA0 SHL SUB DUP4 AND PUSH2 0xE23 JUMPI PUSH1 0x40 MLOAD PUSH3 0x461BCD PUSH1 0xE5 SHL DUP2 MSTORE PUSH1 0x20 PUSH1 0x4 DUP3 ADD MSTORE PUSH1 0x24 DUP1 DUP3 ADD MSTORE PUSH32 0x45524332303A20617070726F76652066726F6D20746865207A65726F20616464 PUSH1 0x44 DUP3 ADD MSTORE PUSH4 0x72657373 PUSH1 0xE0 SHL PUSH1 0x64 DUP3 ADD MSTORE PUSH1 0x84 ADD PUSH2 0x6FD JUMP JUMPDEST PUSH1 0x1 PUSH1 0x1 PUSH1 0xA0 SHL SUB DUP3 AND PUSH2 0xE84 JUMPI PUSH1 0x40 MLOAD PUSH3 0x461BCD PUSH1 0xE5 SHL DUP2 MSTORE PUSH1 0x20 PUSH1 0x4 DUP3 ADD MSTORE PUSH1 0x22 PUSH1 0x24 DUP3 ADD MSTORE PUSH32 0x45524332303A20617070726F766520746F20746865207A65726F206164647265 PUSH1 0x44 DUP3 ADD MSTORE PUSH2 0x7373 PUSH1 0xF0 SHL PUSH1 0x64 DUP3 ADD MSTORE PUSH1 0x84 ADD PUSH2 0x6FD JUMP JUMPDEST PUSH1 0x1 PUSH1 0x1 PUSH1 0xA0 SHL SUB DUP4 DUP2 AND PUSH1 0x0 DUP2 DUP2 MSTORE PUSH1 0x1 PUSH1 0x20 SWAP1 DUP2 MSTORE PUSH1 0x40 DUP1 DUP4 KECCAK256 SWAP5 DUP8 AND DUP1 DUP5 MSTORE SWAP5 DUP3 MSTORE SWAP2 DUP3 SWAP1 KECCAK256 DUP6 SWAP1 SSTORE SWAP1 MLOAD DUP5 DUP2 MSTORE PUSH32 0x8C5BE1E5EBEC7D5BD14F71427D1E84F3DD0314C0F7B2291E5B200AC8C7C3B925 SWAP2 ADD JUMPDEST PUSH1 0x40 MLOAD DUP1 SWAP2 SUB SWAP1 LOG3 POP POP POP JUMP JUMPDEST PUSH2 0x62E DUP2 CALLER PUSH2 0x1813 JUMP JUMPDEST PUSH2 0xEFB PUSH1 0x0 DUP1 PUSH2 0x186C JUMP JUMPDEST JUMP JUMPDEST PUSH1 0x1 PUSH1 0x1 PUSH1 0xA0 SHL SUB DUP3 AND PUSH2 0xF5D JUMPI PUSH1 0x40 MLOAD PUSH3 0x461BCD PUSH1 0xE5 SHL DUP2 MSTORE PUSH1 0x20 PUSH1 0x4 DUP3 ADD MSTORE PUSH1 0x21 PUSH1 0x24 DUP3 ADD MSTORE PUSH32 0x45524332303A206275726E2066726F6D20746865207A65726F20616464726573 PUSH1 0x44 DUP3 ADD MSTORE PUSH1 0x73 PUSH1 0xF8 SHL PUSH1 0x64 DUP3 ADD MSTORE PUSH1 0x84 ADD PUSH2 0x6FD JUMP JUMPDEST PUSH1 0x1 PUSH1 0x1 PUSH1 0xA0 SHL SUB DUP3 AND PUSH1 0x0 SWAP1 DUP2 MSTORE PUSH1 0x20 DUP2 SWAP1 MSTORE PUSH1 0x40 SWAP1 KECCAK256 SLOAD DUP2 DUP2 LT ISZERO PUSH2 0xFD1 JUMPI PUSH1 0x40 MLOAD PUSH3 0x461BCD PUSH1 0xE5 SHL DUP2 MSTORE PUSH1 0x20 PUSH1 0x4 DUP3 ADD MSTORE PUSH1 0x22 PUSH1 0x24 DUP3 ADD MSTORE PUSH32 0x45524332303A206275726E20616D6F756E7420657863656564732062616C616E PUSH1 0x44 DUP3 ADD MSTORE PUSH2 0x6365 PUSH1 0xF0 SHL PUSH1 0x64 DUP3 ADD MSTORE PUSH1 0x84 ADD PUSH2 0x6FD JUMP JUMPDEST PUSH1 0x1 PUSH1 0x1 PUSH1 0xA0 SHL SUB DUP4 AND PUSH1 0x0 DUP2 DUP2 MSTORE PUSH1 0x20 DUP2 DUP2 MSTORE PUSH1 0x40 DUP1 DUP4 KECCAK256 DUP7 DUP7 SUB SWAP1 SSTORE PUSH1 0x2 DUP1 SLOAD DUP8 SWAP1 SUB SWAP1 SSTORE MLOAD DUP6 DUP2 MSTORE SWAP2 SWAP3 SWAP2 PUSH32 0xDDF252AD1BE2C89B69C2B068FC378DAA952BA7F163C4A11628F55A4DF523B3EF SWAP2 ADD PUSH2 0xED9 JUMP JUMPDEST POP POP POP JUMP JUMPDEST PUSH1 0x40 MLOAD PUSH1 0x1 PUSH1 0x1 PUSH1 0xA0 SHL SUB DUP4 AND PUSH1 0x24 DUP3 ADD MSTORE PUSH1 0x44 DUP2 ADD DUP3 SWAP1 MSTORE PUSH2 0x1027 SWAP1 DUP5 SWAP1 PUSH4 0xA9059CBB PUSH1 0xE0 SHL SWAP1 PUSH1 0x64 ADD JUMPDEST PUSH1 0x40 DUP1 MLOAD PUSH1 0x1F NOT DUP2 DUP5 SUB ADD DUP2 MSTORE SWAP2 SWAP1 MSTORE PUSH1 0x20 DUP2 ADD DUP1 MLOAD PUSH1 0x1 PUSH1 0x1 PUSH1 0xE0 SHL SUB AND PUSH1 0x1 PUSH1 0x1 PUSH1 0xE0 SHL SUB NOT SWAP1 SWAP4 AND SWAP3 SWAP1 SWAP3 OR SWAP1 SWAP2 MSTORE PUSH2 0x192C JUMP JUMPDEST PUSH1 0x0 PUSH2 0x109B DUP5 DUP5 PUSH2 0xD61 JUMP JUMPDEST SWAP1 POP PUSH1 0x0 NOT DUP2 EQ PUSH2 0x1103 JUMPI DUP2 DUP2 LT ISZERO PUSH2 0x10F6 JUMPI PUSH1 0x40 MLOAD PUSH3 0x461BCD PUSH1 0xE5 SHL DUP2 MSTORE PUSH1 0x20 PUSH1 0x4 DUP3 ADD MSTORE PUSH1 0x1D PUSH1 0x24 DUP3 ADD MSTORE PUSH32 0x45524332303A20696E73756666696369656E7420616C6C6F77616E6365000000 PUSH1 0x44 DUP3 ADD MSTORE PUSH1 0x64 ADD PUSH2 0x6FD JUMP JUMPDEST PUSH2 0x1103 DUP5 DUP5 DUP5 DUP5 SUB PUSH2 0xDC1 JUMP JUMPDEST POP POP POP POP JUMP JUMPDEST PUSH1 0x1 PUSH1 0x1 PUSH1 0xA0 SHL SUB DUP4 AND PUSH2 0x116D JUMPI PUSH1 0x40 MLOAD PUSH3 0x461BCD PUSH1 0xE5 SHL DUP2 MSTORE PUSH1 0x20 PUSH1 0x4 DUP3 ADD MSTORE PUSH1 0x25 PUSH1 0x24 DUP3 ADD MSTORE PUSH32 0x45524332303A207472616E736665722066726F6D20746865207A65726F206164 PUSH1 0x44 DUP3 ADD MSTORE PUSH5 0x6472657373 PUSH1 0xD8 SHL PUSH1 0x64 DUP3 ADD MSTORE PUSH1 0x84 ADD PUSH2 0x6FD JUMP JUMPDEST PUSH1 0x1 PUSH1 0x1 PUSH1 0xA0 SHL SUB DUP3 AND PUSH2 0x11CF JUMPI PUSH1 0x40 MLOAD PUSH3 0x461BCD PUSH1 0xE5 SHL DUP2 MSTORE PUSH1 0x20 PUSH1 0x4 DUP3 ADD MSTORE PUSH1 0x23 PUSH1 0x24 DUP3 ADD MSTORE PUSH32 0x45524332303A207472616E7366657220746F20746865207A65726F2061646472 PUSH1 0x44 DUP3 ADD MSTORE PUSH3 0x657373 PUSH1 0xE8 SHL PUSH1 0x64 DUP3 ADD MSTORE PUSH1 0x84 ADD PUSH2 0x6FD JUMP JUMPDEST PUSH1 0x1 PUSH1 0x1 PUSH1 0xA0 SHL SUB DUP4 AND PUSH1 0x0 SWAP1 DUP2 MSTORE PUSH1 0x20 DUP2 SWAP1 MSTORE PUSH1 0x40 SWAP1 KECCAK256 SLOAD DUP2 DUP2 LT ISZERO PUSH2 0x1247 JUMPI PUSH1 0x40 MLOAD PUSH3 0x461BCD PUSH1 0xE5 SHL DUP2 MSTORE PUSH1 0x20 PUSH1 0x4 DUP3 ADD MSTORE PUSH1 0x26 PUSH1 0x24 DUP3 ADD MSTORE PUSH32 0x45524332303A207472616E7366657220616D6F756E7420657863656564732062 PUSH1 0x44 DUP3 ADD MSTORE PUSH6 0x616C616E6365 PUSH1 0xD0 SHL PUSH1 0x64 DUP3 ADD MSTORE PUSH1 0x84 ADD PUSH2 0x6FD JUMP JUMPDEST PUSH1 0x1 PUSH1 0x1 PUSH1 0xA0 SHL SUB DUP5 DUP2 AND PUSH1 0x0 DUP2 DUP2 MSTORE PUSH1 0x20 DUP2 DUP2 MSTORE PUSH1 0x40 DUP1 DUP4 KECCAK256 DUP8 DUP8 SUB SWAP1 SSTORE SWAP4 DUP8 AND DUP1 DUP4 MSTORE SWAP2 DUP5 SWAP1 KECCAK256 DUP1 SLOAD DUP8 ADD SWAP1 SSTORE SWAP3 MLOAD DUP6 DUP2 MSTORE SWAP1 SWAP3 PUSH32 0xDDF252AD1BE2C89B69C2B068FC378DAA952BA7F163C4A11628F55A4DF523B3EF SWAP2 ADD PUSH1 0x40 MLOAD DUP1 SWAP2 SUB SWAP1 LOG3 PUSH2 0x1103 JUMP JUMPDEST PUSH1 0x0 DUP3 DUP2 MSTORE PUSH1 0x9 PUSH1 0x20 MSTORE PUSH1 0x40 SWAP1 KECCAK256 PUSH1 0x1 ADD SLOAD PUSH2 0x12C8 DUP2 PUSH2 0xEE6 JUMP JUMPDEST PUSH2 0x1027 DUP4 DUP4 PUSH2 0x1A01 JUMP JUMPDEST PUSH1 0x0 CALLER ADDRESS DUP2 SUB PUSH2 0x1330 JUMPI PUSH1 0x40 MLOAD PUSH3 0x461BCD PUSH1 0xE5 SHL DUP2 MSTORE PUSH1 0x20 PUSH1 0x4 DUP3 ADD MSTORE PUSH1 0x23 PUSH1 0x24 DUP3 ADD MSTORE PUSH32 0x4552433230577261707065723A20777261707065722063616E2774206465706F PUSH1 0x44 DUP3 ADD MSTORE PUSH3 0x1CDA5D PUSH1 0xEA SHL PUSH1 0x64 DUP3 ADD MSTORE PUSH1 0x84 ADD PUSH2 0x6FD JUMP JUMPDEST PUSH2 0x135C PUSH32 0x0 DUP3 ADDRESS DUP7 PUSH2 0x1AAB JUMP JUMPDEST PUSH2 0x611 DUP5 DUP5 PUSH2 0x1AE3 JUMP JUMPDEST PUSH1 0x0 ADDRESS PUSH1 0x1 PUSH1 0x1 PUSH1 0xA0 SHL SUB PUSH32 0x0 AND EQ DUP1 ISZERO PUSH2 0x13BF JUMPI POP PUSH32 0x0 CHAINID EQ JUMPDEST ISZERO PUSH2 0x13E9 JUMPI POP PUSH32 0x0 SWAP1 JUMP JUMPDEST PUSH2 0x764 PUSH1 0x40 DUP1 MLOAD PUSH32 0x8B73C3C69BB8FE3D512ECC4CF759CC79239F7B179B0FFACAA9A75D522B39400F PUSH1 0x20 DUP3 ADD MSTORE PUSH32 0x0 SWAP2 DUP2 ADD SWAP2 SWAP1 SWAP2 MSTORE PUSH32 0x0 PUSH1 0x60 DUP3 ADD MSTORE CHAINID PUSH1 0x80 DUP3 ADD MSTORE ADDRESS PUSH1 0xA0 DUP3 ADD MSTORE PUSH1 0x0 SWAP1 PUSH1 0xC0 ADD PUSH1 0x40 MLOAD PUSH1 0x20 DUP2 DUP4 SUB SUB DUP2 MSTORE SWAP1 PUSH1 0x40 MSTORE DUP1 MLOAD SWAP1 PUSH1 0x20 ADD KECCAK256 SWAP1 POP SWAP1 JUMP JUMPDEST PUSH1 0x1 PUSH1 0x1 PUSH1 0xA0 SHL SUB DUP2 AND CALLER EQ PUSH2 0x1501 JUMPI PUSH1 0x40 MLOAD PUSH3 0x461BCD PUSH1 0xE5 SHL DUP2 MSTORE PUSH1 0x20 PUSH1 0x4 DUP3 ADD MSTORE PUSH1 0x2F PUSH1 0x24 DUP3 ADD MSTORE PUSH32 0x416363657373436F6E74726F6C3A2063616E206F6E6C792072656E6F756E6365 PUSH1 0x44 DUP3 ADD MSTORE PUSH15 0x103937B632B9903337B91039B2B633 PUSH1 0x89 SHL PUSH1 0x64 DUP3 ADD MSTORE PUSH1 0x84 ADD PUSH2 0x6FD JUMP JUMPDEST PUSH2 0x710 DUP3 DUP3 PUSH2 0x1BA2 JUMP JUMPDEST PUSH1 0x0 PUSH2 0x1515 PUSH2 0xA6F JUMP JUMPDEST PUSH2 0x151E TIMESTAMP PUSH2 0x1BDD JUMP JUMPDEST PUSH2 0x1528 SWAP2 SWAP1 PUSH2 0x26FA JUMP JUMPDEST SWAP1 POP PUSH2 0x1534 DUP3 DUP3 PUSH2 0x1C48 JUMP JUMPDEST PUSH1 0x40 MLOAD PUSH6 0xFFFFFFFFFFFF DUP3 AND DUP2 MSTORE PUSH1 0x1 PUSH1 0x1 PUSH1 0xA0 SHL SUB DUP4 AND SWAP1 PUSH32 0x3377DC44241E779DD06AFAB5B788A35CA5F3B778836E2990BDB26A2A4B2E5ED6 SWAP1 PUSH1 0x20 ADD PUSH1 0x40 MLOAD DUP1 SWAP2 SUB SWAP1 LOG2 POP POP JUMP JUMPDEST PUSH1 0x0 PUSH2 0x1589 DUP3 PUSH2 0x1CC7 JUMP JUMPDEST PUSH2 0x1592 TIMESTAMP PUSH2 0x1BDD JUMP JUMPDEST PUSH2 0x159C SWAP2 SWAP1 PUSH2 0x26FA JUMP JUMPDEST SWAP1 POP PUSH2 0x15A8 DUP3 DUP3 PUSH2 0x186C JUMP JUMPDEST PUSH1 0x40 DUP1 MLOAD PUSH6 0xFFFFFFFFFFFF DUP1 DUP6 AND DUP3 MSTORE DUP4 AND PUSH1 0x20 DUP3 ADD MSTORE PUSH32 0xF1038C18CF84A56E432FDBFAF746924B7EA511DFE03A6506A0CEBA4888788D9B SWAP2 ADD PUSH1 0x40 MLOAD DUP1 SWAP2 SUB SWAP1 LOG1 POP POP JUMP JUMPDEST PUSH1 0x60 PUSH1 0xFF DUP4 EQ PUSH2 0x1608 JUMPI PUSH2 0x1601 DUP4 PUSH2 0x1D0F JUMP JUMPDEST SWAP1 POP PUSH2 0x56B JUMP JUMPDEST DUP2 DUP1 SLOAD PUSH2 0x1614 SWAP1 PUSH2 0x2687 JUMP JUMPDEST DUP1 PUSH1 0x1F ADD PUSH1 0x20 DUP1 SWAP2 DIV MUL PUSH1 0x20 ADD PUSH1 0x40 MLOAD SWAP1 DUP2 ADD PUSH1 0x40 MSTORE DUP1 SWAP3 SWAP2 SWAP1 DUP2 DUP2 MSTORE PUSH1 0x20 ADD DUP3 DUP1 SLOAD PUSH2 0x1640 SWAP1 PUSH2 0x2687 JUMP JUMPDEST DUP1 ISZERO PUSH2 0x168D JUMPI DUP1 PUSH1 0x1F LT PUSH2 0x1662 JUMPI PUSH2 0x100 DUP1 DUP4 SLOAD DIV MUL DUP4 MSTORE SWAP2 PUSH1 0x20 ADD SWAP2 PUSH2 0x168D JUMP JUMPDEST DUP3 ADD SWAP2 SWAP1 PUSH1 0x0 MSTORE PUSH1 0x20 PUSH1 0x0 KECCAK256 SWAP1 JUMPDEST DUP2 SLOAD DUP2 MSTORE SWAP1 PUSH1 0x1 ADD SWAP1 PUSH1 0x20 ADD DUP1 DUP4 GT PUSH2 0x1670 JUMPI DUP3 SWAP1 SUB PUSH1 0x1F AND DUP3 ADD SWAP2 JUMPDEST POP POP POP POP POP SWAP1 POP PUSH2 0x56B JUMP JUMPDEST PUSH1 0x0 DUP1 PUSH2 0x16A4 PUSH2 0xB4C JUMP JUMPDEST SWAP2 POP SWAP2 POP PUSH2 0x16B9 DUP2 PUSH6 0xFFFFFFFFFFFF AND ISZERO ISZERO SWAP1 JUMP JUMPDEST DUP1 ISZERO PUSH2 0x16CC JUMPI POP TIMESTAMP PUSH6 0xFFFFFFFFFFFF DUP3 AND LT JUMPDEST PUSH2 0x1729 JUMPI PUSH1 0x40 MLOAD PUSH3 0x461BCD PUSH1 0xE5 SHL DUP2 MSTORE PUSH1 0x20 PUSH1 0x4 DUP3 ADD MSTORE PUSH1 0x28 PUSH1 0x24 DUP3 ADD MSTORE PUSH32 0x416363657373436F6E74726F6C3A207472616E736665722064656C6179206E6F PUSH1 0x44 DUP3 ADD MSTORE PUSH8 0x1D081C185CDCD959 PUSH1 0xC2 SHL PUSH1 0x64 DUP3 ADD MSTORE PUSH1 0x84 ADD PUSH2 0x6FD JUMP JUMPDEST PUSH2 0x1745 PUSH1 0x0 PUSH2 0x1740 PUSH1 0xB SLOAD PUSH1 0x1 PUSH1 0x1 PUSH1 0xA0 SHL SUB AND SWAP1 JUMP JUMPDEST PUSH2 0x1BA2 JUMP JUMPDEST PUSH2 0x1750 PUSH1 0x0 DUP4 PUSH2 0x1A01 JUMP JUMPDEST POP POP PUSH1 0xA DUP1 SLOAD PUSH1 0x1 PUSH1 0x1 PUSH1 0xD0 SHL SUB NOT AND SWAP1 SSTORE JUMP JUMPDEST PUSH1 0x1 PUSH1 0x1 PUSH1 0xA0 SHL SUB DUP2 AND PUSH1 0x0 SWAP1 DUP2 MSTORE PUSH1 0x7 PUSH1 0x20 MSTORE PUSH1 0x40 SWAP1 KECCAK256 DUP1 SLOAD PUSH1 0x1 DUP2 ADD DUP3 SSTORE SWAP1 JUMPDEST POP SWAP2 SWAP1 POP JUMP JUMPDEST PUSH1 0x0 PUSH2 0x56B PUSH2 0x1799 PUSH2 0x1366 JUMP JUMPDEST DUP4 PUSH1 0x40 MLOAD PUSH2 0x1901 PUSH1 0xF0 SHL DUP2 MSTORE PUSH1 0x2 DUP2 ADD SWAP3 SWAP1 SWAP3 MSTORE PUSH1 0x22 DUP3 ADD MSTORE PUSH1 0x42 SWAP1 KECCAK256 SWAP1 JUMP JUMPDEST PUSH1 0x0 DUP1 PUSH1 0x0 PUSH2 0x17CA DUP8 DUP8 DUP8 DUP8 PUSH2 0x1D4E JUMP JUMPDEST SWAP2 POP SWAP2 POP PUSH2 0x17D7 DUP2 PUSH2 0x1E12 JUMP JUMPDEST POP SWAP1 POP JUMPDEST SWAP5 SWAP4 POP POP POP POP JUMP JUMPDEST PUSH1 0x0 DUP3 DUP2 MSTORE PUSH1 0x9 PUSH1 0x20 MSTORE PUSH1 0x40 SWAP1 KECCAK256 PUSH1 0x1 ADD SLOAD PUSH2 0x17FE DUP2 PUSH2 0xEE6 JUMP JUMPDEST PUSH2 0x1027 DUP4 DUP4 PUSH2 0x1BA2 JUMP JUMPDEST PUSH2 0xEFB PUSH1 0x0 DUP1 PUSH2 0x1C48 JUMP JUMPDEST PUSH2 0x181D DUP3 DUP3 PUSH2 0x958 JUMP JUMPDEST PUSH2 0x710 JUMPI PUSH2 0x182A DUP2 PUSH2 0x1F5C JUMP JUMPDEST PUSH2 0x1835 DUP4 PUSH1 0x20 PUSH2 0x1F6E JUMP JUMPDEST PUSH1 0x40 MLOAD PUSH1 0x20 ADD PUSH2 0x1846 SWAP3 SWAP2 SWAP1 PUSH2 0x2720 JUMP JUMPDEST PUSH1 0x40 DUP1 MLOAD PUSH1 0x1F NOT DUP2 DUP5 SUB ADD DUP2 MSTORE SWAP1 DUP3 SWAP1 MSTORE PUSH3 0x461BCD PUSH1 0xE5 SHL DUP3 MSTORE PUSH2 0x6FD SWAP2 PUSH1 0x4 ADD PUSH2 0x2437 JUMP JUMPDEST PUSH1 0xB SLOAD PUSH1 0x1 PUSH1 0xD0 SHL SWAP1 DIV PUSH6 0xFFFFFFFFFFFF AND DUP1 ISZERO PUSH2 0x18EF JUMPI TIMESTAMP PUSH6 0xFFFFFFFFFFFF DUP3 AND LT ISZERO PUSH2 0x18C5 JUMPI PUSH1 0xB SLOAD PUSH1 0xA DUP1 SLOAD PUSH1 0x1 PUSH1 0x1 PUSH1 0xD0 SHL SUB AND PUSH1 0x1 PUSH1 0xA0 SHL SWAP1 SWAP3 DIV PUSH6 0xFFFFFFFFFFFF AND PUSH1 0x1 PUSH1 0xD0 SHL MUL SWAP2 SWAP1 SWAP2 OR SWAP1 SSTORE PUSH2 0x18EF JUMP JUMPDEST PUSH1 0x40 MLOAD PUSH32 0x2B1FA2EDAFE6F7B9E97C1A9E0C3660E645BEB2DCAA2D45BDBF9BEAF5472E1EC5 SWAP1 PUSH1 0x0 SWAP1 LOG1 JUMPDEST POP PUSH1 0xB DUP1 SLOAD PUSH1 0x1 PUSH1 0x1 PUSH1 0xA0 SHL SUB AND PUSH1 0x1 PUSH1 0xA0 SHL PUSH6 0xFFFFFFFFFFFF SWAP5 DUP6 AND MUL PUSH1 0x1 PUSH1 0x1 PUSH1 0xD0 SHL SUB AND OR PUSH1 0x1 PUSH1 0xD0 SHL SWAP3 SWAP1 SWAP4 AND SWAP2 SWAP1 SWAP2 MUL SWAP2 SWAP1 SWAP2 OR SWAP1 SSTORE JUMP JUMPDEST PUSH1 0x0 PUSH2 0x1981 DUP3 PUSH1 0x40 MLOAD DUP1 PUSH1 0x40 ADD PUSH1 0x40 MSTORE DUP1 PUSH1 0x20 DUP2 MSTORE PUSH1 0x20 ADD PUSH32 0x5361666545524332303A206C6F772D6C6576656C2063616C6C206661696C6564 DUP2 MSTORE POP DUP6 PUSH1 0x1 PUSH1 0x1 PUSH1 0xA0 SHL SUB AND PUSH2 0x210A SWAP1 SWAP3 SWAP2 SWAP1 PUSH4 0xFFFFFFFF AND JUMP JUMPDEST SWAP1 POP DUP1 MLOAD PUSH1 0x0 EQ DUP1 PUSH2 0x19A2 JUMPI POP DUP1 DUP1 PUSH1 0x20 ADD SWAP1 MLOAD DUP2 ADD SWAP1 PUSH2 0x19A2 SWAP2 SWAP1 PUSH2 0x2795 JUMP JUMPDEST PUSH2 0x1027 JUMPI PUSH1 0x40 MLOAD PUSH3 0x461BCD PUSH1 0xE5 SHL DUP2 MSTORE PUSH1 0x20 PUSH1 0x4 DUP3 ADD MSTORE PUSH1 0x2A PUSH1 0x24 DUP3 ADD MSTORE PUSH32 0x5361666545524332303A204552433230206F7065726174696F6E20646964206E PUSH1 0x44 DUP3 ADD MSTORE PUSH10 0x1BDD081CDD58D8D95959 PUSH1 0xB2 SHL PUSH1 0x64 DUP3 ADD MSTORE PUSH1 0x84 ADD PUSH2 0x6FD JUMP JUMPDEST DUP2 PUSH2 0x1AA1 JUMPI PUSH1 0x0 PUSH2 0x1A1A PUSH1 0xB SLOAD PUSH1 0x1 PUSH1 0x1 PUSH1 0xA0 SHL SUB AND SWAP1 JUMP JUMPDEST PUSH1 0x1 PUSH1 0x1 PUSH1 0xA0 SHL SUB AND EQ PUSH2 0x1A85 JUMPI PUSH1 0x40 MLOAD PUSH3 0x461BCD PUSH1 0xE5 SHL DUP2 MSTORE PUSH1 0x20 PUSH1 0x4 DUP3 ADD MSTORE PUSH1 0x2C PUSH1 0x24 DUP3 ADD MSTORE PUSH32 0x416363657373436F6E74726F6C3A2064656661756C742061646D696E20616C72 PUSH1 0x44 DUP3 ADD MSTORE PUSH12 0x1958591E4819DC985B9D1959 PUSH1 0xA2 SHL PUSH1 0x64 DUP3 ADD MSTORE PUSH1 0x84 ADD PUSH2 0x6FD JUMP JUMPDEST PUSH1 0xB DUP1 SLOAD PUSH1 0x1 PUSH1 0x1 PUSH1 0xA0 SHL SUB NOT AND PUSH1 0x1 PUSH1 0x1 PUSH1 0xA0 SHL SUB DUP4 AND OR SWAP1 SSTORE JUMPDEST PUSH2 0x710 DUP3 DUP3 PUSH2 0x2119 JUMP JUMPDEST PUSH1 0x40 MLOAD PUSH1 0x1 PUSH1 0x1 PUSH1 0xA0 SHL SUB DUP1 DUP6 AND PUSH1 0x24 DUP4 ADD MSTORE DUP4 AND PUSH1 0x44 DUP3 ADD MSTORE PUSH1 0x64 DUP2 ADD DUP3 SWAP1 MSTORE PUSH2 0x1103 SWAP1 DUP6 SWAP1 PUSH4 0x23B872DD PUSH1 0xE0 SHL SWAP1 PUSH1 0x84 ADD PUSH2 0x1058 JUMP JUMPDEST PUSH1 0x1 PUSH1 0x1 PUSH1 0xA0 SHL SUB DUP3 AND PUSH2 0x1B39 JUMPI PUSH1 0x40 MLOAD PUSH3 0x461BCD PUSH1 0xE5 SHL DUP2 MSTORE PUSH1 0x20 PUSH1 0x4 DUP3 ADD MSTORE PUSH1 0x1F PUSH1 0x24 DUP3 ADD MSTORE PUSH32 0x45524332303A206D696E7420746F20746865207A65726F206164647265737300 PUSH1 0x44 DUP3 ADD MSTORE PUSH1 0x64 ADD PUSH2 0x6FD JUMP JUMPDEST DUP1 PUSH1 0x2 PUSH1 0x0 DUP3 DUP3 SLOAD PUSH2 0x1B4B SWAP2 SWAP1 PUSH2 0x26D1 JUMP JUMPDEST SWAP1 SWAP2 SSTORE POP POP PUSH1 0x1 PUSH1 0x1 PUSH1 0xA0 SHL SUB DUP3 AND PUSH1 0x0 DUP2 DUP2 MSTORE PUSH1 0x20 DUP2 DUP2 MSTORE PUSH1 0x40 DUP1 DUP4 KECCAK256 DUP1 SLOAD DUP7 ADD SWAP1 SSTORE MLOAD DUP5 DUP2 MSTORE PUSH32 0xDDF252AD1BE2C89B69C2B068FC378DAA952BA7F163C4A11628F55A4DF523B3EF SWAP2 ADD PUSH1 0x40 MLOAD DUP1 SWAP2 SUB SWAP1 LOG3 POP POP JUMP JUMPDEST DUP2 ISZERO DUP1 ISZERO PUSH2 0x1BBD JUMPI POP PUSH1 0xB SLOAD PUSH1 0x1 PUSH1 0x1 PUSH1 0xA0 SHL SUB DUP3 DUP2 AND SWAP2 AND EQ JUMPDEST ISZERO PUSH2 0x1BD3 JUMPI PUSH1 0xB DUP1 SLOAD PUSH1 0x1 PUSH1 0x1 PUSH1 0xA0 SHL SUB NOT AND SWAP1 SSTORE JUMPDEST PUSH2 0x710 DUP3 DUP3 PUSH2 0x219F JUMP JUMPDEST PUSH1 0x0 PUSH6 0xFFFFFFFFFFFF DUP3 GT ISZERO PUSH2 0x1C44 JUMPI PUSH1 0x40 MLOAD PUSH3 0x461BCD PUSH1 0xE5 SHL DUP2 MSTORE PUSH1 0x20 PUSH1 0x4 DUP3 ADD MSTORE PUSH1 0x26 PUSH1 0x24 DUP3 ADD MSTORE PUSH32 0x53616665436173743A2076616C756520646F65736E27742066697420696E2034 PUSH1 0x44 DUP3 ADD MSTORE PUSH6 0x382062697473 PUSH1 0xD0 SHL PUSH1 0x64 DUP3 ADD MSTORE PUSH1 0x84 ADD PUSH2 0x6FD JUMP JUMPDEST POP SWAP1 JUMP JUMPDEST PUSH1 0x0 PUSH2 0x1C52 PUSH2 0xB4C JUMP JUMPDEST PUSH1 0xA DUP1 SLOAD PUSH6 0xFFFFFFFFFFFF DUP7 AND PUSH1 0x1 PUSH1 0xA0 SHL MUL PUSH1 0x1 PUSH1 0x1 PUSH1 0xD0 SHL SUB NOT SWAP1 SWAP2 AND PUSH1 0x1 PUSH1 0x1 PUSH1 0xA0 SHL SUB DUP9 AND OR OR SWAP1 SSTORE SWAP2 POP PUSH2 0x1C94 SWAP1 POP DUP2 PUSH6 0xFFFFFFFFFFFF AND ISZERO ISZERO SWAP1 JUMP JUMPDEST ISZERO PUSH2 0x1027 JUMPI PUSH1 0x40 MLOAD PUSH32 0x8886EBFC4259ABDBC16601DD8FB5678E54878F47B3C34836CFC51154A9605109 SWAP1 PUSH1 0x0 SWAP1 LOG1 POP POP POP JUMP JUMPDEST PUSH1 0x0 DUP1 PUSH2 0x1CD2 PUSH2 0xA6F JUMP JUMPDEST SWAP1 POP DUP1 PUSH6 0xFFFFFFFFFFFF AND DUP4 PUSH6 0xFFFFFFFFFFFF AND GT PUSH2 0x1CFA JUMPI PUSH2 0x1CF5 DUP4 DUP3 PUSH2 0x27B7 JUMP JUMPDEST PUSH2 0x753 JUMP JUMPDEST PUSH2 0x753 PUSH6 0xFFFFFFFFFFFF DUP5 AND PUSH3 0x69780 PUSH2 0x2206 JUMP JUMPDEST PUSH1 0x60 PUSH1 0x0 PUSH2 0x1D1C DUP4 PUSH2 0x221C JUMP JUMPDEST PUSH1 0x40 DUP1 MLOAD PUSH1 0x20 DUP1 DUP3 MSTORE DUP2 DUP4 ADD SWAP1 SWAP3 MSTORE SWAP2 SWAP3 POP PUSH1 0x0 SWAP2 SWAP1 PUSH1 0x20 DUP3 ADD DUP2 DUP1 CALLDATASIZE DUP4 CALLDATACOPY POP POP POP SWAP2 DUP3 MSTORE POP PUSH1 0x20 DUP2 ADD SWAP3 SWAP1 SWAP3 MSTORE POP SWAP1 JUMP JUMPDEST PUSH1 0x0 DUP1 PUSH32 0x7FFFFFFFFFFFFFFFFFFFFFFFFFFFFFFF5D576E7357A4501DDFE92F46681B20A0 DUP4 GT ISZERO PUSH2 0x1D85 JUMPI POP PUSH1 0x0 SWAP1 POP PUSH1 0x3 PUSH2 0x1E09 JUMP JUMPDEST PUSH1 0x40 DUP1 MLOAD PUSH1 0x0 DUP1 DUP3 MSTORE PUSH1 0x20 DUP3 ADD DUP1 DUP5 MSTORE DUP10 SWAP1 MSTORE PUSH1 0xFF DUP9 AND SWAP3 DUP3 ADD SWAP3 SWAP1 SWAP3 MSTORE PUSH1 0x60 DUP2 ADD DUP7 SWAP1 MSTORE PUSH1 0x80 DUP2 ADD DUP6 SWAP1 MSTORE PUSH1 0x1 SWAP1 PUSH1 0xA0 ADD PUSH1 0x20 PUSH1 0x40 MLOAD PUSH1 0x20 DUP2 SUB SWAP1 DUP1 DUP5 SUB SWAP1 DUP6 GAS STATICCALL ISZERO DUP1 ISZERO PUSH2 0x1DD9 JUMPI RETURNDATASIZE PUSH1 0x0 DUP1 RETURNDATACOPY RETURNDATASIZE PUSH1 0x0 REVERT JUMPDEST POP POP PUSH1 0x40 MLOAD PUSH1 0x1F NOT ADD MLOAD SWAP2 POP POP PUSH1 0x1 PUSH1 0x1 PUSH1 0xA0 SHL SUB DUP2 AND PUSH2 0x1E02 JUMPI PUSH1 0x0 PUSH1 0x1 SWAP3 POP SWAP3 POP POP PUSH2 0x1E09 JUMP JUMPDEST SWAP2 POP PUSH1 0x0 SWAP1 POP JUMPDEST SWAP5 POP SWAP5 SWAP3 POP POP POP JUMP JUMPDEST PUSH1 0x0 DUP2 PUSH1 0x4 DUP2 GT ISZERO PUSH2 0x1E26 JUMPI PUSH2 0x1E26 PUSH2 0x27D6 JUMP JUMPDEST SUB PUSH2 0x1E2E JUMPI POP JUMP JUMPDEST PUSH1 0x1 DUP2 PUSH1 0x4 DUP2 GT ISZERO PUSH2 0x1E42 JUMPI PUSH2 0x1E42 PUSH2 0x27D6 JUMP JUMPDEST SUB PUSH2 0x1E8F JUMPI PUSH1 0x40 MLOAD PUSH3 0x461BCD PUSH1 0xE5 SHL DUP2 MSTORE PUSH1 0x20 PUSH1 0x4 DUP3 ADD MSTORE PUSH1 0x18 PUSH1 0x24 DUP3 ADD MSTORE PUSH32 0x45434453413A20696E76616C6964207369676E61747572650000000000000000 PUSH1 0x44 DUP3 ADD MSTORE PUSH1 0x64 ADD PUSH2 0x6FD JUMP JUMPDEST PUSH1 0x2 DUP2 PUSH1 0x4 DUP2 GT ISZERO PUSH2 0x1EA3 JUMPI PUSH2 0x1EA3 PUSH2 0x27D6 JUMP JUMPDEST SUB PUSH2 0x1EF0 JUMPI PUSH1 0x40 MLOAD PUSH3 0x461BCD PUSH1 0xE5 SHL DUP2 MSTORE PUSH1 0x20 PUSH1 0x4 DUP3 ADD MSTORE PUSH1 0x1F PUSH1 0x24 DUP3 ADD MSTORE PUSH32 0x45434453413A20696E76616C6964207369676E6174757265206C656E67746800 PUSH1 0x44 DUP3 ADD MSTORE PUSH1 0x64 ADD PUSH2 0x6FD JUMP JUMPDEST PUSH1 0x3 DUP2 PUSH1 0x4 DUP2 GT ISZERO PUSH2 0x1F04 JUMPI PUSH2 0x1F04 PUSH2 0x27D6 JUMP JUMPDEST SUB PUSH2 0x62E JUMPI PUSH1 0x40 MLOAD PUSH3 0x461BCD PUSH1 0xE5 SHL DUP2 MSTORE PUSH1 0x20 PUSH1 0x4 DUP3 ADD MSTORE PUSH1 0x22 PUSH1 0x24 DUP3 ADD MSTORE PUSH32 0x45434453413A20696E76616C6964207369676E6174757265202773272076616C PUSH1 0x44 DUP3 ADD MSTORE PUSH2 0x7565 PUSH1 0xF0 SHL PUSH1 0x64 DUP3 ADD MSTORE PUSH1 0x84 ADD PUSH2 0x6FD JUMP JUMPDEST PUSH1 0x60 PUSH2 0x56B PUSH1 0x1 PUSH1 0x1 PUSH1 0xA0 SHL SUB DUP4 AND PUSH1 0x14 JUMPDEST PUSH1 0x60 PUSH1 0x0 PUSH2 0x1F7D DUP4 PUSH1 0x2 PUSH2 0x27EC JUMP JUMPDEST PUSH2 0x1F88 SWAP1 PUSH1 0x2 PUSH2 0x26D1 JUMP JUMPDEST PUSH8 0xFFFFFFFFFFFFFFFF DUP2 GT ISZERO PUSH2 0x1FA0 JUMPI PUSH2 0x1FA0 PUSH2 0x26E4 JUMP JUMPDEST PUSH1 0x40 MLOAD SWAP1 DUP1 DUP3 MSTORE DUP1 PUSH1 0x1F ADD PUSH1 0x1F NOT AND PUSH1 0x20 ADD DUP3 ADD PUSH1 0x40 MSTORE DUP1 ISZERO PUSH2 0x1FCA JUMPI PUSH1 0x20 DUP3 ADD DUP2 DUP1 CALLDATASIZE DUP4 CALLDATACOPY ADD SWAP1 POP JUMPDEST POP SWAP1 POP PUSH1 0x3 PUSH1 0xFC SHL DUP2 PUSH1 0x0 DUP2 MLOAD DUP2 LT PUSH2 0x1FE5 JUMPI PUSH2 0x1FE5 PUSH2 0x2803 JUMP JUMPDEST PUSH1 0x20 ADD ADD SWAP1 PUSH1 0x1 PUSH1 0x1 PUSH1 0xF8 SHL SUB NOT AND SWAP1 DUP2 PUSH1 0x0 BYTE SWAP1 MSTORE8 POP PUSH1 0xF PUSH1 0xFB SHL DUP2 PUSH1 0x1 DUP2 MLOAD DUP2 LT PUSH2 0x2014 JUMPI PUSH2 0x2014 PUSH2 0x2803 JUMP JUMPDEST PUSH1 0x20 ADD ADD SWAP1 PUSH1 0x1 PUSH1 0x1 PUSH1 0xF8 SHL SUB NOT AND SWAP1 DUP2 PUSH1 0x0 BYTE SWAP1 MSTORE8 POP PUSH1 0x0 PUSH2 0x2038 DUP5 PUSH1 0x2 PUSH2 0x27EC JUMP JUMPDEST PUSH2 0x2043 SWAP1 PUSH1 0x1 PUSH2 0x26D1 JUMP JUMPDEST SWAP1 POP JUMPDEST PUSH1 0x1 DUP2 GT ISZERO PUSH2 0x20BB JUMPI PUSH16 0x181899199A1A9B1B9C1CB0B131B232B3 PUSH1 0x81 SHL DUP6 PUSH1 0xF AND PUSH1 0x10 DUP2 LT PUSH2 0x2077 JUMPI PUSH2 0x2077 PUSH2 0x2803 JUMP JUMPDEST BYTE PUSH1 0xF8 SHL DUP3 DUP3 DUP2 MLOAD DUP2 LT PUSH2 0x208D JUMPI PUSH2 0x208D PUSH2 0x2803 JUMP JUMPDEST PUSH1 0x20 ADD ADD SWAP1 PUSH1 0x1 PUSH1 0x1 PUSH1 0xF8 SHL SUB NOT AND SWAP1 DUP2 PUSH1 0x0 BYTE SWAP1 MSTORE8 POP PUSH1 0x4 SWAP5 SWAP1 SWAP5 SHR SWAP4 PUSH2 0x20B4 DUP2 PUSH2 0x2819 JUMP JUMPDEST SWAP1 POP PUSH2 0x2046 JUMP JUMPDEST POP DUP4 ISZERO PUSH2 0x753 JUMPI PUSH1 0x40 MLOAD PUSH3 0x461BCD PUSH1 0xE5 SHL DUP2 MSTORE PUSH1 0x20 PUSH1 0x4 DUP3 ADD DUP2 SWAP1 MSTORE PUSH1 0x24 DUP3 ADD MSTORE PUSH32 0x537472696E67733A20686578206C656E67746820696E73756666696369656E74 PUSH1 0x44 DUP3 ADD MSTORE PUSH1 0x64 ADD PUSH2 0x6FD JUMP JUMPDEST PUSH1 0x60 PUSH2 0x17DB DUP5 DUP5 PUSH1 0x0 DUP6 PUSH2 0x2244 JUMP JUMPDEST PUSH2 0x2123 DUP3 DUP3 PUSH2 0x958 JUMP JUMPDEST PUSH2 0x710 JUMPI PUSH1 0x0 DUP3 DUP2 MSTORE PUSH1 0x9 PUSH1 0x20 SWAP1 DUP2 MSTORE PUSH1 0x40 DUP1 DUP4 KECCAK256 PUSH1 0x1 PUSH1 0x1 PUSH1 0xA0 SHL SUB DUP6 AND DUP5 MSTORE SWAP1 SWAP2 MSTORE SWAP1 KECCAK256 DUP1 SLOAD PUSH1 0xFF NOT AND PUSH1 0x1 OR SWAP1 SSTORE PUSH2 0x215B CALLER SWAP1 JUMP JUMPDEST PUSH1 0x1 PUSH1 0x1 PUSH1 0xA0 SHL SUB AND DUP2 PUSH1 0x1 PUSH1 0x1 PUSH1 0xA0 SHL SUB AND DUP4 PUSH32 0x2F8788117E7EFF1D82E926EC794901D17C78024A50270940304540A733656F0D PUSH1 0x40 MLOAD PUSH1 0x40 MLOAD DUP1 SWAP2 SUB SWAP1 LOG4 POP POP JUMP JUMPDEST PUSH2 0x21A9 DUP3 DUP3 PUSH2 0x958 JUMP JUMPDEST ISZERO PUSH2 0x710 JUMPI PUSH1 0x0 DUP3 DUP2 MSTORE PUSH1 0x9 PUSH1 0x20 SWAP1 DUP2 MSTORE PUSH1 0x40 DUP1 DUP4 KECCAK256 PUSH1 0x1 PUSH1 0x1 PUSH1 0xA0 SHL SUB DUP6 AND DUP1 DUP6 MSTORE SWAP3 MSTORE DUP1 DUP4 KECCAK256 DUP1 SLOAD PUSH1 0xFF NOT AND SWAP1 SSTORE MLOAD CALLER SWAP3 DUP6 SWAP2 PUSH32 0xF6391F5C32D9C69D2A47EA670B442974B53935D1EDC7FD64EB21E047A839171B SWAP2 SWAP1 LOG4 POP POP JUMP JUMPDEST PUSH1 0x0 DUP2 DUP4 LT PUSH2 0x2215 JUMPI DUP2 PUSH2 0x753 JUMP JUMPDEST POP SWAP1 SWAP2 SWAP1 POP JUMP JUMPDEST PUSH1 0x0 PUSH1 0xFF DUP3 AND PUSH1 0x1F DUP2 GT ISZERO PUSH2 0x56B JUMPI PUSH1 0x40 MLOAD PUSH4 0x2CD44AC3 PUSH1 0xE2 SHL DUP2 MSTORE PUSH1 0x4 ADD PUSH1 0x40 MLOAD DUP1 SWAP2 SUB SWAP1 REVERT JUMPDEST PUSH1 0x60 DUP3 SELFBALANCE LT ISZERO PUSH2 0x22A5 JUMPI PUSH1 0x40 MLOAD PUSH3 0x461BCD PUSH1 0xE5 SHL DUP2 MSTORE PUSH1 0x20 PUSH1 0x4 DUP3 ADD MSTORE PUSH1 0x26 PUSH1 0x24 DUP3 ADD MSTORE PUSH32 0x416464726573733A20696E73756666696369656E742062616C616E636520666F PUSH1 0x44 DUP3 ADD MSTORE PUSH6 0x1C8818D85B1B PUSH1 0xD2 SHL PUSH1 0x64 DUP3 ADD MSTORE PUSH1 0x84 ADD PUSH2 0x6FD JUMP JUMPDEST PUSH1 0x0 DUP1 DUP7 PUSH1 0x1 PUSH1 0x1 PUSH1 0xA0 SHL SUB AND DUP6 DUP8 PUSH1 0x40 MLOAD PUSH2 0x22C1 SWAP2 SWAP1 PUSH2 0x2830 JUMP JUMPDEST PUSH1 0x0 PUSH1 0x40 MLOAD DUP1 DUP4 SUB DUP2 DUP6 DUP8 GAS CALL SWAP3 POP POP POP RETURNDATASIZE DUP1 PUSH1 0x0 DUP2 EQ PUSH2 0x22FE JUMPI PUSH1 0x40 MLOAD SWAP2 POP PUSH1 0x1F NOT PUSH1 0x3F RETURNDATASIZE ADD AND DUP3 ADD PUSH1 0x40 MSTORE RETURNDATASIZE DUP3 MSTORE RETURNDATASIZE PUSH1 0x0 PUSH1 0x20 DUP5 ADD RETURNDATACOPY PUSH2 0x2303 JUMP JUMPDEST PUSH1 0x60 SWAP2 POP JUMPDEST POP SWAP2 POP SWAP2 POP PUSH2 0x2314 DUP8 DUP4 DUP4 DUP8 PUSH2 0x231F JUMP JUMPDEST SWAP8 SWAP7 POP POP POP POP POP POP POP JUMP JUMPDEST PUSH1 0x60 DUP4 ISZERO PUSH2 0x238E JUMPI DUP3 MLOAD PUSH1 0x0 SUB PUSH2 0x2387 JUMPI PUSH1 0x1 PUSH1 0x1 PUSH1 0xA0 SHL SUB DUP6 AND EXTCODESIZE PUSH2 0x2387 JUMPI PUSH1 0x40 MLOAD PUSH3 0x461BCD PUSH1 0xE5 SHL DUP2 MSTORE PUSH1 0x20 PUSH1 0x4 DUP3 ADD MSTORE PUSH1 0x1D PUSH1 0x24 DUP3 ADD MSTORE PUSH32 0x416464726573733A2063616C6C20746F206E6F6E2D636F6E7472616374000000 PUSH1 0x44 DUP3 ADD MSTORE PUSH1 0x64 ADD PUSH2 0x6FD JUMP JUMPDEST POP DUP2 PUSH2 0x17DB JUMP JUMPDEST PUSH2 0x17DB DUP4 DUP4 DUP2 MLOAD ISZERO PUSH2 0x23A3 JUMPI DUP2 MLOAD DUP1 DUP4 PUSH1 0x20 ADD REVERT JUMPDEST DUP1 PUSH1 0x40 MLOAD PUSH3 0x461BCD PUSH1 0xE5 SHL DUP2 MSTORE PUSH1 0x4 ADD PUSH2 0x6FD SWAP2 SWAP1 PUSH2 0x2437 JUMP JUMPDEST PUSH1 0x0 PUSH1 0x20 DUP3 DUP5 SUB SLT ISZERO PUSH2 0x23CF JUMPI PUSH1 0x0 DUP1 REVERT JUMPDEST DUP2 CALLDATALOAD PUSH1 0x1 PUSH1 0x1 PUSH1 0xE0 SHL SUB NOT DUP2 AND DUP2 EQ PUSH2 0x753 JUMPI PUSH1 0x0 DUP1 REVERT JUMPDEST PUSH1 0x0 JUMPDEST DUP4 DUP2 LT ISZERO PUSH2 0x2402 JUMPI DUP2 DUP2 ADD MLOAD DUP4 DUP3 ADD MSTORE PUSH1 0x20 ADD PUSH2 0x23EA JUMP JUMPDEST POP POP PUSH1 0x0 SWAP2 ADD MSTORE JUMP JUMPDEST PUSH1 0x0 DUP2 MLOAD DUP1 DUP5 MSTORE PUSH2 0x2423 DUP2 PUSH1 0x20 DUP7 ADD PUSH1 0x20 DUP7 ADD PUSH2 0x23E7 JUMP JUMPDEST PUSH1 0x1F ADD PUSH1 0x1F NOT AND SWAP3 SWAP1 SWAP3 ADD PUSH1 0x20 ADD SWAP3 SWAP2 POP POP JUMP JUMPDEST PUSH1 0x20 DUP2 MSTORE PUSH1 0x0 PUSH2 0x753 PUSH1 0x20 DUP4 ADD DUP5 PUSH2 0x240B JUMP JUMPDEST DUP1 CALLDATALOAD PUSH1 0x1 PUSH1 0x1 PUSH1 0xA0 SHL SUB DUP2 AND DUP2 EQ PUSH2 0x2461 JUMPI PUSH1 0x0 DUP1 REVERT JUMPDEST SWAP2 SWAP1 POP JUMP JUMPDEST PUSH1 0x0 DUP1 PUSH1 0x40 DUP4 DUP6 SUB SLT ISZERO PUSH2 0x2479 JUMPI PUSH1 0x0 DUP1 REVERT JUMPDEST PUSH2 0x2482 DUP4 PUSH2 0x244A JUMP JUMPDEST SWAP5 PUSH1 0x20 SWAP4 SWAP1 SWAP4 ADD CALLDATALOAD SWAP4 POP POP POP JUMP JUMPDEST PUSH1 0x0 DUP1 PUSH1 0x0 PUSH1 0x60 DUP5 DUP7 SUB SLT ISZERO PUSH2 0x24A5 JUMPI PUSH1 0x0 DUP1 REVERT JUMPDEST PUSH2 0x24AE DUP5 PUSH2 0x244A JUMP JUMPDEST SWAP3 POP PUSH2 0x24BC PUSH1 0x20 DUP6 ADD PUSH2 0x244A JUMP JUMPDEST SWAP2 POP PUSH1 0x40 DUP5 ADD CALLDATALOAD SWAP1 POP SWAP3 POP SWAP3 POP SWAP3 JUMP JUMPDEST PUSH1 0x0 PUSH1 0x20 DUP3 DUP5 SUB SLT ISZERO PUSH2 0x24DE JUMPI PUSH1 0x0 DUP1 REVERT JUMPDEST POP CALLDATALOAD SWAP2 SWAP1 POP JUMP JUMPDEST PUSH1 0x0 DUP1 PUSH1 0x40 DUP4 DUP6 SUB SLT ISZERO PUSH2 0x24F8 JUMPI PUSH1 0x0 DUP1 REVERT JUMPDEST DUP3 CALLDATALOAD SWAP2 POP PUSH2 0x2508 PUSH1 0x20 DUP5 ADD PUSH2 0x244A JUMP JUMPDEST SWAP1 POP SWAP3 POP SWAP3 SWAP1 POP JUMP JUMPDEST PUSH1 0x0 PUSH1 0x20 DUP3 DUP5 SUB SLT ISZERO PUSH2 0x2523 JUMPI PUSH1 0x0 DUP1 REVERT JUMPDEST PUSH2 0x753 DUP3 PUSH2 0x244A JUMP JUMPDEST PUSH1 0x0 PUSH1 0x20 DUP3 DUP5 SUB SLT ISZERO PUSH2 0x253E JUMPI PUSH1 0x0 DUP1 REVERT JUMPDEST DUP2 CALLDATALOAD PUSH6 0xFFFFFFFFFFFF DUP2 AND DUP2 EQ PUSH2 0x753 JUMPI PUSH1 0x0 DUP1 REVERT JUMPDEST PUSH1 0xFF PUSH1 0xF8 SHL DUP9 AND DUP2 MSTORE PUSH1 0x0 PUSH1 0x20 PUSH1 0xE0 DUP2 DUP5 ADD MSTORE PUSH2 0x2574 PUSH1 0xE0 DUP5 ADD DUP11 PUSH2 0x240B JUMP JUMPDEST DUP4 DUP2 SUB PUSH1 0x40 DUP6 ADD MSTORE PUSH2 0x2586 DUP2 DUP11 PUSH2 0x240B JUMP JUMPDEST PUSH1 0x60 DUP6 ADD DUP10 SWAP1 MSTORE PUSH1 0x1 PUSH1 0x1 PUSH1 0xA0 SHL SUB DUP9 AND PUSH1 0x80 DUP7 ADD MSTORE PUSH1 0xA0 DUP6 ADD DUP8 SWAP1 MSTORE DUP5 DUP2 SUB PUSH1 0xC0 DUP7 ADD MSTORE DUP6 MLOAD DUP1 DUP3 MSTORE DUP4 DUP8 ADD SWAP3 POP SWAP1 DUP4 ADD SWAP1 PUSH1 0x0 JUMPDEST DUP2 DUP2 LT ISZERO PUSH2 0x25D8 JUMPI DUP4 MLOAD DUP4 MSTORE SWAP3 DUP5 ADD SWAP3 SWAP2 DUP5 ADD SWAP2 PUSH1 0x1 ADD PUSH2 0x25BC JUMP JUMPDEST POP SWAP1 SWAP13 SWAP12 POP POP POP POP POP POP POP POP POP POP POP POP JUMP JUMPDEST PUSH1 0x0 DUP1 PUSH1 0x0 DUP1 PUSH1 0x0 DUP1 PUSH1 0x0 PUSH1 0xE0 DUP9 DUP11 SUB SLT ISZERO PUSH2 0x2605 JUMPI PUSH1 0x0 DUP1 REVERT JUMPDEST PUSH2 0x260E DUP9 PUSH2 0x244A JUMP JUMPDEST SWAP7 POP PUSH2 0x261C PUSH1 0x20 DUP10 ADD PUSH2 0x244A JUMP JUMPDEST SWAP6 POP PUSH1 0x40 DUP9 ADD CALLDATALOAD SWAP5 POP PUSH1 0x60 DUP9 ADD CALLDATALOAD SWAP4 POP PUSH1 0x80 DUP9 ADD CALLDATALOAD PUSH1 0xFF DUP2 AND DUP2 EQ PUSH2 0x2640 JUMPI PUSH1 0x0 DUP1 REVERT JUMPDEST SWAP7 SWAP10 SWAP6 SWAP9 POP SWAP4 SWAP7 SWAP3 SWAP6 SWAP5 PUSH1 0xA0 DUP5 ADD CALLDATALOAD SWAP5 POP PUSH1 0xC0 SWAP1 SWAP4 ADD CALLDATALOAD SWAP3 SWAP2 POP POP JUMP JUMPDEST PUSH1 0x0 DUP1 PUSH1 0x40 DUP4 DUP6 SUB SLT ISZERO PUSH2 0x2670 JUMPI PUSH1 0x0 DUP1 REVERT JUMPDEST PUSH2 0x2679 DUP4 PUSH2 0x244A JUMP JUMPDEST SWAP2 POP PUSH2 0x2508 PUSH1 0x20 DUP5 ADD PUSH2 0x244A JUMP JUMPDEST PUSH1 0x1 DUP2 DUP2 SHR SWAP1 DUP3 AND DUP1 PUSH2 0x269B JUMPI PUSH1 0x7F DUP3 AND SWAP2 POP JUMPDEST PUSH1 0x20 DUP3 LT DUP2 SUB PUSH2 0x1786 JUMPI PUSH4 0x4E487B71 PUSH1 0xE0 SHL PUSH1 0x0 MSTORE PUSH1 0x22 PUSH1 0x4 MSTORE PUSH1 0x24 PUSH1 0x0 REVERT JUMPDEST PUSH4 0x4E487B71 PUSH1 0xE0 SHL PUSH1 0x0 MSTORE PUSH1 0x11 PUSH1 0x4 MSTORE PUSH1 0x24 PUSH1 0x0 REVERT JUMPDEST DUP1 DUP3 ADD DUP1 DUP3 GT ISZERO PUSH2 0x56B JUMPI PUSH2 0x56B PUSH2 0x26BB JUMP JUMPDEST PUSH4 0x4E487B71 PUSH1 0xE0 SHL PUSH1 0x0 MSTORE PUSH1 0x41 PUSH1 0x4 MSTORE PUSH1 0x24 PUSH1 0x0 REVERT JUMPDEST PUSH6 0xFFFFFFFFFFFF DUP2 DUP2 AND DUP4 DUP3 AND ADD SWAP1 DUP1 DUP3 GT ISZERO PUSH2 0x2719 JUMPI PUSH2 0x2719 PUSH2 0x26BB JUMP JUMPDEST POP SWAP3 SWAP2 POP POP JUMP JUMPDEST PUSH32 0x416363657373436F6E74726F6C3A206163636F756E7420000000000000000000 DUP2 MSTORE PUSH1 0x0 DUP4 MLOAD PUSH2 0x2758 DUP2 PUSH1 0x17 DUP6 ADD PUSH1 0x20 DUP9 ADD PUSH2 0x23E7 JUMP JUMPDEST PUSH17 0x1034B99036B4B9B9B4B733903937B6329 PUSH1 0x7D SHL PUSH1 0x17 SWAP2 DUP5 ADD SWAP2 DUP3 ADD MSTORE DUP4 MLOAD PUSH2 0x2789 DUP2 PUSH1 0x28 DUP5 ADD PUSH1 0x20 DUP9 ADD PUSH2 0x23E7 JUMP JUMPDEST ADD PUSH1 0x28 ADD SWAP5 SWAP4 POP POP POP POP JUMP JUMPDEST PUSH1 0x0 PUSH1 0x20 DUP3 DUP5 SUB SLT ISZERO PUSH2 0x27A7 JUMPI PUSH1 0x0 DUP1 REVERT JUMPDEST DUP2 MLOAD DUP1 ISZERO ISZERO DUP2 EQ PUSH2 0x753 JUMPI PUSH1 0x0 DUP1 REVERT JUMPDEST PUSH6 0xFFFFFFFFFFFF DUP3 DUP2 AND DUP3 DUP3 AND SUB SWAP1 DUP1 DUP3 GT ISZERO PUSH2 0x2719 JUMPI PUSH2 0x2719 PUSH2 0x26BB JUMP JUMPDEST PUSH4 0x4E487B71 PUSH1 0xE0 SHL PUSH1 0x0 MSTORE PUSH1 0x21 PUSH1 0x4 MSTORE PUSH1 0x24 PUSH1 0x0 REVERT JUMPDEST DUP1 DUP3 MUL DUP2 ISZERO DUP3 DUP3 DIV DUP5 EQ OR PUSH2 0x56B JUMPI PUSH2 0x56B PUSH2 0x26BB JUMP JUMPDEST PUSH4 0x4E487B71 PUSH1 0xE0 SHL PUSH1 0x0 MSTORE PUSH1 0x32 PUSH1 0x4 MSTORE PUSH1 0x24 PUSH1 0x0 REVERT JUMPDEST PUSH1 0x0 DUP2 PUSH2 0x2828 JUMPI PUSH2 0x2828 PUSH2 0x26BB JUMP JUMPDEST POP PUSH1 0x0 NOT ADD SWAP1 JUMP JUMPDEST PUSH1 0x0 DUP3 MLOAD PUSH2 0x2842 DUP2 DUP5 PUSH1 0x20 DUP8 ADD PUSH2 0x23E7 JUMP JUMPDEST SWAP2 SWAP1 SWAP2 ADD SWAP3 SWAP2 POP POP JUMP INVALID LOG2 PUSH5 0x6970667358 0x22 SLT KECCAK256 0x26 0x21 LOG3 0xB2 0xEB 0xB2 COINBASE 0xCB SWAP2 SLT DUP5 0x2A 0x49 SHL 0x5C 0x2F 0x2E PUSH13 0xBA370FA9605EB1BCD4B530264 PUSH26 0x64736F6C63430008130033000000000000000000000000000000 "},"methodIdentifiers":{"DEFAULT_ADMIN_ROLE()":"a217fddf","DOMAIN_SEPARATOR()":"3644e515","MINTER_ROLE()":"d5391393","acceptDefaultAdminTransfer()":"cefc1429","allowance(address,address)":"dd62ed3e","approve(address,uint256)":"095ea7b3","balanceOf(address)":"70a08231","beginDefaultAdminTransfer(address)":"634e93da","cancelDefaultAdminTransfer()":"d602b9fd","changeDefaultAdminDelay(uint48)":"649a5ec7","decimals()":"313ce567","decreaseAllowance(address,uint256)":"a457c2d7","defaultAdmin()":"84ef8ffc","defaultAdminDelay()":"cc8463c8","defaultAdminDelayIncreaseWait()":"022d63fb","depositFor(address,uint256)":"2f4f21e2","eip712Domain()":"84b0196e","getRoleAdmin(bytes32)":"248a9ca3","grantRole(bytes32,address)":"2f2ff15d","hasRole(bytes32,address)":"91d14854","increaseAllowance(address,uint256)":"39509351","name()":"06fdde03","nonces(address)":"7ecebe00","owner()":"8da5cb5b","pendingDefaultAdmin()":"cf6eefb7","pendingDefaultAdminDelay()":"a1eda53c","permit(address,address,uint256,uint256,uint8,bytes32,bytes32)":"d505accf","renounceRole(bytes32,address)":"36568abe","revokeRole(bytes32,address)":"d547741f","rollbackDefaultAdminDelay()":"0aa6220b","supportsInterface(bytes4)":"01ffc9a7","symbol()":"95d89b41","totalSupply()":"18160ddd","transfer(address,uint256)":"a9059cbb","transferFrom(address,address,uint256)":"23b872dd","underlying()":"6f307dc3","withdrawTo(address,uint256)":"205c2878"}},"storageLayout":{"storage":[{"astId":1212,"contract":"src/SFLUVv1.sol:SFLUVv1","label":"_balances","offset":0,"slot":"0","type":"t_mapping(t_address,t_uint256)"},{"astId":1218,"contract":"src/SFLUVv1.sol:SFLUVv1","label":"_allowances","offset":0,"slot":"1","type":"t_mapping(t_address,t_mapping(t_address,t_uint256))"},{"astId":1220,"contract":"src/SFLUVv1.sol:SFLUVv1","label":"_totalSupply","offset":0,"slot":"2","type":"t_uint256"},{"astId":1222,"contract":"src/SFLUVv1.sol:SFLUVv1","label":"_name","offset":0,"slot":"3","type":"t_string_storage"},{"astId":1224,"contract":"src/SFLUVv1.sol:SFLUVv1","label":"_symbol","offset":0,"slot":"4","type":"t_string_storage"},{"astId":4023,"contract":"src/SFLUVv1.sol:SFLUVv1","label":"_nameFallback","offset":0,"slot":"5","type":"t_string_storage"},{"astId":4025,"contract":"src/SFLUVv1.sol:SFLUVv1","label":"_versionFallback","offset":0,"slot":"6","type":"t_string_storage"},{"astId":1884,"contract":"src/SFLUVv1.sol:SFLUVv1","label":"_nonces","offset":0,"slot":"7","type":"t_mapping(t_address,t_struct(Counter)3001_storage)"},{"astId":1892,"contract":"src/SFLUVv1.sol:SFLUVv1","label":"_PERMIT_TYPEHASH_DEPRECATED_SLOT","offset":0,"slot":"8","type":"t_bytes32"},{"astId":24,"contract":"src/SFLUVv1.sol:SFLUVv1","label":"_roles","offset":0,"slot":"9","type":"t_mapping(t_bytes32,t_struct(RoleData)19_storage)"},{"astId":330,"contract":"src/SFLUVv1.sol:SFLUVv1","label":"_pendingDefaultAdmin","offset":0,"slot":"10","type":"t_address"},{"astId":332,"contract":"src/SFLUVv1.sol:SFLUVv1","label":"_pendingDefaultAdminSchedule","offset":20,"slot":"10","type":"t_uint48"},{"astId":334,"contract":"src/SFLUVv1.sol:SFLUVv1","label":"_currentDelay","offset":26,"slot":"10","type":"t_uint48"},{"astId":336,"contract":"src/SFLUVv1.sol:SFLUVv1","label":"_currentDefaultAdmin","offset":0,"slot":"11","type":"t_address"},{"astId":338,"contract":"src/SFLUVv1.sol:SFLUVv1","label":"_pendingDelay","offset":20,"slot":"11","type":"t_uint48"},{"astId":340,"contract":"src/SFLUVv1.sol:SFLUVv1","label":"_pendingDelaySchedule","offset":26,"slot":"11","type":"t_uint48"}],"types":{"t_address":{"encoding":"inplace","label":"address","numberOfBytes":"20"},"t_bool":{"encoding":"inplace","label":"bool","numberOfBytes":"1"},"t_bytes32":{"encoding":"inplace","label":"bytes32","numberOfBytes":"32"},"t_mapping(t_address,t_bool)":{"encoding":"mapping","key":"t_address","label":"mapping(address => bool)","numberOfBytes":"32","value":"t_bool"},"t_mapping(t_address,t_mapping(t_address,t_uint256))":{"encoding":"mapping","key":"t_address","label":"mapping(address => mapping(address => uint256))","numberOfBytes":"32","value":"t_mapping(t_address,t_uint256)"},"t_mapping(t_address,t_struct(Counter)3001_storage)":{"encoding":"mapping","key":"t_address","label":"mapping(address => struct Counters.Counter)","numberOfBytes":"32","value":"t_struct(Counter)3001_storage"},"t_mapping(t_address,t_uint256)":{"encoding":"mapping","key":"t_address","label":"mapping(address => uint256)","numberOfBytes":"32","value":"t_uint256"},"t_mapping(t_bytes32,t_struct(RoleData)19_storage)":{"encoding":"mapping","key":"t_bytes32","label":"mapping(bytes32 => struct AccessControl.RoleData)","numberOfBytes":"32","value":"t_struct(RoleData)19_storage"},"t_string_storage":{"encoding":"bytes","label":"string","numberOfBytes":"32"},"t_struct(Counter)3001_storage":{"encoding":"inplace","label":"struct Counters.Counter","members":[{"astId":3000,"contract":"src/SFLUVv1.sol:SFLUVv1","label":"_value","offset":0,"slot":"0","type":"t_uint256"}],"numberOfBytes":"32"},"t_struct(RoleData)19_storage":{"encoding":"inplace","label":"struct AccessControl.RoleData","members":[{"astId":16,"contract":"src/SFLUVv1.sol:SFLUVv1","label":"members","offset":0,"slot":"0","type":"t_mapping(t_address,t_bool)"},{"astId":18,"contract":"src/SFLUVv1.sol:SFLUVv1","label":"adminRole","offset":0,"slot":"1","type":"t_bytes32"}],"numberOfBytes":"64"},"t_uint256":{"encoding":"inplace","label":"uint256","numberOfBytes":"32"},"t_uint48":{"encoding":"inplace","label":"uint48","numberOfBytes":"6"}}}}}}