{"abi":[{"type":"constructor","inputs":[{"name":"_migrator","type":"address","internalType":"address"},{"name":"_initialOwner","type":"address","internalType":"address"}],"stateMutability":"nonpayable"},{"type":"function","name":"CHANGE_RECOVERY_ADDRESS_TYPEHASH","inputs":[],"outputs":[{"name":"","type":"bytes32","internalType":"bytes32"}],"stateMutability":"view"},{"type":"function","name":"TRANSFER_AND_CHANGE_RECOVERY_TYPEHASH","inputs":[],"outputs":[{"name":"","type":"bytes32","internalType":"bytes32"}],"stateMutability":"view"},{"type":"function","name":"TRANSFER_TYPEHASH","inputs":[],"outputs":[{"name":"","type":"bytes32","internalType":"bytes32"}],"stateMutability":"view"},{"type":"function","name":"VERSION","inputs":[],"outputs":[{"name":"","type":"string","internalType":"string"}],"stateMutability":"view"},{"type":"function","name":"acceptOwnership","inputs":[],"outputs":[],"stateMutability":"nonpayable"},{"type":"function","name":"addGuardian","inputs":[{"name":"guardian","type":"address","internalType":"address"}],"outputs":[],"stateMutability":"nonpayable"},{"type":"function","name":"bulkRegisterIds","inputs":[{"name":"ids","type":"tuple[]","internalType":"struct IIdRegistry.BulkRegisterData[]","components":[{"name":"fid","type":"uint24","internalType":"uint24"},{"name":"custody","type":"address","internalType":"address"},{"name":"recovery","type":"address","internalType":"address"}]}],"outputs":[],"stateMutability":"nonpayable"},{"type":"function","name":"bulkRegisterIdsWithDefaultRecovery","inputs":[{"name":"ids","type":"tuple[]","internalType":"struct IIdRegistry.BulkRegisterDefaultRecoveryData[]","components":[{"name":"fid","type":"uint24","internalType":"uint24"},{"name":"custody","type":"address","internalType":"address"}]},{"name":"recovery","type":"address","internalType":"address"}],"outputs":[],"stateMutability":"nonpayable"},{"type":"function","name":"bulkResetIds","inputs":[{"name":"ids","type":"uint24[]","internalType":"uint24[]"}],"outputs":[],"stateMutability":"nonpayable"},{"type":"function","name":"changeRecoveryAddress","inputs":[{"name":"recovery","type":"address","internalType":"address"}],"outputs":[],"stateMutability":"nonpayable"},{"type":"function","name":"changeRecoveryAddressFor","inputs":[{"name":"owner","type":"address","internalType":"address"},{"name":"recovery","type":"address","internalType":"address"},{"name":"deadline","type":"uint256","internalType":"uint256"},{"name":"sig","type":"bytes","internalType":"bytes"}],"outputs":[],"stateMutability":"nonpayable"},{"type":"function","name":"custodyOf","inputs":[{"name":"fid","type":"uint256","internalType":"uint256"}],"outputs":[{"name":"custody","type":"address","internalType":"address"}],"stateMutability":"view"},{"type":"function","name":"domainSeparatorV4","inputs":[],"outputs":[{"name":"","type":"bytes32","internalType":"bytes32"}],"stateMutability":"view"},{"type":"function","name":"eip712Domain","inputs":[],"outputs":[{"name":"fields","type":"bytes1","internalType":"bytes1"},{"name":"name","type":"string","internalType":"string"},{"name":"version","type":"string","internalType":"string"},{"name":"chainId","type":"uint256","internalType":"uint256"},{"name":"verifyingContract","type":"address","internalType":"address"},{"name":"salt","type":"bytes32","internalType":"bytes32"},{"name":"extensions","type":"uint256[]","internalType":"uint256[]"}],"stateMutability":"view"},{"type":"function","name":"freezeIdGateway","inputs":[],"outputs":[],"stateMutability":"nonpayable"},{"type":"function","name":"gatewayFrozen","inputs":[],"outputs":[{"name":"","type":"bool","internalType":"bool"}],"stateMutability":"view"},{"type":"function","name":"gracePeriod","inputs":[],"outputs":[{"name":"","type":"uint24","internalType":"uint24"}],"stateMutability":"view"},{"type":"function","name":"guardians","inputs":[{"name":"guardian","type":"address","internalType":"address"}],"outputs":[{"name":"isGuardian","type":"bool","internalType":"bool"}],"stateMutability":"view"},{"type":"function","name":"hashTypedDataV4","inputs":[{"name":"structHash","type":"bytes32","internalType":"bytes32"}],"outputs":[{"name":"","type":"bytes32","internalType":"bytes32"}],"stateMutability":"view"},{"type":"function","name":"idCounter","inputs":[],"outputs":[{"name":"","type":"uint256","internalType":"uint256"}],"stateMutability":"view"},{"type":"function","name":"idGateway","inputs":[],"outputs":[{"name":"","type":"address","internalType":"address"}],"stateMutability":"view"},{"type":"function","name":"idOf","inputs":[{"name":"owner","type":"address","internalType":"address"}],"outputs":[{"name":"fid","type":"uint256","internalType":"uint256"}],"stateMutability":"view"},{"type":"function","name":"isMigrated","inputs":[],"outputs":[{"name":"","type":"bool","internalType":"bool"}],"stateMutability":"view"},{"type":"function","name":"migrate","inputs":[],"outputs":[],"stateMutability":"nonpayable"},{"type":"function","name":"migratedAt","inputs":[],"outputs":[{"name":"","type":"uint40","internalType":"uint40"}],"stateMutability":"view"},{"type":"function","name":"migrator","inputs":[],"outputs":[{"name":"","type":"address","internalType":"address"}],"stateMutability":"view"},{"type":"function","name":"name","inputs":[],"outputs":[{"name":"","type":"string","internalType":"string"}],"stateMutability":"view"},{"type":"function","name":"nonces","inputs":[{"name":"owner","type":"address","internalType":"address"}],"outputs":[{"name":"","type":"uint256","internalType":"uint256"}],"stateMutability":"view"},{"type":"function","name":"owner","inputs":[],"outputs":[{"name":"","type":"address","internalType":"address"}],"stateMutability":"view"},{"type":"function","name":"pause","inputs":[],"outputs":[],"stateMutability":"nonpayable"},{"type":"function","name":"paused","inputs":[],"outputs":[{"name":"","type":"bool","internalType":"bool"}],"stateMutability":"view"},{"type":"function","name":"pendingOwner","inputs":[],"outputs":[{"name":"","type":"address","internalType":"address"}],"stateMutability":"view"},{"type":"function","name":"recover","inputs":[{"name":"from","type":"address","internalType":"address"},{"name":"to","type":"address","internalType":"address"},{"name":"deadline","type":"uint256","internalType":"uint256"},{"name":"sig","type":"bytes","internalType":"bytes"}],"outputs":[],"stateMutability":"nonpayable"},{"type":"function","name":"recoverFor","inputs":[{"name":"from","type":"address","internalType":"address"},{"name":"to","type":"address","internalType":"address"},{"name":"recoveryDeadline","type":"uint256","internalType":"uint256"},{"name":"recoverySig","type":"bytes","internalType":"bytes"},{"name":"toDeadline","type":"uint256","internalType":"uint256"},{"name":"toSig","type":"bytes","internalType":"bytes"}],"outputs":[],"stateMutability":"nonpayable"},{"type":"function","name":"recoveryOf","inputs":[{"name":"fid","type":"uint256","internalType":"uint256"}],"outputs":[{"name":"recovery","type":"address","internalType":"address"}],"stateMutability":"view"},{"type":"function","name":"register","inputs":[{"name":"to","type":"address","internalType":"address"},{"name":"recovery","type":"address","internalType":"address"}],"outputs":[{"name":"fid","type":"uint256","internalType":"uint256"}],"stateMutability":"nonpayable"},{"type":"function","name":"removeGuardian","inputs":[{"name":"guardian","type":"address","internalType":"address"}],"outputs":[],"stateMutability":"nonpayable"},{"type":"function","name":"renounceOwnership","inputs":[],"outputs":[],"stateMutability":"nonpayable"},{"type":"function","name":"setIdCounter","inputs":[{"name":"_counter","type":"uint256","internalType":"uint256"}],"outputs":[],"stateMutability":"nonpayable"},{"type":"function","name":"setIdGateway","inputs":[{"name":"_idGateway","type":"address","internalType":"address"}],"outputs":[],"stateMutability":"nonpayable"},{"type":"function","name":"setMigrator","inputs":[{"name":"_migrator","type":"address","internalType":"address"}],"outputs":[],"stateMutability":"nonpayable"},{"type":"function","name":"transfer","inputs":[{"name":"to","type":"address","internalType":"address"},{"name":"deadline","type":"uint256","internalType":"uint256"},{"name":"sig","type":"bytes","internalType":"bytes"}],"outputs":[],"stateMutability":"nonpayable"},{"type":"function","name":"transferAndChangeRecovery","inputs":[{"name":"to","type":"address","internalType":"address"},{"name":"recovery","type":"address","internalType":"address"},{"name":"deadline","type":"uint256","internalType":"uint256"},{"name":"sig","type":"bytes","internalType":"bytes"}],"outputs":[],"stateMutability":"nonpayable"},{"type":"function","name":"transferAndChangeRecoveryFor","inputs":[{"name":"from","type":"address","internalType":"address"},{"name":"to","type":"address","internalType":"address"},{"name":"recovery","type":"address","internalType":"address"},{"name":"fromDeadline","type":"uint256","internalType":"uint256"},{"name":"fromSig","type":"bytes","internalType":"bytes"},{"name":"toDeadline","type":"uint256","internalType":"uint256"},{"name":"toSig","type":"bytes","internalType":"bytes"}],"outputs":[],"stateMutability":"nonpayable"},{"type":"function","name":"transferFor","inputs":[{"name":"from","type":"address","internalType":"address"},{"name":"to","type":"address","internalType":"address"},{"name":"fromDeadline","type":"uint256","internalType":"uint256"},{"name":"fromSig","type":"bytes","internalType":"bytes"},{"name":"toDeadline","type":"uint256","internalType":"uint256"},{"name":"toSig","type":"bytes","internalType":"bytes"}],"outputs":[],"stateMutability":"nonpayable"},{"type":"function","name":"transferOwnership","inputs":[{"name":"newOwner","type":"address","internalType":"address"}],"outputs":[],"stateMutability":"nonpayable"},{"type":"function","name":"unpause","inputs":[],"outputs":[],"stateMutability":"nonpayable"},{"type":"function","name":"useNonce","inputs":[],"outputs":[{"name":"","type":"uint256","internalType":"uint256"}],"stateMutability":"nonpayable"},{"type":"function","name":"verifyFidSignature","inputs":[{"name":"custodyAddress","type":"address","internalType":"address"},{"name":"fid","type":"uint256","internalType":"uint256"},{"name":"digest","type":"bytes32","internalType":"bytes32"},{"name":"sig","type":"bytes","internalType":"bytes"}],"outputs":[{"name":"isValid","type":"bool","internalType":"bool"}],"stateMutability":"view"},{"type":"event","name":"Add","inputs":[{"name":"guardian","type":"address","indexed":true,"internalType":"address"}],"anonymous":false},{"type":"event","name":"AdminReset","inputs":[{"name":"fid","type":"uint256","indexed":true,"internalType":"uint256"}],"anonymous":false},{"type":"event","name":"ChangeRecoveryAddress","inputs":[{"name":"id","type":"uint256","indexed":true,"internalType":"uint256"},{"name":"recovery","type":"address","indexed":true,"internalType":"address"}],"anonymous":false},{"type":"event","name":"EIP712DomainChanged","inputs":[],"anonymous":false},{"type":"event","name":"FreezeIdGateway","inputs":[{"name":"idGateway","type":"address","indexed":false,"internalType":"address"}],"anonymous":false},{"type":"event","name":"Migrated","inputs":[{"name":"migratedAt","type":"uint256","indexed":true,"internalType":"uint256"}],"anonymous":false},{"type":"event","name":"OwnershipTransferStarted","inputs":[{"name":"previousOwner","type":"address","indexed":true,"internalType":"address"},{"name":"newOwner","type":"address","indexed":true,"internalType":"address"}],"anonymous":false},{"type":"event","name":"OwnershipTransferred","inputs":[{"name":"previousOwner","type":"address","indexed":true,"internalType":"address"},{"name":"newOwner","type":"address","indexed":true,"internalType":"address"}],"anonymous":false},{"type":"event","name":"Paused","inputs":[{"name":"account","type":"address","indexed":false,"internalType":"address"}],"anonymous":false},{"type":"event","name":"Recover","inputs":[{"name":"from","type":"address","indexed":true,"internalType":"address"},{"name":"to","type":"address","indexed":true,"internalType":"address"},{"name":"id","type":"uint256","indexed":true,"internalType":"uint256"}],"anonymous":false},{"type":"event","name":"Register","inputs":[{"name":"to","type":"address","indexed":true,"internalType":"address"},{"name":"id","type":"uint256","indexed":true,"internalType":"uint256"},{"name":"recovery","type":"address","indexed":false,"internalType":"address"}],"anonymous":false},{"type":"event","name":"Remove","inputs":[{"name":"guardian","type":"address","indexed":true,"internalType":"address"}],"anonymous":false},{"type":"event","name":"SetIdCounter","inputs":[{"name":"oldCounter","type":"uint256","indexed":false,"internalType":"uint256"},{"name":"newCounter","type":"uint256","indexed":false,"internalType":"uint256"}],"anonymous":false},{"type":"event","name":"SetIdGateway","inputs":[{"name":"oldIdGateway","type":"address","indexed":false,"internalType":"address"},{"name":"newIdGateway","type":"address","indexed":false,"internalType":"address"}],"anonymous":false},{"type":"event","name":"SetMigrator","inputs":[{"name":"oldMigrator","type":"address","indexed":false,"internalType":"address"},{"name":"newMigrator","type":"address","indexed":false,"internalType":"address"}],"anonymous":false},{"type":"event","name":"Transfer","inputs":[{"name":"from","type":"address","indexed":true,"internalType":"address"},{"name":"to","type":"address","indexed":true,"internalType":"address"},{"name":"id","type":"uint256","indexed":true,"internalType":"uint256"}],"anonymous":false},{"type":"event","name":"Unpaused","inputs":[{"name":"account","type":"address","indexed":false,"internalType":"address"}],"anonymous":false},{"type":"error","name":"AlreadyMigrated","inputs":[]},{"type":"error","name":"GatewayFrozen","inputs":[]},{"type":"error","name":"HasId","inputs":[]},{"type":"error","name":"HasNoId","inputs":[]},{"type":"error","name":"InvalidAccountNonce","inputs":[{"name":"account","type":"address","internalType":"address"},{"name":"currentNonce","type":"uint256","internalType":"uint256"}]},{"type":"error","name":"InvalidShortString","inputs":[]},{"type":"error","name":"InvalidSignature","inputs":[]},{"type":"error","name":"OnlyGuardian","inputs":[]},{"type":"error","name":"OnlyMigrator","inputs":[]},{"type":"error","name":"PermissionRevoked","inputs":[]},{"type":"error","name":"SignatureExpired","inputs":[]},{"type":"error","name":"StringTooLong","inputs":[{"name":"str","type":"string","internalType":"string"}]},{"type":"error","name":"Unauthorized","inputs":[]}],"bytecode":{"object":"0x6101806040523480156200001257600080fd5b5060405162003b7e38038062003b7e8339810160408190526200003591620003be565b6040518060400160405280601481526020017f4661726361737465722049645265676973747279000000000000000000000000815250604051806040016040528060018152602001603160f81b815250818162015180868680620000a8620000a2620001f460201b60201c565b620001f8565b6001805460ff60a01b19169055620000c081620001f8565b5062ffffff8316608052600380546001600160a01b0319166001600160a01b038416908117909155604080516000815260208101929092527fd8ad954fe808212ab9ed7139873e40807dff7995fe36e3d6cdeb8fa00fcebf10910160405180910390a16200012d62000216565b506200013f9150839050600462000279565b610140526200015081600562000279565b61016052815160208084019190912061010052815190820120610120524660c052620001e06101005161012051604080517f8b73c3c69bb8fe3d512ecc4cf759cc79239f7b179b0ffacaa9a75d522b39400f60208201529081019290925260608201524660808201523060a082015260009060c00160405160208183030381529060405280519060200120905090565b60a05250503060e05250620005dc92505050565b3390565b600180546001600160a01b03191690556200021381620002b2565b50565b6200022062000302565b6001805460ff60a01b1916600160a01b1790557f62e78cea01bee320cd4e420270b5ea74000d11b0c9f74754ebdbfc544b05a2586200025c3390565b6040516001600160a01b03909116815260200160405180910390a1565b6000602083511015620002995762000291836200035e565b9050620002ac565b81620002a684826200049b565b5060ff90505b92915050565b600080546001600160a01b038381166001600160a01b0319831681178455604051919092169283917f8be0079c531659141344cd1fd0a4f28419497f9722a3daafe3b4186f6b6457e09190a35050565b62000316600154600160a01b900460ff1690565b156200035c5760405162461bcd60e51b815260206004820152601060248201526f14185d5cd8589b194e881c185d5cd95960821b60448201526064015b60405180910390fd5b565b600080829050601f815111156200038c578260405163305a27a960e01b815260040162000353919062000567565b80516200039982620005b7565b179392505050565b80516001600160a01b0381168114620003b957600080fd5b919050565b60008060408385031215620003d257600080fd5b620003dd83620003a1565b9150620003ed60208401620003a1565b90509250929050565b634e487b7160e01b600052604160045260246000fd5b600181811c908216806200042157607f821691505b6020821081036200044257634e487b7160e01b600052602260045260246000fd5b50919050565b601f8211156200049657600081815260208120601f850160051c81016020861015620004715750805b601f850160051c820191505b8181101562000492578281556001016200047d565b5050505b505050565b81516001600160401b03811115620004b757620004b7620003f6565b620004cf81620004c884546200040c565b8462000448565b602080601f831160018114620005075760008415620004ee5750858301515b600019600386901b1c1916600185901b17855562000492565b600085815260208120601f198616915b82811015620005385788860151825594840194600190910190840162000517565b5085821015620005575787850151600019600388901b60f8161c191681555b5050505050600190811b01905550565b600060208083528351808285015260005b81811015620005965785810183015185820160400152820162000578565b506000604082860101526040601f19601f8301168501019250505092915050565b80516020808301519190811015620004425760001960209190910360031b1b16919050565b60805160a05160c05160e051610100516101205161014051610160516135206200065e60003960006112ec015260006112c101526000612768015260006127400152600061269b015260006126c5015260006126ef0152600081816106ae01528181610f70015281816113dd015281816118580152611eae01526135206000f3fe608060405234801561001057600080fd5b506004361061032a5760003560e01c806384b0196e116101b2578063ba656434116100f9578063ea2bbb83116100a2578063f2fde38b1161007c578063f2fde38b1461081c578063fa1a1b251461082f578063ff12644114610865578063ffa1ad741461087857600080fd5b8063ea2bbb83146107d9578063eb08ab2814610800578063f1f0b2241461080957600080fd5b8063d94fe832116100d3578063d94fe83214610793578063ddd76649146107b3578063e30c3978146107bb57600080fd5b8063ba65643414610746578063be45fd6214610759578063d5bac7f31461076c57600080fd5b80639cbef8dc1161015b578063a5ed6a6a11610135578063a5ed6a6a146106f7578063aa6773541461070a578063b06faf621461071d57600080fd5b80639cbef8dc14610696578063a06db7dc146106a9578063a526d83b146106e457600080fd5b80638da5cb5b1161018c5780638da5cb5b1461064b5780638fd3ab801461066957806395e7549f1461067157600080fd5b806384b0196e146105de5780638b21e484146105f95780638d8043e21461063857600080fd5b80634c5cbb3411610276578063715018a61161021f5780637cd07e47116101f95780637cd07e47146105805780637ecebe00146105a05780638456cb59146105d657600080fd5b8063715018a61461056857806378e890ba1461057057806379ba50971461057857600080fd5b806365269e471161025057806365269e471461050257806369615a4c14610538578063714041561461055557600080fd5b80634c5cbb34146104b957806355c5b358146104cc5780635c975abb146104df57600080fd5b80632a42ede3116102d85780633f4ba83a116102b25780633f4ba83a146104595780634980f288146104615780634b57a6001461047457600080fd5b80632a42ede31461042057806332faac70146104335780633ab8465d1461044657600080fd5b806306fdde031161030957806306fdde03146103b157806316f72842146103fa57806323cf31181461040d57600080fd5b8062bf26f41461032f578063033e2cb3146103695780630633b14a1461037e575b600080fd5b6103567fcdbe3d2a782931ab7e1b568857680f9812900b4702ab75d82ddfd270aaf595f581565b6040519081526020015b60405180910390f35b61037c610377366004612de0565b6108b4565b005b6103a161038c366004612de0565b60026020526000908152604090205460ff1681565b6040519015158152602001610360565b6103ed6040518060400160405280600d81526020017f466172636173746572204649440000000000000000000000000000000000000081525081565b6040516103609190612e70565b61037c610408366004612ec5565b6109ac565b61037c61041b366004612de0565b610a56565b61037c61042e366004612f69565b610b5a565b6103a1610441366004612fd8565b610d28565b61037c610454366004612f69565b610da2565b61037c610e11565b61035661046f366004613023565b610e23565b6007546104949073ffffffffffffffffffffffffffffffffffffffff1681565b60405173ffffffffffffffffffffffffffffffffffffffff9091168152602001610360565b61037c6104c736600461303c565b610e34565b61037c6104da3660046130f3565b610eeb565b60015474010000000000000000000000000000000000000000900460ff166103a1565b610494610510366004613023565b600a6020526000908152604090205473ffffffffffffffffffffffffffffffffffffffff1681565b336000908152600660205260409020805460018101909155610356565b61037c610563366004612de0565b6110ea565b61037c611166565b610356611178565b61037c611182565b6003546104949073ffffffffffffffffffffffffffffffffffffffff1681565b6103566105ae366004612de0565b73ffffffffffffffffffffffffffffffffffffffff1660009081526006602052604090205490565b61037c61123c565b6105e66112b3565b6040516103609796959493929190613168565b6003546106229074010000000000000000000000000000000000000000900464ffffffffff1681565b60405164ffffffffff9091168152602001610360565b61037c610646366004613227565b611358565b60005473ffffffffffffffffffffffffffffffffffffffff16610494565b61037c611544565b6007546103a19074010000000000000000000000000000000000000000900460ff1681565b61037c6106a4366004612f69565b611675565b6106d07f000000000000000000000000000000000000000000000000000000000000000081565b60405162ffffff9091168152602001610360565b61037c6106f2366004612de0565b611754565b61037c610705366004613023565b6117d3565b6103566107183660046132ab565b61192b565b60035474010000000000000000000000000000000000000000900464ffffffffff1615156103a1565b61037c610754366004612ec5565b6119fa565b61037c6107673660046132de565b611bcb565b6103567f73452d4f5155a3eca764048760f921bf1c1895c2982c18744c2cee4cf9bffc2b81565b6103566107a1366004612de0565b60096020526000908152604090205481565b61037c611c2e565b60015473ffffffffffffffffffffffffffffffffffffffff16610494565b6103567f945a10ef569bd76eee6deb46dcc4541142d52149c7015b1cf0a68ead33382a9b81565b61035660085481565b61037c610817366004612de0565b611d19565b61037c61082a366004612de0565b611d79565b61049461083d366004613023565b600b6020526000908152604090205473ffffffffffffffffffffffffffffffffffffffff1681565b61037c610873366004613338565b611e29565b6103ed6040518060400160405280600a81526020017f323032332e31312e31350000000000000000000000000000000000000000000081525081565b6108bc61201e565b60075474010000000000000000000000000000000000000000900460ff1615610911576040517f351f92c500000000000000000000000000000000000000000000000000000000815260040160405180910390fd5b6007546040805173ffffffffffffffffffffffffffffffffffffffff928316815291831660208301527f306b123921c19a8629c68977f4dfea9ef9d5a6dedfafcd0d4a70ac6c9b763ac2910160405180910390a1600780547fffffffffffffffffffffffff00000000000000000000000000000000000000001673ffffffffffffffffffffffffffffffffffffffff92909216919091179055565b60006109b8898961209f565b90506109fd8189898c8a8a8080601f01602080910402602001604051908101604052809392919081815260200183838082843760009201919091525061215c92505050565b610a408189868b87878080601f01602080910402602001604051908101604052809392919081815260200183838082843760009201919091525061215c92505050565b610a4b818a8a612219565b505050505050505050565b610a5e61201e565b60035474010000000000000000000000000000000000000000900464ffffffffff1615610ab7576040517fca1c3cbc00000000000000000000000000000000000000000000000000000000815260040160405180910390fd5b610abf6122bb565b6003546040805173ffffffffffffffffffffffffffffffffffffffff928316815291831660208301527fd8ad954fe808212ab9ed7139873e40807dff7995fe36e3d6cdeb8fa00fcebf10910160405180910390a1600380547fffffffffffffffffffffffff00000000000000000000000000000000000000001673ffffffffffffffffffffffffffffffffffffffff92909216919091179055565b73ffffffffffffffffffffffffffffffffffffffff851660009081526009602052604081205490819003610bba576040517f210b4b2600000000000000000000000000000000000000000000000000000000815260040160405180910390fd5b6000818152600b6020526040902054339073ffffffffffffffffffffffffffffffffffffffff168114610c19576040517f82b4290000000000000000000000000000000000000000000000000000000000815260040160405180910390fd5b73ffffffffffffffffffffffffffffffffffffffff861660009081526009602052604090205415610c76576040517ff90230a900000000000000000000000000000000000000000000000000000000815260040160405180910390fd5b610cb98287878988888080601f01602080910402602001604051908101604052809392919081815260200183838082843760009201919091525061215c92505050565b818673ffffffffffffffffffffffffffffffffffffffff168873ffffffffffffffffffffffffffffffffffffffff167ff6891c84a6c6af32a6d052172a8acc4c631b1d5057ffa2bc1da268b6938ea2da60405160405180910390a4610d1f828888612219565b50505050505050565b73ffffffffffffffffffffffffffffffffffffffff851660009081526009602052604081205485148015610d985750610d98868585858080601f01602080910402602001604051908101604052809392919081815260200183838082843760009201919091525061233f92505050565b9695505050505050565b6000610dae338761209f565b9050610df4818787878a88888080601f0160208091040260200160405190810160405280939291908181526020018383808284376000920191909152506123b092505050565b610dff813388612219565b610e098186612457565b505050505050565b610e1961201e565b610e216124dd565b565b6000610e2e8261255a565b92915050565b6000610e408a8a61209f565b9050610e86818a8a8a8e8b8b8080601f0160208091040260200160405190810160405280939291908181526020018383808284376000920191909152506123b092505050565b610eca818a8a878d88888080601f0160208091040260200160405190810160405280939291908181526020018383808284376000920191909152506123b092505050565b610ed5818b8b612219565b610edf8189612457565b50505050505050505050565b60035473ffffffffffffffffffffffffffffffffffffffff163314610f3c576040517f8020644900000000000000000000000000000000000000000000000000000000815260040160405180910390fd5b60035474010000000000000000000000000000000000000000900464ffffffffff1615158015610fc35750600354610fb9907f000000000000000000000000000000000000000000000000000000000000000062ffffff169074010000000000000000000000000000000000000000900464ffffffffff1661339b565b64ffffffffff1642115b15610ffa576040517fca0dc97b00000000000000000000000000000000000000000000000000000000815260040160405180910390fd5b6110026122bb565b60005b818110156110e05736838383818110611020576110206133e7565b90506060020190506009600082602001602081019061103f9190612de0565b73ffffffffffffffffffffffffffffffffffffffff1681526020810191909152604001600020541561109d576040517ff90230a900000000000000000000000000000000000000000000000000000000815260040160405180910390fd5b6110d76110ad6020830183613416565b62ffffff166110c26040840160208501612de0565b6110d26060850160408601612de0565b6125a2565b50600101611005565b505050565b905090565b6110f261201e565b73ffffffffffffffffffffffffffffffffffffffff811660008181526002602052604080822080547fffffffffffffffffffffffffffffffffffffffffffffffffffffffffffffff00169055517fbe7c7ac3248df4581c206a84aab3cb4e7d521b5398b42b681757f78a5a7d411e9190a250565b61116e61201e565b610e216000612650565b60006110e5612681565b600154339073ffffffffffffffffffffffffffffffffffffffff168114611230576040517f08c379a000000000000000000000000000000000000000000000000000000000815260206004820152602960248201527f4f776e61626c6532537465703a2063616c6c6572206973206e6f74207468652060448201527f6e6577206f776e6572000000000000000000000000000000000000000000000060648201526084015b60405180910390fd5b61123981612650565b50565b60005473ffffffffffffffffffffffffffffffffffffffff16331480159061127457503360009081526002602052604090205460ff16155b156112ab576040517fcae1d95600000000000000000000000000000000000000000000000000000000815260040160405180910390fd5b610e216127b9565b6000606080828080836112e77f00000000000000000000000000000000000000000000000000000000000000006004612828565b6113127f00000000000000000000000000000000000000000000000000000000000000006005612828565b604080516000808252602082019092527f0f000000000000000000000000000000000000000000000000000000000000009b939a50919850469750309650945092509050565b60035473ffffffffffffffffffffffffffffffffffffffff1633146113a9576040517f8020644900000000000000000000000000000000000000000000000000000000815260040160405180910390fd5b60035474010000000000000000000000000000000000000000900464ffffffffff16151580156114305750600354611426907f000000000000000000000000000000000000000000000000000000000000000062ffffff169074010000000000000000000000000000000000000000900464ffffffffff1661339b565b64ffffffffff1642115b15611467576040517fca0dc97b00000000000000000000000000000000000000000000000000000000815260040160405180910390fd5b61146f6122bb565b60005b8281101561153e573684848381811061148d5761148d6133e7565b9050604002019050600960008260200160208101906114ac9190612de0565b73ffffffffffffffffffffffffffffffffffffffff1681526020810191909152604001600020541561150a576040517ff90230a900000000000000000000000000000000000000000000000000000000815260040160405180910390fd5b61153561151a6020830183613416565b62ffffff1661152f6040840160208501612de0565b856125a2565b50600101611472565b50505050565b60035473ffffffffffffffffffffffffffffffffffffffff163314611595576040517f8020644900000000000000000000000000000000000000000000000000000000815260040160405180910390fd5b60035474010000000000000000000000000000000000000000900464ffffffffff16156115ee576040517fca1c3cbc00000000000000000000000000000000000000000000000000000000815260040160405180910390fd5b6115f66122bb565b600380547fffffffffffffff0000000000ffffffffffffffffffffffffffffffffffffffff16740100000000000000000000000000000000000000004264ffffffffff90811682029290921792839055604051920416907fe4a25c0c2cbe89d6ad8b64c61a7dbdd20d1f781f6023f1ab94ebb7fe0aef6ab890600090a2565b61167d6128d3565b73ffffffffffffffffffffffffffffffffffffffff8516600090815260096020526040812054908190036116dd576040517f210b4b2600000000000000000000000000000000000000000000000000000000815260040160405180910390fd5b610dff81600b600084815260200190815260200160002060009054906101000a900473ffffffffffffffffffffffffffffffffffffffff1687878a88888080601f01602080910402602001604051908101604052809392919081815260200183838082843760009201919091525061295892505050565b61175c61201e565b73ffffffffffffffffffffffffffffffffffffffff811660008181526002602052604080822080547fffffffffffffffffffffffffffffffffffffffffffffffffffffffffffffff00166001179055517f87dc5eecd6d6bdeae407c426da6bfba5b7190befc554ed5d4d62dd5cf939fbae9190a250565b60035473ffffffffffffffffffffffffffffffffffffffff163314611824576040517f8020644900000000000000000000000000000000000000000000000000000000815260040160405180910390fd5b60035474010000000000000000000000000000000000000000900464ffffffffff16151580156118ab57506003546118a1907f000000000000000000000000000000000000000000000000000000000000000062ffffff169074010000000000000000000000000000000000000000900464ffffffffff1661339b565b64ffffffffff1642115b156118e2576040517fca0dc97b00000000000000000000000000000000000000000000000000000000815260040160405180910390fd5b6118ea6122bb565b60085460408051918252602082018390527f562044dce594b5c0ac495e6cf3717dbef4dcc96bf978ff452457bfccd68a4eed910160405180910390a1600855565b60006119356128d3565b60075473ffffffffffffffffffffffffffffffffffffffff163314611986576040517f82b4290000000000000000000000000000000000000000000000000000000000815260040160405180910390fd5b73ffffffffffffffffffffffffffffffffffffffff8316600090815260096020526040902054156119e3576040517ff90230a900000000000000000000000000000000000000000000000000000000815260040160405180910390fd5b506008805460010190819055610e2e8184846125a2565b73ffffffffffffffffffffffffffffffffffffffff881660009081526009602052604081205490819003611a5a576040517f210b4b2600000000000000000000000000000000000000000000000000000000815260040160405180910390fd5b73ffffffffffffffffffffffffffffffffffffffff881660009081526009602052604090205415611ab7576040517ff90230a900000000000000000000000000000000000000000000000000000000815260040160405180910390fd5b6000818152600b6020908152604091829020548251601f8901839004830281018301909352878352611b229284928c928c9273ffffffffffffffffffffffffffffffffffffffff909116918c908c908190840183828082843760009201919091525061215c92505050565b611b658189868b87878080601f01602080910402602001604051908101604052809392919081815260200183838082843760009201919091525061215c92505050565b808873ffffffffffffffffffffffffffffffffffffffff168a73ffffffffffffffffffffffffffffffffffffffff167ff6891c84a6c6af32a6d052172a8acc4c631b1d5057ffa2bc1da268b6938ea2da60405160405180910390a4610a4b818a8a612219565b6000611bd7338661209f565b9050611c1c8186868887878080601f01602080910402602001604051908101604052809392919081815260200183838082843760009201919091525061215c92505050565b611c27813387612219565b5050505050565b611c3661201e565b60075474010000000000000000000000000000000000000000900460ff1615611c8b576040517f351f92c500000000000000000000000000000000000000000000000000000000815260040160405180910390fd5b60075460405173ffffffffffffffffffffffffffffffffffffffff90911681527f1f54688ee839cb2e57222a4f7482fd67a532a36666748891a7634428b2e8a1539060200160405180910390a1600780547fffffffffffffffffffffff00ffffffffffffffffffffffffffffffffffffffff1674010000000000000000000000000000000000000000179055565b611d216128d3565b3360009081526009602052604081205490819003611d6b576040517f210b4b2600000000000000000000000000000000000000000000000000000000815260040160405180910390fd5b611d758183612457565b5050565b611d8161201e565b6001805473ffffffffffffffffffffffffffffffffffffffff83167fffffffffffffffffffffffff00000000000000000000000000000000000000009091168117909155611de460005473ffffffffffffffffffffffffffffffffffffffff1690565b73ffffffffffffffffffffffffffffffffffffffff167f38d16b8cac22d99fc7c124b9cd0de2d3fa1faef420bfe791d8c362d765e2270060405160405180910390a350565b60035473ffffffffffffffffffffffffffffffffffffffff163314611e7a576040517f8020644900000000000000000000000000000000000000000000000000000000815260040160405180910390fd5b60035474010000000000000000000000000000000000000000900464ffffffffff1615158015611f015750600354611ef7907f000000000000000000000000000000000000000000000000000000000000000062ffffff169074010000000000000000000000000000000000000000900464ffffffffff1661339b565b64ffffffffff1642115b15611f38576040517fca0dc97b00000000000000000000000000000000000000000000000000000000815260040160405180910390fd5b611f406122bb565b60005b818110156110e0576000838383818110611f5f57611f5f6133e7565b9050602002016020810190611f749190613416565b62ffffff166000818152600a60209081526040808320805473ffffffffffffffffffffffffffffffffffffffff168085526009845282852085905585855281547fffffffffffffffffffffffff0000000000000000000000000000000000000000908116909255600b90935281842080549091169055519293509183917f8b4b4c6da5b89da518fb865149e01ad2863b48861a8b952e11645f663959fa7091a25050600101611f43565b60005473ffffffffffffffffffffffffffffffffffffffff163314610e21576040517f08c379a000000000000000000000000000000000000000000000000000000000815260206004820181905260248201527f4f776e61626c653a2063616c6c6572206973206e6f7420746865206f776e65726044820152606401611227565b73ffffffffffffffffffffffffffffffffffffffff8216600090815260096020526040812054908190036120ff576040517f210b4b2600000000000000000000000000000000000000000000000000000000815260040160405180910390fd5b73ffffffffffffffffffffffffffffffffffffffff821660009081526009602052604090205415610e2e576040517ff90230a900000000000000000000000000000000000000000000000000000000815260040160405180910390fd5b611c276122117fcdbe3d2a782931ab7e1b568857680f9812900b4702ab75d82ddfd270aaf595f587876121b98773ffffffffffffffffffffffffffffffffffffffff16600090815260066020526040902080546001810190915590565b60408051602081019590955284019290925273ffffffffffffffffffffffffffffffffffffffff166060830152608082015260a0810186905260c0015b6040516020818303038152906040528051906020012061255a565b8385846129b6565b6122216128d3565b73ffffffffffffffffffffffffffffffffffffffff8082166000818152600960208181526040808420899055888452600a825280842080547fffffffffffffffffffffffff0000000000000000000000000000000000000000168617905594871680845291905283822082905592518693917fddf252ad1be2c89b69c2b068fc378daa952ba7f163c4a11628f55a4df523b3ef91a4505050565b60015474010000000000000000000000000000000000000000900460ff16610e21576040517f08c379a000000000000000000000000000000000000000000000000000000000815260206004820152601460248201527f5061757361626c653a206e6f74207061757365640000000000000000000000006044820152606401611227565b600080600061234e8585612a31565b909250905060008160048111156123675761236761343b565b14801561239f57508573ffffffffffffffffffffffffffffffffffffffff168273ffffffffffffffffffffffffffffffffffffffff16145b80610d985750610d98868686612a76565b610e096122117f945a10ef569bd76eee6deb46dcc4541142d52149c7015b1cf0a68ead33382a9b88888861240e8873ffffffffffffffffffffffffffffffffffffffff16600090815260066020526040902080546001810190915590565b60408051602081019690965285019390935273ffffffffffffffffffffffffffffffffffffffff918216606085015216608083015260a082015260c0810186905260e0016121f6565b61245f6128d3565b6000828152600b602052604080822080547fffffffffffffffffffffffff00000000000000000000000000000000000000001673ffffffffffffffffffffffffffffffffffffffff85169081179091559051909184917f8e700b803af43e14651431cd73c9fe7d11b131ad797576a70b893ce5766f65c39190a35050565b6124e56122bb565b600180547fffffffffffffffffffffff00ffffffffffffffffffffffffffffffffffffffff1690557f5db9ee0a495bf2e6ff9c91a7834c1ba4fdd244a5e8aa4e537bd38aeae4b073aa335b60405173ffffffffffffffffffffffffffffffffffffffff909116815260200160405180910390a1565b6000610e2e612567612681565b836040517f19010000000000000000000000000000000000000000000000000000000000008152600281019290925260228201526042902090565b73ffffffffffffffffffffffffffffffffffffffff8281166000818152600960209081526040808320889055878352600a825280832080547fffffffffffffffffffffffff00000000000000000000000000000000000000009081168617909155600b8352928190208054909316948616948517909255905192835285927ff2e19a901b0748d8b08e428d0468896a039ac751ec4fec49b44b7b9c28097e45910160405180910390a3505050565b600180547fffffffffffffffffffffffff000000000000000000000000000000000000000016905561123981612bd3565b60003073ffffffffffffffffffffffffffffffffffffffff7f0000000000000000000000000000000000000000000000000000000000000000161480156126e757507f000000000000000000000000000000000000000000000000000000000000000046145b1561271157507f000000000000000000000000000000000000000000000000000000000000000090565b6110e5604080517f8b73c3c69bb8fe3d512ecc4cf759cc79239f7b179b0ffacaa9a75d522b39400f60208201527f0000000000000000000000000000000000000000000000000000000000000000918101919091527f000000000000000000000000000000000000000000000000000000000000000060608201524660808201523060a082015260009060c00160405160208183030381529060405280519060200120905090565b6127c16128d3565b600180547fffffffffffffffffffffff00ffffffffffffffffffffffffffffffffffffffff16740100000000000000000000000000000000000000001790557f62e78cea01bee320cd4e420270b5ea74000d11b0c9f74754ebdbfc544b05a2586125303390565b606060ff83146128425761283b83612c48565b9050610e2e565b81805461284e9061346a565b80601f016020809104026020016040519081016040528092919081815260200182805461287a9061346a565b80156128c75780601f1061289c576101008083540402835291602001916128c7565b820191906000526020600020905b8154815290600101906020018083116128aa57829003601f168201915b50505050509050610e2e565b60015474010000000000000000000000000000000000000000900460ff1615610e21576040517f08c379a000000000000000000000000000000000000000000000000000000000815260206004820152601060248201527f5061757361626c653a20706175736564000000000000000000000000000000006044820152606401611227565b610e096122117f73452d4f5155a3eca764048760f921bf1c1895c2982c18744c2cee4cf9bffc2b88888861240e8873ffffffffffffffffffffffffffffffffffffffff16600090815260066020526040902080546001810190915590565b814211156129f0576040517f0819bdcd00000000000000000000000000000000000000000000000000000000815260040160405180910390fd5b6129fb83858361233f565b61153e576040517f8baa579f00000000000000000000000000000000000000000000000000000000815260040160405180910390fd5b6000808251604103612a675760208301516040840151606085015160001a612a5b87828585612c87565b94509450505050612a6f565b506000905060025b9250929050565b60008060008573ffffffffffffffffffffffffffffffffffffffff16631626ba7e60e01b8686604051602401612aad9291906134bd565b604080517fffffffffffffffffffffffffffffffffffffffffffffffffffffffffffffffe08184030181529181526020820180517bffffffffffffffffffffffffffffffffffffffffffffffffffffffff167fffffffff00000000000000000000000000000000000000000000000000000000909416939093179092529051612b3691906134de565b600060405180830381855afa9150503d8060008114612b71576040519150601f19603f3d011682016040523d82523d6000602084013e612b76565b606091505b5091509150818015612b8a57506020815110155b8015610d98575080517f1626ba7e0000000000000000000000000000000000000000000000000000000090612bc890830160209081019084016134fa565b149695505050505050565b6000805473ffffffffffffffffffffffffffffffffffffffff8381167fffffffffffffffffffffffff0000000000000000000000000000000000000000831681178455604051919092169283917f8be0079c531659141344cd1fd0a4f28419497f9722a3daafe3b4186f6b6457e09190a35050565b60606000612c5583612d76565b604080516020808252818301909252919250600091906020820181803683375050509182525060208101929092525090565b6000807f7fffffffffffffffffffffffffffffff5d576e7357a4501ddfe92f46681b20a0831115612cbe5750600090506003612d6d565b6040805160008082526020820180845289905260ff881692820192909252606081018690526080810185905260019060a0016020604051602081039080840390855afa158015612d12573d6000803e3d6000fd5b50506040517fffffffffffffffffffffffffffffffffffffffffffffffffffffffffffffffe0015191505073ffffffffffffffffffffffffffffffffffffffff8116612d6657600060019250925050612d6d565b9150600090505b94509492505050565b600060ff8216601f811115610e2e576040517fb3512b0c00000000000000000000000000000000000000000000000000000000815260040160405180910390fd5b803573ffffffffffffffffffffffffffffffffffffffff81168114612ddb57600080fd5b919050565b600060208284031215612df257600080fd5b612dfb82612db7565b9392505050565b60005b83811015612e1d578181015183820152602001612e05565b50506000910152565b60008151808452612e3e816020860160208601612e02565b601f017fffffffffffffffffffffffffffffffffffffffffffffffffffffffffffffffe0169290920160200192915050565b602081526000612dfb6020830184612e26565b60008083601f840112612e9557600080fd5b50813567ffffffffffffffff811115612ead57600080fd5b602083019150836020828501011115612a6f57600080fd5b60008060008060008060008060c0898b031215612ee157600080fd5b612eea89612db7565b9750612ef860208a01612db7565b965060408901359550606089013567ffffffffffffffff80821115612f1c57600080fd5b612f288c838d01612e83565b909750955060808b0135945060a08b0135915080821115612f4857600080fd5b50612f558b828c01612e83565b999c989b5096995094979396929594505050565b600080600080600060808688031215612f8157600080fd5b612f8a86612db7565b9450612f9860208701612db7565b935060408601359250606086013567ffffffffffffffff811115612fbb57600080fd5b612fc788828901612e83565b969995985093965092949392505050565b600080600080600060808688031215612ff057600080fd5b612ff986612db7565b94506020860135935060408601359250606086013567ffffffffffffffff811115612fbb57600080fd5b60006020828403121561303557600080fd5b5035919050565b600080600080600080600080600060e08a8c03121561305a57600080fd5b6130638a612db7565b985061307160208b01612db7565b975061307f60408b01612db7565b965060608a0135955060808a013567ffffffffffffffff808211156130a357600080fd5b6130af8d838e01612e83565b909750955060a08c0135945060c08c01359150808211156130cf57600080fd5b506130dc8c828d01612e83565b915080935050809150509295985092959850929598565b6000806020838503121561310657600080fd5b823567ffffffffffffffff8082111561311e57600080fd5b818501915085601f83011261313257600080fd5b81358181111561314157600080fd5b86602060608302850101111561315657600080fd5b60209290920196919550909350505050565b7fff00000000000000000000000000000000000000000000000000000000000000881681526000602060e0818401526131a460e084018a612e26565b83810360408501526131b6818a612e26565b6060850189905273ffffffffffffffffffffffffffffffffffffffff8816608086015260a0850187905284810360c0860152855180825283870192509083019060005b81811015613215578351835292840192918401916001016131f9565b50909c9b505050505050505050505050565b60008060006040848603121561323c57600080fd5b833567ffffffffffffffff8082111561325457600080fd5b818601915086601f83011261326857600080fd5b81358181111561327757600080fd5b8760208260061b850101111561328c57600080fd5b6020928301955093506132a29186019050612db7565b90509250925092565b600080604083850312156132be57600080fd5b6132c783612db7565b91506132d560208401612db7565b90509250929050565b600080600080606085870312156132f457600080fd5b6132fd85612db7565b935060208501359250604085013567ffffffffffffffff81111561332057600080fd5b61332c87828801612e83565b95989497509550505050565b6000806020838503121561334b57600080fd5b823567ffffffffffffffff8082111561336357600080fd5b818501915085601f83011261337757600080fd5b81358181111561338657600080fd5b8660208260051b850101111561315657600080fd5b64ffffffffff8181168382160190808211156133e0577f4e487b7100000000000000000000000000000000000000000000000000000000600052601160045260246000fd5b5092915050565b7f4e487b7100000000000000000000000000000000000000000000000000000000600052603260045260246000fd5b60006020828403121561342857600080fd5b813562ffffff81168114612dfb57600080fd5b7f4e487b7100000000000000000000000000000000000000000000000000000000600052602160045260246000fd5b600181811c9082168061347e57607f821691505b6020821081036134b7577f4e487b7100000000000000000000000000000000000000000000000000000000600052602260045260246000fd5b50919050565b8281526040602082015260006134d66040830184612e26565b949350505050565b600082516134f0818460208701612e02565b9190910192915050565b60006020828403121561350c57600080fd5b505191905056fea164736f6c6343000815000a","linkReferences":{}},"methodIdentifiers":{"CHANGE_RECOVERY_ADDRESS_TYPEHASH()":"d5bac7f3","TRANSFER_AND_CHANGE_RECOVERY_TYPEHASH()":"ea2bbb83","TRANSFER_TYPEHASH()":"00bf26f4","VERSION()":"ffa1ad74","acceptOwnership()":"79ba5097","addGuardian(address)":"a526d83b","bulkRegisterIds((uint24,address,address)[])":"55c5b358","bulkRegisterIdsWithDefaultRecovery((uint24,address)[],address)":"8d8043e2","bulkResetIds(uint24[])":"ff126441","changeRecoveryAddress(address)":"f1f0b224","changeRecoveryAddressFor(address,address,uint256,bytes)":"9cbef8dc","custodyOf(uint256)":"65269e47","domainSeparatorV4()":"78e890ba","eip712Domain()":"84b0196e","freezeIdGateway()":"ddd76649","gatewayFrozen()":"95e7549f","gracePeriod()":"a06db7dc","guardians(address)":"0633b14a","hashTypedDataV4(bytes32)":"4980f288","idCounter()":"eb08ab28","idGateway()":"4b57a600","idOf(address)":"d94fe832","isMigrated()":"b06faf62","migrate()":"8fd3ab80","migratedAt()":"8b21e484","migrator()":"7cd07e47","name()":"06fdde03","nonces(address)":"7ecebe00","owner()":"8da5cb5b","pause()":"8456cb59","paused()":"5c975abb","pendingOwner()":"e30c3978","recover(address,address,uint256,bytes)":"2a42ede3","recoverFor(address,address,uint256,bytes,uint256,bytes)":"ba656434","recoveryOf(uint256)":"fa1a1b25","register(address,address)":"aa677354","removeGuardian(address)":"71404156","renounceOwnership()":"715018a6","setIdCounter(uint256)":"a5ed6a6a","setIdGateway(address)":"033e2cb3","setMigrator(address)":"23cf3118","transfer(address,uint256,bytes)":"be45fd62","transferAndChangeRecovery(address,address,uint256,bytes)":"3ab8465d","transferAndChangeRecoveryFor(address,address,address,uint256,bytes,uint256,bytes)":"4c5cbb34","transferFor(address,address,uint256,bytes,uint256,bytes)":"16f72842","transferOwnership(address)":"f2fde38b","unpause()":"3f4ba83a","useNonce()":"69615a4c","verifyFidSignature(address,uint256,bytes32,bytes)":"32faac70"},"id":56}