{
  "_format": "hh-sol-artifact-1",
  "contractName": "SFLUVv1",
  "sourceName": "src/SFLUVv1.sol",
  "abi": [
    {
      "inputs": [
        {
          "internalType": "contract IERC20",
          "name": "underlyingToken",
          "type": "address"
        }
      ],
      "stateMutability": "nonpayable",
      "type": "constructor"
    },
    {
      "inputs": [],
      "name": "InvalidShortString",
      "type": "error"
    },
    {
      "inputs": [
        {
          "internalType": "string",
          "name": "str",
          "type": "string"
        }
      ],
      "name": "StringTooLong",
      "type": "error"
    },
    {
      "anonymous": false,
      "inputs": [
        {
          "indexed": true,
          "internalType": "address",
          "name": "owner",
          "type": "address"
        },
        {
          "indexed": true,
          "internalType": "address",
          "name": "spender",
          "type": "address"
        },
        {
          "indexed": false,
          "internalType": "uint256",
          "name": "value",
          "type": "uint256"
        }
      ],
      "name": "Approval",
      "type": "event"
    },
    {
      "anonymous": false,
      "inputs": [],
      "name": "DefaultAdminDelayChangeCanceled",
      "type": "event"
    },
    {
      "anonymous": false,
      "inputs": [
        {
          "indexed": false,
          "internalType": "uint48",
          "name": "newDelay",
          "type": "uint48"
        },
        {
          "indexed": false,
          "internalType": "uint48",
          "name": "effectSchedule",
          "type": "uint48"
        }
      ],
      "name": "DefaultAdminDelayChangeScheduled",
      "type": "event"
    },
    {
      "anonymous": false,
      "inputs": [],
      "name": "DefaultAdminTransferCanceled",
      "type": "event"
    },
    {
      "anonymous": false,
      "inputs": [
        {
          "indexed": true,
          "internalType": "address",
          "name": "newAdmin",
          "type": "address"
        },
        {
          "indexed": false,
          "internalType": "uint48",
          "name": "acceptSchedule",
          "type": "uint48"
        }
      ],
      "name": "DefaultAdminTransferScheduled",
      "type": "event"
    },
    {
      "anonymous": false,
      "inputs": [],
      "name": "EIP712DomainChanged",
      "type": "event"
    },
    {
      "anonymous": false,
      "inputs": [
        {
          "indexed": true,
          "internalType": "bytes32",
          "name": "role",
          "type": "bytes32"
        },
        {
          "indexed": true,
          "internalType": "bytes32",
          "name": "previousAdminRole",
          "type": "bytes32"
        },
        {
          "indexed": true,
          "internalType": "bytes32",
          "name": "newAdminRole",
          "type": "bytes32"
        }
      ],
      "name": "RoleAdminChanged",
      "type": "event"
    },
    {
      "anonymous": false,
      "inputs": [
        {
          "indexed": true,
          "internalType": "bytes32",
          "name": "role",
          "type": "bytes32"
        },
        {
          "indexed": true,
          "internalType": "address",
          "name": "account",
          "type": "address"
        },
        {
          "indexed": true,
          "internalType": "address",
          "name": "sender",
          "type": "address"
        }
      ],
      "name": "RoleGranted",
      "type": "event"
    },
    {
      "anonymous": false,
      "inputs": [
        {
          "indexed": true,
          "internalType": "bytes32",
          "name": "role",
          "type": "bytes32"
        },
        {
          "indexed": true,
          "internalType": "address",
          "name": "account",
          "type": "address"
        },
        {
          "indexed": true,
          "internalType": "address",
          "name": "sender",
          "type": "address"
        }
      ],
      "name": "RoleRevoked",
      "type": "event"
    },
    {
      "anonymous": false,
      "inputs": [
        {
          "indexed": true,
          "internalType": "address",
          "name": "from",
          "type": "address"
        },
        {
          "indexed": true,
          "internalType": "address",
          "name": "to",
          "type": "address"
        },
        {
          "indexed": false,
          "internalType": "uint256",
          "name": "value",
          "type": "uint256"
        }
      ],
      "name": "Transfer",
      "type": "event"
    },
    {
      "inputs": [],
      "name": "DEFAULT_ADMIN_ROLE",
      "outputs": [
        {
          "internalType": "bytes32",
          "name": "",
          "type": "bytes32"
        }
      ],
      "stateMutability": "view",
      "type": "function"
    },
    {
      "inputs": [],
      "name": "DOMAIN_SEPARATOR",
      "outputs": [
        {
          "internalType": "bytes32",
          "name": "",
          "type": "bytes32"
        }
      ],
      "stateMutability": "view",
      "type": "function"
    },
    {
      "inputs": [],
      "name": "MINTER_ROLE",
      "outputs": [
        {
          "internalType": "bytes32",
          "name": "",
          "type": "bytes32"
        }
      ],
      "stateMutability": "view",
      "type": "function"
    },
    {
      "inputs": [],
      "name": "acceptDefaultAdminTransfer",
      "outputs": [],
      "stateMutability": "nonpayable",
      "type": "function"
    },
    {
      "inputs": [
        {
          "internalType": "address",
          "name": "owner",
          "type": "address"
        },
        {
          "internalType": "address",
          "name": "spender",
          "type": "address"
        }
      ],
      "name": "allowance",
      "outputs": [
        {
          "internalType": "uint256",
          "name": "",
          "type": "uint256"
        }
      ],
      "stateMutability": "view",
      "type": "function"
    },
    {
      "inputs": [
        {
          "internalType": "address",
          "name": "spender",
          "type": "address"
        },
        {
          "internalType": "uint256",
          "name": "amount",
          "type": "uint256"
        }
      ],
      "name": "approve",
      "outputs": [
        {
          "internalType": "bool",
          "name": "",
          "type": "bool"
        }
      ],
      "stateMutability": "nonpayable",
      "type": "function"
    },
    {
      "inputs": [
        {
          "internalType": "address",
          "name": "account",
          "type": "address"
        }
      ],
      "name": "balanceOf",
      "outputs": [
        {
          "internalType": "uint256",
          "name": "",
          "type": "uint256"
        }
      ],
      "stateMutability": "view",
      "type": "function"
    },
    {
      "inputs": [
        {
          "internalType": "address",
          "name": "newAdmin",
          "type": "address"
        }
      ],
      "name": "beginDefaultAdminTransfer",
      "outputs": [],
      "stateMutability": "nonpayable",
      "type": "function"
    },
    {
      "inputs": [],
      "name": "cancelDefaultAdminTransfer",
      "outputs": [],
      "stateMutability": "nonpayable",
      "type": "function"
    },
    {
      "inputs": [
        {
          "internalType": "uint48",
          "name": "newDelay",
          "type": "uint48"
        }
      ],
      "name": "changeDefaultAdminDelay",
      "outputs": [],
      "stateMutability": "nonpayable",
      "type": "function"
    },
    {
      "inputs": [],
      "name": "decimals",
      "outputs": [
        {
          "internalType": "uint8",
          "name": "",
          "type": "uint8"
        }
      ],
      "stateMutability": "pure",
      "type": "function"
    },
    {
      "inputs": [
        {
          "internalType": "address",
          "name": "spender",
          "type": "address"
        },
        {
          "internalType": "uint256",
          "name": "subtractedValue",
          "type": "uint256"
        }
      ],
      "name": "decreaseAllowance",
      "outputs": [
        {
          "internalType": "bool",
          "name": "",
          "type": "bool"
        }
      ],
      "stateMutability": "nonpayable",
      "type": "function"
    },
    {
      "inputs": [],
      "name": "defaultAdmin",
      "outputs": [
        {
          "internalType": "address",
          "name": "",
          "type": "address"
        }
      ],
      "stateMutability": "view",
      "type": "function"
    },
    {
      "inputs": [],
      "name": "defaultAdminDelay",
      "outputs": [
        {
          "internalType": "uint48",
          "name": "",
          "type": "uint48"
        }
      ],
      "stateMutability": "view",
      "type": "function"
    },
    {
      "inputs": [],
      "name": "defaultAdminDelayIncreaseWait",
      "outputs": [
        {
          "internalType": "uint48",
          "name": "",
          "type": "uint48"
        }
      ],
      "stateMutability": "view",
      "type": "function"
    },
    {
      "inputs": [
        {
          "internalType": "address",
          "name": "account",
          "type": "address"
        },
        {
          "internalType": "uint256",
          "name": "amount",
          "type": "uint256"
        }
      ],
      "name": "depositFor",
      "outputs": [
        {
          "internalType": "bool",
          "name": "",
          "type": "bool"
        }
      ],
      "stateMutability": "nonpayable",
      "type": "function"
    },
    {
      "inputs": [],
      "name": "eip712Domain",
      "outputs": [
        {
          "internalType": "bytes1",
          "name": "fields",
          "type": "bytes1"
        },
        {
          "internalType": "string",
          "name": "name",
          "type": "string"
        },
        {
          "internalType": "string",
          "name": "version",
          "type": "string"
        },
        {
          "internalType": "uint256",
          "name": "chainId",
          "type": "uint256"
        },
        {
          "internalType": "address",
          "name": "verifyingContract",
          "type": "address"
        },
        {
          "internalType": "bytes32",
          "name": "salt",
          "type": "bytes32"
        },
        {
          "internalType": "uint256[]",
          "name": "extensions",
          "type": "uint256[]"
        }
      ],
      "stateMutability": "view",
      "type": "function"
    },
    {
      "inputs": [
        {
          "internalType": "bytes32",
          "name": "role",
          "type": "bytes32"
        }
      ],
      "name": "getRoleAdmin",
      "outputs": [
        {
          "internalType": "bytes32",
          "name": "",
          "type": "bytes32"
        }
      ],
      "stateMutability": "view",
      "type": "function"
    },
    {
      "inputs": [
        {
          "internalType": "bytes32",
          "name": "role",
          "type": "bytes32"
        },
        {
          "internalType": "address",
          "name": "account",
          "type": "address"
        }
      ],
      "name": "grantRole",
      "outputs": [],
      "stateMutability": "nonpayable",
      "type": "function"
    },
    {
      "inputs": [
        {
          "internalType": "bytes32",
          "name": "role",
          "type": "bytes32"
        },
        {
          "internalType": "address",
          "name": "account",
          "type": "address"
        }
      ],
      "name": "hasRole",
      "outputs": [
        {
          "internalType": "bool",
          "name": "",
          "type": "bool"
        }
      ],
      "stateMutability": "view",
      "type": "function"
    },
    {
      "inputs": [
        {
          "internalType": "address",
          "name": "spender",
          "type": "address"
        },
        {
          "internalType": "uint256",
          "name": "addedValue",
          "type": "uint256"
        }
      ],
      "name": "increaseAllowance",
      "outputs": [
        {
          "internalType": "bool",
          "name": "",
          "type": "bool"
        }
      ],
      "stateMutability": "nonpayable",
      "type": "function"
    },
    {
      "inputs": [],
      "name": "name",
      "outputs": [
        {
          "internalType": "string",
          "name": "",
          "type": "string"
        }
      ],
      "stateMutability": "view",
      "type": "function"
    },
    {
      "inputs": [
        {
          "internalType": "address",
          "name": "owner",
          "type": "address"
        }
      ],
      "name": "nonces",
      "outputs": [
        {
          "internalType": "uint256",
          "name": "",
          "type": "uint256"
        }
      ],
      "stateMutability": "view",
      "type": "function"
    },
    {
      "inputs": [],
      "name": "owner",
      "outputs": [
        {
          "internalType": "address",
          "name": "",
          "type": "address"
        }
      ],
      "stateMutability": "view",
      "type": "function"
    },
    {
      "inputs": [],
      "name": "pendingDefaultAdmin",
      "outputs": [
        {
          "internalType": "address",
          "name": "newAdmin",
          "type": "address"
        },
        {
          "internalType": "uint48",
          "name": "schedule",
          "type": "uint48"
        }
      ],
      "stateMutability": "view",
      "type": "function"
    },
    {
      "inputs": [],
      "name": "pendingDefaultAdminDelay",
      "outputs": [
        {
          "internalType": "uint48",
          "name": "newDelay",
          "type": "uint48"
        },
        {
          "internalType": "uint48",
          "name": "schedule",
          "type": "uint48"
        }
      ],
      "stateMutability": "view",
      "type": "function"
    },
    {
      "inputs": [
        {
          "internalType": "address",
          "name": "owner",
          "type": "address"
        },
        {
          "internalType": "address",
          "name": "spender",
          "type": "address"
        },
        {
          "internalType": "uint256",
          "name": "value",
          "type": "uint256"
        },
        {
          "internalType": "uint256",
          "name": "deadline",
          "type": "uint256"
        },
        {
          "internalType": "uint8",
          "name": "v",
          "type": "uint8"
        },
        {
          "internalType": "bytes32",
          "name": "r",
          "type": "bytes32"
        },
        {
          "internalType": "bytes32",
          "name": "s",
          "type": "bytes32"
        }
      ],
      "name": "permit",
      "outputs": [],
      "stateMutability": "nonpayable",
      "type": "function"
    },
    {
      "inputs": [
        {
          "internalType": "bytes32",
          "name": "role",
          "type": "bytes32"
        },
        {
          "internalType": "address",
          "name": "account",
          "type": "address"
        }
      ],
      "name": "renounceRole",
      "outputs": [],
      "stateMutability": "nonpayable",
      "type": "function"
    },
    {
      "inputs": [
        {
          "internalType": "bytes32",
          "name": "role",
          "type": "bytes32"
        },
        {
          "internalType": "address",
          "name": "account",
          "type": "address"
        }
      ],
      "name": "revokeRole",
      "outputs": [],
      "stateMutability": "nonpayable",
      "type": "function"
    },
    {
      "inputs": [],
      "name": "rollbackDefaultAdminDelay",
      "outputs": [],
      "stateMutability": "nonpayable",
      "type": "function"
    },
    {
      "inputs": [
        {
          "internalType": "bytes4",
          "name": "interfaceId",
          "type": "bytes4"
        }
      ],
      "name": "supportsInterface",
      "outputs": [
        {
          "internalType": "bool",
          "name": "",
          "type": "bool"
        }
      ],
      "stateMutability": "view",
      "type": "function"
    },
    {
      "inputs": [],
      "name": "symbol",
      "outputs": [
        {
          "internalType": "string",
          "name": "",
          "type": "string"
        }
      ],
      "stateMutability": "view",
      "type": "function"
    },
    {
      "inputs": [],
      "name": "totalSupply",
      "outputs": [
        {
          "internalType": "uint256",
          "name": "",
          "type": "uint256"
        }
      ],
      "stateMutability": "view",
      "type": "function"
    },
    {
      "inputs": [
        {
          "internalType": "address",
          "name": "to",
          "type": "address"
        },
        {
          "internalType": "uint256",
          "name": "amount",
          "type": "uint256"
        }
      ],
      "name": "transfer",
      "outputs": [
        {
          "internalType": "bool",
          "name": "",
          "type": "bool"
        }
      ],
      "stateMutability": "nonpayable",
      "type": "function"
    },
    {
      "inputs": [
        {
          "internalType": "address",
          "name": "from",
          "type": "address"
        },
        {
          "internalType": "address",
          "name": "to",
          "type": "address"
        },
        {
          "internalType": "uint256",
          "name": "amount",
          "type": "uint256"
        }
      ],
      "name": "transferFrom",
      "outputs": [
        {
          "internalType": "bool",
          "name": "",
          "type": "bool"
        }
      ],
      "stateMutability": "nonpayable",
      "type": "function"
    },
    {
      "inputs": [],
      "name": "underlying",
      "outputs": [
        {
          "internalType": "contract IERC20",
          "name": "",
          "type": "address"
        }
      ],
      "stateMutability": "view",
      "type": "function"
    },
    {
      "inputs": [
        {
          "internalType": "address",
          "name": "account",
          "type": "address"
        },
        {
          "internalType": "uint256",
          "name": "amount",
          "type": "uint256"
        }
      ],
      "name": "withdrawTo",
      "outputs": [
        {
          "internalType": "bool",
          "name": "",
          "type": "bool"
        }
      ],
      "stateMutability": "nonpayable",
      "type": "function"
    }
  ],
  "bytecode": "0x6101806040523480156200001257600080fd5b5060405162002f6f38038062002f6f833981016040819052620000359162000461565b62093a80336040518060400160405280600a81526020016953464c55562056312e3160b01b81525080604051806040016040528060018152602001603160f81b815250856040518060400160405280600a81526020016953464c55562056312e3160b01b8152506040518060400160405280600581526020016429a3262aab60d91b8152508160039081620000cb919062000538565b506004620000da828262000538565b5050306001600160a01b0383160390506200013c5760405162461bcd60e51b815260206004820152601e60248201527f4552433230577261707065723a2063616e6e6f742073656c662077726170000060448201526064015b60405180910390fd5b6001600160a01b0316608052620001558260056200028d565b61014052620001668160066200028d565b61016052815160208084019190912061010052815190820120610120524660c052620001f66101005161012051604080517f8b73c3c69bb8fe3d512ecc4cf759cc79239f7b179b0ffacaa9a75d522b39400f60208201529081019290925260608201524660808201523060a082015260009060c00160405160208183030381529060405280519060200120905090565b60a05250503060e052506001600160a01b038116620002585760405162461bcd60e51b815260206004820152601e60248201527f416363657373436f6e74726f6c3a20302064656661756c742061646d696e0000604482015260640162000133565b600a80546001600160d01b0316600160d01b65ffffffffffff85160217905562000284600082620002c6565b50505062000679565b6000602083511015620002ad57620002a5836200037a565b9050620002c0565b81620002ba848262000538565b5060ff90505b92915050565b816200036a576000620002e1600b546001600160a01b031690565b6001600160a01b0316146200034e5760405162461bcd60e51b815260206004820152602c60248201527f416363657373436f6e74726f6c3a2064656661756c742061646d696e20616c7260448201526b1958591e4819dc985b9d195960a21b606482015260840162000133565b600b80546001600160a01b0319166001600160a01b0383161790555b620003768282620003bd565b5050565b600080829050601f81511115620003a8578260405163305a27a960e01b815260040162000133919062000604565b8051620003b58262000654565b179392505050565b60008281526009602090815260408083206001600160a01b038516845290915290205460ff16620003765760008281526009602090815260408083206001600160a01b03851684529091529020805460ff191660011790556200041d3390565b6001600160a01b0316816001600160a01b0316837f2f8788117e7eff1d82e926ec794901d17c78024a50270940304540a733656f0d60405160405180910390a45050565b6000602082840312156200047457600080fd5b81516001600160a01b03811681146200048c57600080fd5b9392505050565b634e487b7160e01b600052604160045260246000fd5b600181811c90821680620004be57607f821691505b602082108103620004df57634e487b7160e01b600052602260045260246000fd5b50919050565b601f8211156200053357600081815260208120601f850160051c810160208610156200050e5750805b601f850160051c820191505b818110156200052f578281556001016200051a565b5050505b505050565b81516001600160401b0381111562000554576200055462000493565b6200056c81620005658454620004a9565b84620004e5565b602080601f831160018114620005a457600084156200058b5750858301515b600019600386901b1c1916600185901b1785556200052f565b600085815260208120601f198616915b82811015620005d557888601518255948401946001909101908401620005b4565b5085821015620005f45787850151600019600388901b60f8161c191681555b5050505050600190811b01905550565b600060208083528351808285015260005b81811015620006335785810183015185820160400152820162000615565b506000604082860101526040601f19601f8301168501019250505092915050565b80516020808301519190811015620004df5760001960209190910360031b1b16919050565b60805160a05160c05160e05161010051610120516101405161016051612882620006ed60003960006108f4015260006108c90152600061144001526000611418015260006113730152600061139d015260006113c701526000818161038801528181610642015261133501526128826000f3fe608060405234801561001057600080fd5b50600436106102275760003560e01c806370a0823111610130578063a457c2d7116100b8578063d505accf1161007c578063d505accf146104de578063d5391393146104f1578063d547741f14610518578063d602b9fd1461052b578063dd62ed3e1461053357600080fd5b8063a457c2d71461047a578063a9059cbb1461048d578063cc8463c8146104a0578063cefc1429146104a8578063cf6eefb7146104b057600080fd5b80638da5cb5b116100ff5780638da5cb5b1461042857806391d148541461043057806395d89b4114610443578063a1eda53c1461044b578063a217fddf1461047257600080fd5b806370a08231146103c05780637ecebe00146103e957806384b0196e146103fc57806384ef8ffc1461041757600080fd5b80632f2ff15d116101b357806336568abe1161018257806336568abe1461033a578063395093511461034d578063634e93da14610360578063649a5ec7146103735780636f307dc31461038657600080fd5b80632f2ff15d146102fd5780632f4f21e214610310578063313ce567146103235780633644e5151461033257600080fd5b80630aa6220b116101fa5780630aa6220b1461029857806318160ddd146102a2578063205c2878146102b457806323b872dd146102c7578063248a9ca3146102da57600080fd5b806301ffc9a71461022c578063022d63fb1461025457806306fdde0314610270578063095ea7b314610285575b600080fd5b61023f61023a3660046123bd565b610546565b60405190151581526020015b60405180910390f35b620697805b60405165ffffffffffff909116815260200161024b565b610278610571565b60405161024b9190612437565b61023f610293366004612466565b610603565b6102a061061b565b005b6002545b60405190815260200161024b565b61023f6102c2366004612466565b610631565b61023f6102d5366004612490565b610671565b6102a66102e83660046124cc565b60009081526009602052604090206001015490565b6102a061030b3660046124e5565b610695565b61023f61031e366004612466565b610714565b6040516006815260200161024b565b6102a661075a565b6102a06103483660046124e5565b610769565b61023f61035b366004612466565b610853565b6102a061036e366004612511565b610875565b6102a061038136600461252c565b610889565b7f00000000000000000000000000000000000000000000000000000000000000005b6040516001600160a01b03909116815260200161024b565b6102a66103ce366004612511565b6001600160a01b031660009081526020819052604090205490565b6102a66103f7366004612511565b61089d565b6104046108bb565b60405161024b9796959493929190612554565b600b546001600160a01b03166103a8565b6103a8610944565b61023f61043e3660046124e5565b610958565b610278610983565b610453610992565b6040805165ffffffffffff93841681529290911660208301520161024b565b6102a6600081565b61023f610488366004612466565b6109e6565b61023f61049b366004612466565b610a61565b610259610a6f565b6102a0610ace565b6104b8610b4c565b604080516001600160a01b03909316835265ffffffffffff90911660208301520161024b565b6102a06104ec3660046125ea565b610b6d565b6102a67ff0887ba65ee2024ea881d91b74c2450ef19e1557f03bed3ea9f16b037cbe2dc981565b6102a06105263660046124e5565b610cd1565b6102a0610d4e565b6102a661054136600461265d565b610d61565b60006001600160e01b031982166318a4c3c360e11b148061056b575061056b82610d8c565b92915050565b60606003805461058090612687565b80601f01602080910402602001604051908101604052809291908181526020018280546105ac90612687565b80156105f95780601f106105ce576101008083540402835291602001916105f9565b820191906000526020600020905b8154815290600101906020018083116105dc57829003601f168201915b5050505050905090565b600033610611818585610dc1565b5060019392505050565b600061062681610ee6565b61062e610ef0565b50565b600061063d3383610efd565b6106687f0000000000000000000000000000000000000000000000000000000000000000848461102c565b50600192915050565b60003361067f85828561108f565b61068a858585611109565b506001949350505050565b816107065760405162461bcd60e51b815260206004820152603660248201527f416363657373436f6e74726f6c3a2063616e2774206469726563746c79206772604482015275616e742064656661756c742061646d696e20726f6c6560501b60648201526084015b60405180910390fd5b61071082826112ad565b5050565b60006107407ff0887ba65ee2024ea881d91b74c2450ef19e1557f03bed3ea9f16b037cbe2dc933610958565b61074957600080fd5b61075383836112d2565b9392505050565b6000610764611366565b905090565b811580156107845750600b546001600160a01b038281169116145b1561084957600080610794610b4c565b90925090506001600160a01b0382161580156107b7575065ffffffffffff811615155b80156107ca57504265ffffffffffff8216105b6108345760405162461bcd60e51b815260206004820152603560248201527f416363657373436f6e74726f6c3a206f6e6c792063616e2072656e6f756e636560448201527420696e2074776f2064656c6179656420737465707360581b60648201526084016106fd565b5050600a805465ffffffffffff60a01b191690555b6107108282611491565b6000336106118185856108668383610d61565b61087091906126d1565b610dc1565b600061088081610ee6565b6107108261150b565b600061089481610ee6565b6107108261157e565b6001600160a01b03811660009081526007602052604081205461056b565b6000606080828080836108ef7f000000000000000000000000000000000000000000000000000000000000000060056115ee565b61091a7f000000000000000000000000000000000000000000000000000000000000000060066115ee565b60408051600080825260208201909252600f60f81b9b939a50919850469750309650945092509050565b6000610764600b546001600160a01b031690565b60009182526009602090815260408084206001600160a01b0393909316845291905290205460ff1690565b60606004805461058090612687565b600b54600090600160d01b900465ffffffffffff1680151580156109be57504265ffffffffffff821610155b6109ca576000806109de565b600b54600160a01b900465ffffffffffff16815b915091509091565b600033816109f48286610d61565b905083811015610a545760405162461bcd60e51b815260206004820152602560248201527f45524332303a2064656372656173656420616c6c6f77616e63652062656c6f77604482015264207a65726f60d81b60648201526084016106fd565b61068a8286868403610dc1565b600033610611818585611109565b600b54600090600160d01b900465ffffffffffff168015158015610a9a57504265ffffffffffff8216105b610ab557600a54600160d01b900465ffffffffffff16610ac8565b600b54600160a01b900465ffffffffffff165b91505090565b6000610ad8610b4c565b509050336001600160a01b03821614610b445760405162461bcd60e51b815260206004820152602860248201527f416363657373436f6e74726f6c3a2070656e64696e672061646d696e206d75736044820152671d081858d8d95c1d60c21b60648201526084016106fd565b61062e611699565b600a546001600160a01b03811691600160a01b90910465ffffffffffff1690565b83421115610bbd5760405162461bcd60e51b815260206004820152601d60248201527f45524332305065726d69743a206578706972656420646561646c696e6500000060448201526064016106fd565b60007f6e71edae12b1b97f4d1f60370fef10105fa2faae0126114a169c64845d6126c9888888610bec8c611764565b6040805160208101969096526001600160a01b0394851690860152929091166060840152608083015260a082015260c0810186905260e0016040516020818303038152906040528051906020012090506000610c478261178c565b90506000610c57828787876117b9565b9050896001600160a01b0316816001600160a01b031614610cba5760405162461bcd60e51b815260206004820152601e60248201527f45524332305065726d69743a20696e76616c6964207369676e6174757265000060448201526064016106fd565b610cc58a8a8a610dc1565b50505050505050505050565b81610d445760405162461bcd60e51b815260206004820152603760248201527f416363657373436f6e74726f6c3a2063616e2774206469726563746c7920726560448201527f766f6b652064656661756c742061646d696e20726f6c6500000000000000000060648201526084016106fd565b61071082826117e3565b6000610d5981610ee6565b61062e611808565b6001600160a01b03918216600090815260016020908152604080832093909416825291909152205490565b60006001600160e01b03198216637965db0b60e01b148061056b57506301ffc9a760e01b6001600160e01b031983161461056b565b6001600160a01b038316610e235760405162461bcd60e51b8152602060048201526024808201527f45524332303a20617070726f76652066726f6d20746865207a65726f206164646044820152637265737360e01b60648201526084016106fd565b6001600160a01b038216610e845760405162461bcd60e51b815260206004820152602260248201527f45524332303a20617070726f766520746f20746865207a65726f206164647265604482015261737360f01b60648201526084016106fd565b6001600160a01b0383811660008181526001602090815260408083209487168084529482529182902085905590518481527f8c5be1e5ebec7d5bd14f71427d1e84f3dd0314c0f7b2291e5b200ac8c7c3b92591015b60405180910390a3505050565b61062e8133611813565b610efb60008061186c565b565b6001600160a01b038216610f5d5760405162461bcd60e51b815260206004820152602160248201527f45524332303a206275726e2066726f6d20746865207a65726f206164647265736044820152607360f81b60648201526084016106fd565b6001600160a01b03821660009081526020819052604090205481811015610fd15760405162461bcd60e51b815260206004820152602260248201527f45524332303a206275726e20616d6f756e7420657863656564732062616c616e604482015261636560f01b60648201526084016106fd565b6001600160a01b0383166000818152602081815260408083208686039055600280548790039055518581529192917fddf252ad1be2c89b69c2b068fc378daa952ba7f163c4a11628f55a4df523b3ef9101610ed9565b505050565b6040516001600160a01b03831660248201526044810182905261102790849063a9059cbb60e01b906064015b60408051601f198184030181529190526020810180516001600160e01b03166001600160e01b03199093169290921790915261192c565b600061109b8484610d61565b9050600019811461110357818110156110f65760405162461bcd60e51b815260206004820152601d60248201527f45524332303a20696e73756666696369656e7420616c6c6f77616e636500000060448201526064016106fd565b6111038484848403610dc1565b50505050565b6001600160a01b03831661116d5760405162461bcd60e51b815260206004820152602560248201527f45524332303a207472616e736665722066726f6d20746865207a65726f206164604482015264647265737360d81b60648201526084016106fd565b6001600160a01b0382166111cf5760405162461bcd60e51b815260206004820152602360248201527f45524332303a207472616e7366657220746f20746865207a65726f206164647260448201526265737360e81b60648201526084016106fd565b6001600160a01b038316600090815260208190526040902054818110156112475760405162461bcd60e51b815260206004820152602660248201527f45524332303a207472616e7366657220616d6f756e7420657863656564732062604482015265616c616e636560d01b60648201526084016106fd565b6001600160a01b03848116600081815260208181526040808320878703905593871680835291849020805487019055925185815290927fddf252ad1be2c89b69c2b068fc378daa952ba7f163c4a11628f55a4df523b3ef910160405180910390a3611103565b6000828152600960205260409020600101546112c881610ee6565b6110278383611a01565b6000333081036113305760405162461bcd60e51b815260206004820152602360248201527f4552433230577261707065723a20777261707065722063616e2774206465706f6044820152621cda5d60ea1b60648201526084016106fd565b61135c7f0000000000000000000000000000000000000000000000000000000000000000823086611aab565b6106118484611ae3565b6000306001600160a01b037f0000000000000000000000000000000000000000000000000000000000000000161480156113bf57507f000000000000000000000000000000000000000000000000000000000000000046145b156113e957507f000000000000000000000000000000000000000000000000000000000000000090565b610764604080517f8b73c3c69bb8fe3d512ecc4cf759cc79239f7b179b0ffacaa9a75d522b39400f60208201527f0000000000000000000000000000000000000000000000000000000000000000918101919091527f000000000000000000000000000000000000000000000000000000000000000060608201524660808201523060a082015260009060c00160405160208183030381529060405280519060200120905090565b6001600160a01b03811633146115015760405162461bcd60e51b815260206004820152602f60248201527f416363657373436f6e74726f6c3a2063616e206f6e6c792072656e6f756e636560448201526e103937b632b9903337b91039b2b63360891b60648201526084016106fd565b6107108282611ba2565b6000611515610a6f565b61151e42611bdd565b61152891906126fa565b90506115348282611c48565b60405165ffffffffffff821681526001600160a01b038316907f3377dc44241e779dd06afab5b788a35ca5f3b778836e2990bdb26a2a4b2e5ed69060200160405180910390a25050565b600061158982611cc7565b61159242611bdd565b61159c91906126fa565b90506115a8828261186c565b6040805165ffffffffffff8085168252831660208201527ff1038c18cf84a56e432fdbfaf746924b7ea511dfe03a6506a0ceba4888788d9b910160405180910390a15050565b606060ff83146116085761160183611d0f565b905061056b565b81805461161490612687565b80601f016020809104026020016040519081016040528092919081815260200182805461164090612687565b801561168d5780601f106116625761010080835404028352916020019161168d565b820191906000526020600020905b81548152906001019060200180831161167057829003601f168201915b5050505050905061056b565b6000806116a4610b4c565b915091506116b98165ffffffffffff16151590565b80156116cc57504265ffffffffffff8216105b6117295760405162461bcd60e51b815260206004820152602860248201527f416363657373436f6e74726f6c3a207472616e736665722064656c6179206e6f6044820152671d081c185cdcd95960c21b60648201526084016106fd565b6117456000611740600b546001600160a01b031690565b611ba2565b611750600083611a01565b5050600a80546001600160d01b0319169055565b6001600160a01b03811660009081526007602052604090208054600181018255905b50919050565b600061056b611799611366565b8360405161190160f01b8152600281019290925260228201526042902090565b60008060006117ca87878787611d4e565b915091506117d781611e12565b5090505b949350505050565b6000828152600960205260409020600101546117fe81610ee6565b6110278383611ba2565b610efb600080611c48565b61181d8282610958565b6107105761182a81611f5c565b611835836020611f6e565b604051602001611846929190612720565b60408051601f198184030181529082905262461bcd60e51b82526106fd91600401612437565b600b54600160d01b900465ffffffffffff1680156118ef574265ffffffffffff821610156118c557600b54600a80546001600160d01b0316600160a01b90920465ffffffffffff16600160d01b029190911790556118ef565b6040517f2b1fa2edafe6f7b9e97c1a9e0c3660e645beb2dcaa2d45bdbf9beaf5472e1ec590600090a15b50600b80546001600160a01b0316600160a01b65ffffffffffff948516026001600160d01b031617600160d01b9290931691909102919091179055565b6000611981826040518060400160405280602081526020017f5361666545524332303a206c6f772d6c6576656c2063616c6c206661696c6564815250856001600160a01b031661210a9092919063ffffffff16565b90508051600014806119a25750808060200190518101906119a29190612795565b6110275760405162461bcd60e51b815260206004820152602a60248201527f5361666545524332303a204552433230206f7065726174696f6e20646964206e6044820152691bdd081cdd58d8d9595960b21b60648201526084016106fd565b81611aa1576000611a1a600b546001600160a01b031690565b6001600160a01b031614611a855760405162461bcd60e51b815260206004820152602c60248201527f416363657373436f6e74726f6c3a2064656661756c742061646d696e20616c7260448201526b1958591e4819dc985b9d195960a21b60648201526084016106fd565b600b80546001600160a01b0319166001600160a01b0383161790555b6107108282612119565b6040516001600160a01b03808516602483015283166044820152606481018290526111039085906323b872dd60e01b90608401611058565b6001600160a01b038216611b395760405162461bcd60e51b815260206004820152601f60248201527f45524332303a206d696e7420746f20746865207a65726f20616464726573730060448201526064016106fd565b8060026000828254611b4b91906126d1565b90915550506001600160a01b038216600081815260208181526040808320805486019055518481527fddf252ad1be2c89b69c2b068fc378daa952ba7f163c4a11628f55a4df523b3ef910160405180910390a35050565b81158015611bbd5750600b546001600160a01b038281169116145b15611bd357600b80546001600160a01b03191690555b610710828261219f565b600065ffffffffffff821115611c445760405162461bcd60e51b815260206004820152602660248201527f53616665436173743a2076616c756520646f65736e27742066697420696e203460448201526538206269747360d01b60648201526084016106fd565b5090565b6000611c52610b4c565b600a805465ffffffffffff8616600160a01b026001600160d01b03199091166001600160a01b038816171790559150611c9490508165ffffffffffff16151590565b15611027576040517f8886ebfc4259abdbc16601dd8fb5678e54878f47b3c34836cfc51154a960510990600090a1505050565b600080611cd2610a6f565b90508065ffffffffffff168365ffffffffffff1611611cfa57611cf583826127b7565b610753565b61075365ffffffffffff841662069780612206565b60606000611d1c8361221c565b604080516020808252818301909252919250600091906020820181803683375050509182525060208101929092525090565b6000807f7fffffffffffffffffffffffffffffff5d576e7357a4501ddfe92f46681b20a0831115611d855750600090506003611e09565b6040805160008082526020820180845289905260ff881692820192909252606081018690526080810185905260019060a0016020604051602081039080840390855afa158015611dd9573d6000803e3d6000fd5b5050604051601f1901519150506001600160a01b038116611e0257600060019250925050611e09565b9150600090505b94509492505050565b6000816004811115611e2657611e266127d6565b03611e2e5750565b6001816004811115611e4257611e426127d6565b03611e8f5760405162461bcd60e51b815260206004820152601860248201527f45434453413a20696e76616c6964207369676e6174757265000000000000000060448201526064016106fd565b6002816004811115611ea357611ea36127d6565b03611ef05760405162461bcd60e51b815260206004820152601f60248201527f45434453413a20696e76616c6964207369676e6174757265206c656e6774680060448201526064016106fd565b6003816004811115611f0457611f046127d6565b0361062e5760405162461bcd60e51b815260206004820152602260248201527f45434453413a20696e76616c6964207369676e6174757265202773272076616c604482015261756560f01b60648201526084016106fd565b606061056b6001600160a01b03831660145b60606000611f7d8360026127ec565b611f889060026126d1565b67ffffffffffffffff811115611fa057611fa06126e4565b6040519080825280601f01601f191660200182016040528015611fca576020820181803683370190505b509050600360fc1b81600081518110611fe557611fe5612803565b60200101906001600160f81b031916908160001a905350600f60fb1b8160018151811061201457612014612803565b60200101906001600160f81b031916908160001a90535060006120388460026127ec565b6120439060016126d1565b90505b60018111156120bb576f181899199a1a9b1b9c1cb0b131b232b360811b85600f166010811061207757612077612803565b1a60f81b82828151811061208d5761208d612803565b60200101906001600160f81b031916908160001a90535060049490941c936120b481612819565b9050612046565b5083156107535760405162461bcd60e51b815260206004820181905260248201527f537472696e67733a20686578206c656e67746820696e73756666696369656e7460448201526064016106fd565b60606117db8484600085612244565b6121238282610958565b6107105760008281526009602090815260408083206001600160a01b03851684529091529020805460ff1916600117905561215b3390565b6001600160a01b0316816001600160a01b0316837f2f8788117e7eff1d82e926ec794901d17c78024a50270940304540a733656f0d60405160405180910390a45050565b6121a98282610958565b156107105760008281526009602090815260408083206001600160a01b0385168085529252808320805460ff1916905551339285917ff6391f5c32d9c69d2a47ea670b442974b53935d1edc7fd64eb21e047a839171b9190a45050565b60008183106122155781610753565b5090919050565b600060ff8216601f81111561056b57604051632cd44ac360e21b815260040160405180910390fd5b6060824710156122a55760405162461bcd60e51b815260206004820152602660248201527f416464726573733a20696e73756666696369656e742062616c616e636520666f6044820152651c8818d85b1b60d21b60648201526084016106fd565b600080866001600160a01b031685876040516122c19190612830565b60006040518083038185875af1925050503d80600081146122fe576040519150601f19603f3d011682016040523d82523d6000602084013e612303565b606091505b50915091506123148783838761231f565b979650505050505050565b6060831561238e578251600003612387576001600160a01b0385163b6123875760405162461bcd60e51b815260206004820152601d60248201527f416464726573733a2063616c6c20746f206e6f6e2d636f6e747261637400000060448201526064016106fd565b50816117db565b6117db83838151156123a35781518083602001fd5b8060405162461bcd60e51b81526004016106fd9190612437565b6000602082840312156123cf57600080fd5b81356001600160e01b03198116811461075357600080fd5b60005b838110156124025781810151838201526020016123ea565b50506000910152565b600081518084526124238160208601602086016123e7565b601f01601f19169290920160200192915050565b602081526000610753602083018461240b565b80356001600160a01b038116811461246157600080fd5b919050565b6000806040838503121561247957600080fd5b6124828361244a565b946020939093013593505050565b6000806000606084860312156124a557600080fd5b6124ae8461244a565b92506124bc6020850161244a565b9150604084013590509250925092565b6000602082840312156124de57600080fd5b5035919050565b600080604083850312156124f857600080fd5b823591506125086020840161244a565b90509250929050565b60006020828403121561252357600080fd5b6107538261244a565b60006020828403121561253e57600080fd5b813565ffffffffffff8116811461075357600080fd5b60ff60f81b881681526000602060e08184015261257460e084018a61240b565b8381036040850152612586818a61240b565b606085018990526001600160a01b038816608086015260a0850187905284810360c0860152855180825283870192509083019060005b818110156125d8578351835292840192918401916001016125bc565b50909c9b505050505050505050505050565b600080600080600080600060e0888a03121561260557600080fd5b61260e8861244a565b965061261c6020890161244a565b95506040880135945060608801359350608088013560ff8116811461264057600080fd5b9699959850939692959460a0840135945060c09093013592915050565b6000806040838503121561267057600080fd5b6126798361244a565b91506125086020840161244a565b600181811c9082168061269b57607f821691505b60208210810361178657634e487b7160e01b600052602260045260246000fd5b634e487b7160e01b600052601160045260246000fd5b8082018082111561056b5761056b6126bb565b634e487b7160e01b600052604160045260246000fd5b65ffffffffffff818116838216019080821115612719576127196126bb565b5092915050565b7f416363657373436f6e74726f6c3a206163636f756e74200000000000000000008152600083516127588160178501602088016123e7565b7001034b99036b4b9b9b4b733903937b6329607d1b60179184019182015283516127898160288401602088016123e7565b01602801949350505050565b6000602082840312156127a757600080fd5b8151801515811461075357600080fd5b65ffffffffffff828116828216039080821115612719576127196126bb565b634e487b7160e01b600052602160045260246000fd5b808202811582820484141761056b5761056b6126bb565b634e487b7160e01b600052603260045260246000fd5b600081612828576128286126bb565b506000190190565b600082516128428184602087016123e7565b919091019291505056fea26469706673582212202621a3b2ebb241cb9112842a491b5c2f2e6c0ba370fa9605eb1bcd4b5302647964736f6c63430008130033",
  "linkReferences": {},
  "deployedLinkReferences": {}
}